:10260000029D55008F828E83E0540100000070F817
:102610002278FFE4F6D8FD029DE3900450EBF0A38E
:10262000EAF0A3E9F09007E6E064FA7003023A6981
:10263000900450E0FBA3E0FAA3E0F8AC02AD037B0A
:10264000FF7A617967127CD49007DF74FFF0A3747E
:1026500061F0A37468F0900450E0FBA3E0FAA3E0FB
:10266000F912AD519007DF74FFF0A37461F0A37409
:102670006BF0900450E0FBA3E0FAA3E0F912AD5137
:102680009007DF74FFF0A37461F0A3747EF09004F0
:1026900050E0FBA3E0FAA3E0F912AD519007DF741C
:1026A000FFF0A37461F0A37497F0900450E0FBA3D3
:1026B000E0FAA3E0F912AD519007DF74FFF0A374C4
:1026C00061F0A3749DF0900450E0FBA3E0FAA3E056
:1026D000F912AD519004BC74FFF0A37461F0A374BF
:1026E000ABF09007E6E0FF9004BFE4F0A3EFF07BCF
:1026F000017A047955127DBE9007DF7401F0A3744E
:1027000004F0A37455F0900450E0FBA3E0FAA3E0BA
:10271000F912AD519007DF74FFF0A37461F0A37458
:10272000B4F0900450E0FBA3E0FAA3E0F912AD513D
:10273000900852E0B4011E9007DF74FFF0A37461AB
:10274000F0A374CFF0900450E0FBA3E0FAA3E0F90B
:1027500012AD51801C9007DF74FFF0A37461F0A3E9
:1027600074D4F0900450E0FBA3E0FAA3E0F912ADBA
:10277000519004BC74FFF0A37461F0A374D8F0907E
:102780000A54E0FF9004BFE4F0A3EFF07B017A0469
:102790007955127DBE9007DF7401F0A37404F0A395
:1027A0007455F0900450E0FBA3E0FAA3E0F912ADF9
:1027B000519007DF74FFF0A37461F0A37468F09088
:1027C0000450E0FBA3E0FAA3E0F912AD519007DF5B
:1027D00074FFF0A37461F0A374E8F0900450E0FB80
:1027E000A3E0FAA3E0F912AD519007DF74FFF0A364
:1027F0007461F0A374F5F0900450E0FBA3E0FAA339
:10280000E0F912AD519008C2E0B4021E9007DF74E7
:10281000FFF0A37462F0A37405F0900450E0FBA3F2
:10282000E0FAA3E0F912AD5180419008C2E0B40192
:102830001E9007DF74FFF0A37462F0A37413F0908E
:102840000450E0FBA3E0FAA3E0F912AD51801C9024
:1028500007DF74FFF0A37462F0A3741CF0900450BF
:10286000E0FBA3E0FAA3E0F912AD51E4900453F0C9
:10287000A3F0C3900454E09402900453E064809465
:102880008040030229D69008C2E06402705F900481
:10289000BC74FFF0A37462F0A3742AF0900453E0B8
:1028A000FEA3E07802C333CE33CED8F9247DF5827F
:1028B00074083EF583E0A3E0A3E0FFA3E09004BF2B
:1028C000CFF0A3EFF07B017A047955127DBE90071B
:1028D000DF7401F0A37404F0A37455F0900450E089
:1028E000FBA3E0FAA3E0F912AD510229C59008C29A
:1028F000E06401705E9004BC74FFF0A37462F0A306
:10290000742AF0900453E0FEA3E07802C333CE3380
:10291000CED8F92485F58274083EF583E0A3E0A3C0
:10292000E0FFA3E09004BFCFF0A3EFF07B017A04B7
:102930007955127DBE9007DF7401F0A37404F0A3F3
:102940007455F0900450E0FBA3E0FAA3E0F912AD57
:102950005180729004BC74FFF0A37462F0A3742AD7
:10296000F0900453E0FAA3E0FBAE027802C333CE4A
:1029700033CED8F92475F58274083EF583E0FCA3C4
:10298000E0FDA3E0FEA3E0FF741A2BF58274083A81
:10299000F583E0F9F81279D99004BFEEF0A3EFF0D7
:1029A0007B017A047955127DBE9007DF7401F0A394
:1029B0007404F0A37455F0900450E0FBA3E0FAA374
:1029C000E0F912AD51900454E004F0700690045305
:1029D000E004F00228729007DF74FFF0A37461F046
:1029E000A37468F0900450E0FBA3E0FAA3E0F912AE
:1029F000AD519007DF74FFF0A37461F0A37468F029
:102A0000900450E0FBA3E0FAA3E0F912AD5190046A
:102A1000BC74FFF0A37462F0A3742EF07B017A04FF
:102A20007955127DBE90088DE0540360199007DF40
:102A300074FFF0A37462F0A3743EF07B017A047912
:102A40005512AD5180179007DF74FFF0A37462F048
:102A5000A37444F07B017A04795512AD519007DFDD
:102A60007401F0A37404F0A37455F0900450E0FBDB
:102A7000A3E0FAA3E0F912AD519007DF74FFF0A3D1
:102A80007462F0A37449F0900450E0FBA3E0FAA351
:102A9000E0F912AD519007DF74FFF0A37462F0A368
:102AA000745FF0900450E0FBA3E0FAA3E0F912ADEC
:102AB00051E4900453F0A3F0C3900454E0940390C5
:102AC0000453E0648094804003022B7E9004BC7425
:102AD000FFF0A37462F0A3746FF0900453E0FCA3C2
:102AE000E0FD2401FEE43C9004BFF0A3CEF0EDAE87
:102AF000047802C333CE33CED8F92421F582740A88
:102B00003EF583E0FCA3E0FDA3E0FEA3E0FF90041C
:102B100053E0FAA3E0241AF58274083AF583E0F949
:102B2000F81279D99004C1EEF0A3EFF07B017A049A
:102B30007955127DBE9007DF7401F0A37404F0A3F1
:102B40007455F0900450E0FBA3E0FAA3E0F912AD55
:102B5000519007DF74FFF0A37461F0A37468F090E4
:102B60000450E0FBA3E0FAA3E0F912AD5190045445
:102B7000E004F07006900453E004F0022AB89004D8
:102B8000BC74FFF0A37462F0A37478F0900955E070
:102B9000FCA3E0FDA3E0FEA3E0FF9004BF127A6671
:102BA0007B017A047955127DBE9007DF7401F0A392
:102BB0007404F0A37455F0900450E0FBA3E0FAA372
:102BC000E0F912AD519007DF74FFF0A37461F0A338
:102BD0007468F0900450E0FBA3E0FAA3E0F912ADB2
:102BE000519004BC74FFF0A37462F0A3748AF09057
:102BF0000A2DE0FCA3E0FDA3E0FEA3E0FF9004BFEC
:102C0000127A667B017A047955127DBE9007DF74D3
:102C100001F0A37404F0A37455F0900450E0FBA3FA
:102C2000E0FAA3E0F912AD519007DF74FFF0A3744E
:102C300061F0A37468F0900450E0FBA3E0FAA3E015
:102C4000F912AD519004BC74FFF0A37462F0A37448
:102C50009CF0900A50E0FFA3E09004BFCFF0A3EFF8
:102C6000F0900A52E0FFA3E09004C1CFF0A3EFF090
:102C70007B017A047955127DBE9007DF7401F0A3C1
:102C80007404F0A37455F0900450E0FBA3E0FAA3A1
:102C9000E0F912AD519007DF74FFF0A37461F0A367
:102CA0007468F0900450E0FBA3E0FAA3E0F912ADE1
:102CB000519007DF74FFF0A37462F0A374BCF0902E
:102CC0000450E0FBA3E0FAA3E0F912AD519007DF56
:102CD00074FFF0A37462F0A374D2F0900450E0FB90
:102CE000A3E0FAA3E0F912AD51900819E064037073
:102CF00003022DF69004BC74FFF0A37462F0A37479
:102D0000E4F09007E7E0FCA3E0FDA3E0FEA3E0FF12
:102D1000EC1274F5E4FBFA798078471273DF9004C3
:102D2000BF127A667B017A047955127DBE9007DF67
:102D30007401F0A37404F0A37455F0900450E0FB08
:102D4000A3E0FAA3E0F912AD519004BC74FFF0A324
:102D50007462F0A374EEF09007EBE0FCA3E0FDA337
:102D6000E0FEA3E0FFEC1274F5E4FBFA798078470B
:102D70001273DF9004BF127A667B017A04795512D0
:102D80007DBE9007DF7401F0A37404F0A37455F0C6
:102D9000900450E0FBA3E0FAA3E0F912AD519004D7
:102DA000BC74FFF0A37462F0A374F8F09007EFE036
:102DB000FCA3E0FDA3E0FEA3E0FFEC1274F5E4FB4E
:102DC000FA798078471273DF9004BF127A667B012C
:102DD0007A047955127DBE9007DF7401F0A3740464
:102DE000F0A37455F0900450E0FBA3E0FAA3E0F9DF
:102DF00012AD51022EF59004BC74FFF0A37462F082
:102E0000A374E4F09007FFE0FCA3E0FDA3E0FEA3C1
:102E1000E0FFEC1274F5E4FBFA798078471273DF77
:102E20009004BF127A667B017A047955127DBE90B8
:102E300007DF7401F0A37404F0A37455F0900450FC
:102E4000E0FBA3E0FAA3E0F912AD519004BC74FFDB
:102E5000F0A37462F0A374EEF0900803E0FCA3E02A
:102E6000FDA3E0FEA3E0FFEC1274F5E4FBFA798029
:102E700078471273DF9004BF127A667B017A047977
:102E800055127DBE9007DF7401F0A37404F0A374A3
:102E900055F0900450E0FBA3E0FAA3E0F912AD5125
:102EA0009004BC74FFF0A37462F0A374F8F090086F
:102EB00007E0FCA3E0FDA3E0FEA3E0FFEC1274F545
:102EC000E4FBFA798078471273DF9004BF127A66C8
:102ED0007B017A047955127DBE9007DF7401F0A35F
:102EE0007404F0A37455F0900450E0FBA3E0FAA33F
:102EF000E0F912AD519007DF74FFF0A37463F0A303
:102F00007402F0900450E0FBA3E0FAA3E0F912ADE4
:102F100051900819E06403700302301E9004BC74E1
:102F2000FFF0A37462F0A374E4F09007F3E0FCA355
:102F3000E0FDA3E0FEA3E0FFEC1274F5E4FBFA79F8
:102F40008078471273DF9004BF127A667B017A049F
:102F50007955127DBE9007DF7401F0A37404F0A3CD
:102F60007455F0900450E0FBA3E0FAA3E0F912AD31
:102F7000519004BC74FFF0A37462F0A374EEF0905F
:102F800007F7E0FCA3E0FDA3E0FEA3E0FFEC127472
:102F9000F5E4FBFA798078471273DF9004BF127A68
:102FA000667B017A047955127DBE9007DF7401F0CB
:102FB000A37404F0A37455F0900450E0FBA3E0FA6E
:102FC000A3E0F912AD519004BC74FFF0A37462F059
:102FD000A374F8F09007FBE0FCA3E0FDA3E0FEA3E0
:102FE000E0FFEC1274F5E4FBFA798078471273DFA6
:102FF0009004BF127A667B017A047955127DBE90E7
:1030000007DF7401F0A37404F0A37455F09004502A
:10301000E0FBA3E0FAA3E0F912AD5102311D9004E8
:10302000BC74FFF0A37462F0A374E4F090080BE0AA
:10303000FCA3E0FDA3E0FEA3E0FFEC1274F5E4FBCB
:10304000FA798078471273DF9004BF127A667B01A9
:103050007A047955127DBE9007DF7401F0A37404E1
:10306000F0A37455F0900450E0FBA3E0FAA3E0F95C
:1030700012AD519004BC74FFF0A37462F0A374EE1F
:10308000F090080FE0FCA3E0FDA3E0FEA3E0FFEC5E
:103090001274F5E4FBFA798078471273DF9004BF6D
:1030A000127A667B017A047955127DBE9007DF742F
:1030B00001F0A37404F0A37455F0900450E0FBA356
:1030C000E0FAA3E0F912AD519004BC74FFF0A374D0
:1030D00062F0A374F8F0900813E0FCA3E0FDA3E015
:1030E000FEA3E0FFEC1274F5E4FBFA798078471256
:1030F00073DF9004BF127A667B017A047955127DE2
:10310000BE9007DF7401F0A37404F0A37455F0902F
:103110000450E0FBA3E0FAA3E0F912AD519007DF01
:1031200074FFF0A37461F0A37468F0900450E0FBA6
:10313000A3E0FAA3E0F912AD51900817E0B4031E22
:103140009007DF74FFF0A37463F0A3741CF0900485
:1031500050E0FBA3E0FAA3E0F912AD51801C900708
:10316000DF74FFF0A37463F0A37436F0900450E0B2
:10317000FBA3E0FAA3E0F912AD51900818E0146047
:1031800025146040240270589007DF74FFF0A37488
:1031900063F0A3744FF0900450E0FBA3E0FAA3E0C7
:1031A000F912AD51803A9007DF74FFF0A37463F019
:1031B000A37461F0900450E0FBA3E0FAA3E0F912DD
:1031C000AD51801C9007DF74FFF0A37463F0A3740B
:1031D00076F0900450E0FBA3E0FAA3E0F912AD51C1
:1031E000900819E014602814604314605E24037092
:1031F000769007DF74FFF0A37463F0A3748DF090F2
:103200000450E0FBA3E0FAA3E0F912AD518058901E
:1032100007DF74FFF0A37463F0A374A6F09004506A
:10322000E0FBA3E0FAA3E0F912AD51803A9007DF8A
:1032300074FFF0A37463F0A374BAF0900450E0FB41
:10324000A3E0FAA3E0F912AD51801C9007DF74FFF0
:10325000F0A37463F0A374D2F0900450E0FBA3E0F9
:10326000FAA3E0F912AD51900850E0601E9007DF1C
:1032700074FFF0A37463F0A374F7F0900450E0FBC4
:10328000A3E0FAA3E0F912AD51801C9007DF74FFB0
:10329000F0A37464F0A37418F0900450E0FBA3E072
:1032A000FAA3E0F912AD519004BC74FFF0A374646A
:1032B000F0A37438F0900851E0FE3395E09004BF1D
:1032C000F0A3CEF07B017A047955127DBE9007DF22
:1032D0007401F0A37404F0A37455F0900450E0FB63
:1032E000A3E0FAA3E0F912AD519007DF74FFF0A359
:1032F0007464F0A37451F0900450E0FBA3E0FAA3CF
:10330000E0F912AD51E4900453F0A3F0C3900454DB
:10331000E09403900453E06480948040030233A857
:103320009004BC74FFF0A37462F0A3746FF0900477
:1033300053E0FCA3E0FD2401FEE43C9004BFF0A3B5
:10334000CEF0741A2DF58274083CF583E0FF9004EA
:10335000C1E4F0A3EFF07B017A047955127DBE90B1
:1033600007DF7401F0A37404F0A37455F0900450C7
:10337000E0FBA3E0FAA3E0F912AD519007DF74FF80
:10338000F0A37461F0A37468F0900450E0FBA3E034
:10339000FAA3E0F912AD51900454E004F0700690E5
:1033A0000453E004F002330C9007DF74FFF0A374C1
:1033B00064F0A37466F0900450E0FBA3E0FAA3E08D
:1033C000F912AD51E4900453F0A3F0C3900454E01B
:1033D0009403900453E064809480400302348F90FF
:1033E00004BC74FFF0A37464F0A3747CF0900453E5
:1033F000E0FCA3E0FD2401FEE43C9004BFF0A3CE7A
:10340000F0EDAE047802C333CE33CED8F9241DF5E7
:103410008274083EF583E0FCA3E0FDA3E0FEA3E098
:10342000FF900453E0FAA3E0241AF58274083AF5F9
:1034300083E0F9F81279D99004C1127A667B017A97
:10344000047955127DBE9007DF7401F0A37404F077
:10345000A37455F0900450E0FBA3E0FAA3E0F91246
:10346000AD519007DF74FFF0A37461F0A37468F0AE
:10347000900450E0FBA3E0FAA3E0F912AD519004F0
:1034800054E004F07006900453E004F00233CB9053
:1034900007DF74FFF0A37464F0A37486F090045007
:1034A000E0FBA3E0FAA3E0F912AD51E4900453F07D
:1034B000A3F0C3900454E09403900453E064809418
:1034C0008040030235609004BC74FFF0A37464F084
:1034D000A374A0F0900453E0FCA3E0FD2401FEE4FB
:1034E0003C9004BFF0A3CEF0EDAE047802C333CE1F
:1034F00033CED8F92429F58274083EF583E0FCA385
:10350000E0FDA3E0FEA3E0FF9004C1127A667B0118
:103510007A047955127DBE9007DF7401F0A374041C
:10352000F0A37455F0900450E0FBA3E0FAA3E0F997
:1035300012AD519007DF74FFF0A37461F0A37468BB
:10354000F0900450E0FBA3E0FAA3E0F912AD519033
:103550000454E004F07006900453E004F00234B226
:103560009007DF74FFF0A37464F0A374A9F09004D3
:1035700050E0FBA3E0FAA3E0F912AD519004BC7453
:10358000FFF0A37464F0A374C1F0900853E0FCA3AF
:10359000E0FDA3E0FEA3E0FF9004BF127A6690086E
:1035A00057E0FCA3E0FDA3E0FEA3E0FF9004C312FC
:1035B0007A6690085BE0FCA3E0FDA3E0FEA3E0FFD9
:1035C0009004C7127A667B017A047955127DBE9009
:1035D00007DF7401F0A37404F0A37455F090045055
:1035E000E0FBA3E0FAA3E0F912AD519004BC74FF34
:1035F000F0A37464F0A374DAF090085FE0FCA3E039
:10360000FDA3E0FEA3E0FF9004BF127A669008637A
:10361000E0FCA3E0FDA3E0FEA3E0FF9004C3127A68
:1036200066900867E0FCA3E0FDA3E0FEA3E0FF9046
:1036300004C7127A667B017A047955127DBE900721
:10364000DF7401F0A37404F0A37455F0900450E00B
:10365000FBA3E0FAA3E0F912AD519007DF74FFF08D
:10366000A37461F0A37468F0900450E0FBA3E0FA47
:10367000A3E0F912AD519004BC74FFF0A37464F0A0
:10368000A374F3F09008DEE0FF9004BFE4F0A3EF32
:10369000F07B017A047955127DBE9007DF7401F04A
:1036A000A37404F0A37455F0900450E0FBA3E0FA77
:1036B000A3E0F912AD519007DF74FFF0A37461F03D
:1036C000A37468F0900450E0FBA3E0FAA3E0F912C1
:1036D000AD51E4900453F0A3F0C3900454E094017E
:1036E000900453E06480948040030237F19004BC5E
:1036F00074FFF0A37465F0A3740DF0900453E0FC24
:10370000A3E0FD2401FEE43C9004BFF0A3CEF0ED65
:10371000AE047802C333CE33CED8F924DFF58274F9
:10372000083EF583E0FCA3E0FDA3E0FEA3E0FF90EC
:103730000453E0FAA3E024C3F58274083AF583E069
:10374000F9F81279D99004C1127A667B017A04796A
:1037500055127DBE9007DF7401F0A37404F0A374CA
:1037600055F0900450E0FBA3E0FAA3E0F912AD514C
:103770009004BC74FFF0A37465F0A37433F090045C
:1037800053E0FAA3E0FBAE027802C333CE33CED8C7
:10379000F924E7F58274083EF583E0FCA3E0FDA37D
:1037A000E0FEA3E0FF74C32BF58274083AF583E0D2
:1037B000F9F81279D99004BF127A667B017A0479FC
:1037C00055127DBE9007DF7401F0A37404F0A3745A
:1037D00055F0900450E0FBA3E0FAA3E0F912AD51DC
:1037E000900454E004F07006900453E004F00236B4
:1037F000D99004BC74FFF0A37465F0A37440F090FA
:1038000008EFE0A3E0A3E0FFA3E09004BFCFF0A3A4
:10381000EFF09008F3E0A3E0A3E0FFA3E09004C181
:10382000CFF0A3EFF07B017A047955127DBE9007AB
:10383000DF7401F0A37404F0A37455F0900450E019
:10384000FBA3E0FAA3E0F912AD519007DF74FFF09B
:10385000A37461F0A37468F0900450E0FBA3E0FA55
:10386000A3E0F912AD519004BC74FFF0A37465F0AD
:10387000A3745CF09008F7E0FFA3E09004BFCFF0E2
:10388000A3EFF07B017A047955127DBE9007DF74B7
:1038900001F0A37404F0A37455F0900450E0FBA36E
:1038A000E0FAA3E0F912AD519007DF74FFF0A374C2
:1038B00061F0A37468F0900450E0FBA3E0FAA3E089
:1038C000F912AD519004BC74FFF0A37465F0A374B9
:1038D0006EF090086DE0FFA3E09004BFCFF0A3EF7F
:1038E000F07B017A047955127DBE9007DF7401F0F8
:1038F000A37404F0A37455F0900450E0FBA3E0FA25
:10390000A3E0F912AD519007DF74FFF0A37461F0EA
:10391000A37468F0900450E0FBA3E0FAA3E0F9126E
:10392000AD519004BC74FFF0A37465F0A37480F0F3
:1039300090086FE0FFA3E09004BFCFF0A3EFF07B0F
:10394000017A047955127DBE9007DF7401F0A374EB
:1039500004F0A37455F0900450E0FBA3E0FAA3E058
:10396000F912AD519007DF74FFF0A37461F0A374F6
:1039700068F0900450E0FBA3E0FAA3E0F912AD5127
:103980009004BC74FFF0A37465F0A37497F09008E2
:1039900071E0FFA3E09004BFCFF0A3EFF0900873B5
:1039A000E0FFA3E09004C1CFF0A3EFF07B017A0425
:1039B0007955127DBE9007DF7401F0A37404F0A363
:1039C0007455F0900450E0FBA3E0FAA3E0F912ADC7
:1039D000519007DF74FFF0A37461F0A37468F09056
:1039E0000450E0FBA3E0FAA3E0F912AD519004BC4F
:1039F00074FFF0A37465F0A374B5F0900951E0F87A
:103A0000A3E0F9A3E0FAA3E0FB900A10E0FCA3E036
:103A1000FDA3E0FEA3E0C39BFFEE9AFEED99FDEC53
:103A200098FC9004BF127A667B017A047955127D66
:103A3000BE9007DF7401F0A37404F0A37455F090F6
:103A40000450E0FBA3E0FAA3E0F912AD519007DFC8
:103A500074FFF0A37461F0A37468F0900450E0FB6D
:103A6000A3E0FAA3E0F912AD5122900002EEF0A318
:103A7000EFF078047C007D017BFF7A6A790C7E058B
:103A80007F47127BF690054B7405F0A37447F078DE
:103A9000517C057D017BFF7A6F79537E007F0F1289
:103AA0007BF678607C057D017BFF7A6F79627E0012
:103AB0007F1C127BF6787C7C057D017BFF7A6F7919
:103AC0007E7E007F1B127BF678977C057D017BFF55
:103AD0007A6F79997E007F1C127BF678B37C057D26
:103AE000017BFF7A6F79B57E007F22127BF678D555
:103AF0007C057D017BFF7A6F79D77E007F27127B63
:103B0000F678FC7C057D017BFF7A6F79FE7E007F75
:103B100011127BF6780D7C067D017BFF7A70790FA0
:103B20007E007F19127BF678267C067D017BFF7A6A
:103B30007079287E007F11127BF678377C067D0134
:103B40007BFF7A7079397E007F1C127BF678537C7C
:103B5000067D017BFF7A7079557E007F1D127BF612
:103B600078707C067D017BFF7A7079727E007F1B06
:103B7000127BF6788B7C067D017BFF7A70798D7ED7
:103B8000007F14127BF6789F7C067D017BFF7A70A4
:103B900079A17E007F24127BF678C37C067D017BB1
:103BA000FF7A7079C57E007F19127BF678DC7C067F
:103BB0007D017BFF7A7079DE7E007F18127BF678BC
:103BC000F47C067D017BFF7A7079F67E007F15120A
:103BD0007BF678097C077D017BFF7A71790B7E008B
:103BE0007F14127BF6781D7C077D017BFF7A71794B
:103BF0001F7E007F1A127BF678377C077D017BFFE2
:103C00007A7179397E007F15127BF6784C7C077DBE
:103C1000017BFF7A71794E7E007F27127BF67873E5
:103C20007C077D017BFF7A7179757E007F3F127B77
:103C3000F678B27C077D017BFF7A7179B47E007FD4
:103C40002A127BF67B017A05795112BA0C8F2A7BF6
:103C5000017A05796012BA0C8F2B7B017A05797C89
:103C600012BA0C8F2C7B017A0579FC12BA0C8F2DBD
:103C70007B017A06790D12BA0C8F2E7B017A0679B8
:103C80002612BA0C8F2F7B017A06795312BA0C8F49
:103C9000307B017A06797012BA0C8F317B017A067B
:103CA000798B12BA0C8F327B017A07790912BA0C20
:103CB0008F337B017A07791D12BA0C8F347B017A1E
:103CC00007793712BA0C8F357B017A0679C312BA9D
:103CD0000C8F367B017A0679F412BA0C8F377B0190
:103CE0007A07794C12BA0C8F387B017A07797312F4
:103CF000BA0C8F397B017A0779B212BA0C8F3A90DD
:103D00000004740CF0A37415F0900002E0FEA3E030
:103D1000FFEE6003024E23EFB415004003024E2372
:103D2000903D27F8282873023D6602495C024965E8
:103D3000024A35024B05024B18024B21024B2A0264
:103D40004B55024BD3024C10024C19024CEF024D62
:103D500075024D85024D99024DA2024DAB024DE513
:103D6000024DF5024E059000067402F0A314F09087
:103D700007E6E0900008F0852A28E5286032FFC3B6
:103D8000E52A9FFFE49400FE74512FF58274053EEE
:103D9000F583E0FFE528FDE52AC39DFDE49400FCE2
:103DA00074092DF58274003CF583EFF0152880CA64
:103DB0009000387407F0A37403F0900819E06403CE
:103DC00060689007E7E0FCA3E0FDA3E0FEA3E0FF4E
:103DD000EC1274F5E4FBFA798078471273DF9000F7
:103DE0003A127A669007EBE0FCA3E0FDA3E0FEA3A5
:103DF000E0FFEC1274F5E4FBFA798078471273DF88
:103E000090003E127A669007EFE0FCA3E0FDA3E08D
:103E1000FEA3E0FFEC1274F5E4FBFA798078471218
:103E200073DF900042127A6680669007FFE0FCA381
:103E3000E0FDA3E0FEA3E0FFEC1274F5E4FBFA79E9
:103E40008078471273DF90003A127A66900803E098
:103E5000FCA3E0FDA3E0FEA3E0FFEC1274F5E4FB9D
:103E6000FA798078471273DF90003E127A669008E4
:103E700007E0FCA3E0FDA3E0FEA3E0FFEC1274F575
:103E8000E4FBFA798078471273DF900042127A6679
:103E9000852B28E5286032FFC3E52B9FFFE49400C3
:103EA000FE74602FF58274053EF583E0FFE528FD82
:103EB000E52BC39DFDE49400FC74462DF58274004F
:103EC0003CF583EFF0152880CA90006A7407F0A3D0
:103ED0007403F0900819E0640360689007F3E0FC55
:103EE000A3E0FDA3E0FEA3E0FFEC1274F5E4FBFA0F
:103EF000798078471273DF90006C127A669007F72A
:103F0000E0FCA3E0FDA3E0FEA3E0FFEC1274F5E407
:103F1000FBFA798078471273DF900070127A66900E
:103F200007FBE0FCA3E0FDA3E0FEA3E0FFEC1274BE
:103F3000F5E4FBFA798078471273DF900074127A07
:103F400066806690080BE0FCA3E0FDA3E0FEA3E022
:103F5000FFEC1274F5E4FBFA798078471273DF9076
:103F6000006C127A6690080FE0FCA3E0FDA3E0FE6F
:103F7000A3E0FFEC1274F5E4FBFA79807847127342
:103F8000DF900070127A66900813E0FCA3E0FDA3B6
:103F9000E0FEA3E0FFEC1274F5E4FBFA79807847C9
:103FA0001273DF900074127A66852C28E52860323F
:103FB000FFC3E52C9FFFE49400FE747C2FF5827410
:103FC000053EF583E0FFE528FDE52CC39DFDE49467
:103FD00000FC74782DF58274003CF583EFF0152811
:103FE00080CAE490009CF0A304F0900817E09000D1
:103FF0009EF0900817601C9007DF74FFF0A37461B7
:10400000F0A37410F07B017A05799712AD517529F0
:104010001C801A9007DF74FFF0A37461F0A374167C
:10402000F07B017A05799712AD5175291B852928F6
:10403000E5286032FFC3E5299FFFE49400FE7497F2
:104040002FF58274053EF583E0FFE528FDE529C3E1
:104050009DFDE49400FC749F2DF58274003CF58373
:10406000EFF0152880CA749F2529F582E43400F505
:10407000837403F0E49000CEF0A304F0900818E0FD
:104080009000D0F090081814602314603C24027053
:10409000529007DF74FFF0A37461F0A3741BF07BF0
:1040A000017A0579B312AD5175291480369007DF76
:1040B00074FFF0A37461F0A37421F07B017A057999
:1040C000B312AD51752917801A9007DF74FFF0A362
:1040D0007461F0A3742AF07B017A0579B312AD51B3
:1040E000752919852928E5286032FFC3E5299FFF36
:1040F000E49400FE74B32FF58274053EF583E0FF6F
:10410000E528FDE529C39DFDE49400FC74D12DF55F
:104110008274003CF583EFF0152880CA74D12529FC
:10412000F582E43400F5837401F0E4900100F0A31B
:1041300004F0900819E0900102F09008191460262C
:1041400014603F1460582403706E9007DF74FFF012
:10415000A37461F0A37435F07B017A0579D512ADB3
:104160005175291B80529007DF74FFF0A37461F032
:10417000A37440F07B017A0579D512AD51752916EB
:1041800080369007DF74FFF0A37461F0A37446F0EB
:104190007B017A0579D512AD5175291A801A9007DD
:1041A000DF74FFF0A37461F0A37450F07B017A0513
:1041B00079D512AD51752927852928E5286032FF68
:1041C000C3E5299FFFE49400FE74D52FF5827405A2
:1041D0003EF583E0FFE528FDE529C39DFDE494005D
:1041E000FC74032DF58274013CF583EFF0152880F3
:1041F000CA74032529F582E43401F5837402F09032
:104200000132F0A304F0E4F528E528C39403501E1E
:10421000741A2528F582E43408F583E0FF74342508
:1042200028F582E43401F583EFF0052880DB852D45
:1042300028E5286032FFC3E52D9FFFE49400FE745B
:10424000FC2FF58274053EF583E0FFE528FDE52DA2
:10425000C39DFDE49400FC74372DF58274013CF598
:1042600083EFF0152880CA9001647403F0A3F0E492
:10427000F528E528C394035044E52825E025E024EB
:104280001DF582E43408F583E0FCA3E0FDA3E0FE25
:10429000A3E0FF741A2528F582E43408F583E0F9D9
:1042A000F81279D975F002E528A42466F582E5F0C4
:1042B0003401F583EEF0A3EFF0052880B5852E28B4
:1042C000E5286032FFC3E52E9FFFE49400FE740DE5
:1042D0002FF58274063EF583E0FFE528FDE52EC349
:1042E0009DFDE49400FC746C2DF58274013CF58313
:1042F000EFF0152880CA9001967407F0A37403F0BC
:10430000E4F528E528C394035031E52825E025E0AD
:104310002429F582E43408F583E0FCA3E0FDA3E062
:10432000FEA3E0FF75F004E528A42498F582E5F0EB
:104330003401F583127A66052880C8852F28E52880
:104340006032FFC3E52F9FFFE49400FE74262FF533
:104350008274063EF583E0FFE528FDE52FC39DFD51
:10436000E49400FC74A42DF58274013CF583EFF015
:10437000152880CAE49001C8F0A304F0900835E045
:104380009001CAF0900835601C9007DF74FFF0A31D
:104390007461F0A37410F07B017A06793712AD5185
:1043A00075291C801A9007DF74FFF0A37461F0A3D5
:1043B0007416F07B017A06793712AD5175291B8589
:1043C0002928E5286032FFC3E5299FFFE49400FE19
:1043D00074372FF58274063EF583E0FFE528FDE58E
:1043E00029C39DFDE49400FC74CB2DF58274013C3F
:1043F000F583EFF0152880CA74CB2529F582E434C3
:1044000001F5837403F09001FA7405F0A37402F0CF
:10441000E4F528E528C39401400302449EE52825DD
:10442000E025E02436F582E43408F583E0FCA3E0DF
:10443000FDA3E0FEA3E0FF741A2528F582E434080A
:10444000F583E0F9F81279D975F008E528A424FC81
:10445000F582E5F03401F583127A66E52825E0253A
:10446000E0243EF582E43408F583E0FCA3E0FDA3FC
:10447000E0FEA3E0FF741A2528F582E43408F583F2
:10448000E0F9F81279D975F008E528A42400F5823E
:10449000E5F03402F583127A66052802441385306C
:1044A00028E5286032FFC3E5309FFFE49400FE74E6
:1044B000532FF58274063EF583E0FFE528FDE530D5
:1044C000C39DFDE49400FC74042DF58274023CF558
:1044D00083EFF0152880CA90022C7405F0A37402B3
:1044E000F090084AE0FCA3E0FDA3E0FEA3E0FF900B
:1044F000022E127A66900846E0FCA3E0FDA3E0FEDF
:10450000A3E0FF900232127A66853128E5286032F6
:10451000FFC3E5319FFFE49400FE74702FF58274B1
:10452000063EF583E0FFE528FDE531C39DFDE494FB
:1045300000FC74362DF58274023CF583EFF01528EB
:1045400080CA90025E7403F0A37401F090084EE0FC
:10455000FFA3E0900260CFF0A3EFF0853228E528BA
:104560006032FFC3E5329FFFE49400FE748B2FF5A9
:104570008274063EF583E0FFE528FDE532C39DFD2C
:10458000E49400FC74622DF58274023CF583EFF034
:10459000152880CAE4900290F0A304F0900850E03F
:1045A000900292F0900850601C9007DF74FFF0A317
:1045B0007461F0A37410F07B017A06799F12AD51FB
:1045C000752924801A9007DF74FFF0A37461F0A3AB
:1045D0007416F07B017A06799F12AD5175292385F7
:1045E0002928E5286032FFC3E5299FFFE49400FEF7
:1045F000749F2FF58274063EF583E0FFE528FDE504
:1046000029C39DFDE49400FC74932DF58274023C53
:10461000F583EFF0152880CA74932529F582E434D8
:1046200002F5837403F09002C27401F0A3F09008C5
:1046300051E09002C4F0853628E5286032FFC3E5DA
:10464000369FFFE49400FE74C32FF58274063EF596
:1046500083E0FFE528FDE536C39DFDE49400FC748E
:10466000C52DF58274023CF583EFF0152880CAE46D
:104670009002F4F0A304F0900852E09002F6F0905B
:104680000852601C9007DF74FFF0A37461F0A374FC
:1046900010F07B017A0679DC12AD51752918801A69
:1046A0009007DF74FFF0A37461F0A37416F07B0130
:1046B0007A0679DC12AD51752917852928E528601D
:1046C00032FFC3E5299FFFE49400FE74DC2FF582DE
:1046D00074063EF583E0FFE528FDE529C39DFDE472
:1046E0009400FC74F72DF58274023CF583EFF0150D
:1046F0002880CA74F72529F582E43402F58374030F
:10470000F09003267407F0A314F0E4F528E528C31D
:1047100094065031E52825E025E02453F582E43461
:1047200008F583E0FCA3E0FDA3E0FEA3E0FF75F045
:1047300004E528A42428F582E5F03403F583127AF1
:1047400066052880C8853728E5286032FFC3E5372D
:104750009FFFE49400FE74F42FF58274063EF58307
:10476000E0FFE528FDE537C39DFDE49400FC7440BF
:104770002DF58274033CF583EFF0152880CA900371
:10478000587404F0A37401F090086DE0FFA3E0906A
:10479000035ACFF0A3EFF0853328E5286032FFC33A
:1047A000E5339FFFE49400FE74092FF58274073E01
:1047B000F583E0FFE528FDE533C39DFDE49400FCAF
:1047C000745C2DF58274033CF583EFF0152880CAE4
:1047D00090038A7403F0A37401F090086FE0FFA3C4
:1047E000E090038CCFF0A3EFF0853428E528603209
:1047F000FFC3E5349FFFE49400FE741D2FF582741F
:10480000073EF583E0FFE528FDE534C39DFDE49414
:1048100000FC748E2DF58274033CF583EFF01528AF
:1048200080CA9003BC7404F0A37402F0900871E095
:10483000FFA3E0900778CFF0A3EFF0900873E0FFBC
:10484000A3E090077CCFF0A3EFF0853528E5286042
:1048500032FFC3E5359FFFE49400FE74372FF582E5
:1048600074073EF583E0FFE528FDE535C39DFDE4D3
:104870009400FC74C22DF58274033CF583EFF015AF
:104880002880CA853828E5286032FFC3E5389FFFB5
:10489000E49400FE744C2FF58274073EF583E0FF2C
:1048A000E528FDE538C39DFDE49400FC74202DF55A
:1048B0008274043CF583EFF0152880CA853928E519
:1048C000286032FFC3E5399FFFE49400FE74732F24
:1048D000F58274073EF583E0FFE528FDE539C39DC9
:1048E000FDE49400FC74B62DF58274043CF583EF6E
:1048F000F0152880CA853A28E5286032FFC3E53ADA
:104900009FFFE49400FE74B22FF58274073EF58396
:10491000E0FFE528FDE53AC39DFDE49400FC74E862
:104920002DF58274043CF583EFF0152880CA7B01D5
:104930007A00790490054BE0A3E014FD12B5D690FF
:10494000054BE0FCA3E0FD2403F58274003CF583F5
:10495000EFF07B017A00790412A61722900975E026
:1049600090088FF022900819E064036064E4FFFE71
:104970007D807C47900975E0F8A3E0F9A3E0FAA3F5
:10498000E0FB1272D6127533900890127A66E4FF3B
:10499000FE7D807C47900979E0F8A3E0F9A3E0FA76
:1049A000A3E0FB1272D6127533900894127A66E473
:1049B000FFFE7D807C4790097DE0F8A3E0F9A3E04D
:1049C000FAA3E0FB1272D6127533900898127A6639
:1049D00022E4FFFE7D807C47900975E0F8A3E0F9B2
:1049E000A3E0FAA3E0FB1272D61275339008A81266
:1049F0007A66E4FFFE7D807C47900979E0F8A3E0C9
:104A0000F9A3E0FAA3E0FB1272D61275339008AC5A
:104A1000127A66E4FFFE7D807C4790097DE0F8A372
:104A2000E0F9A3E0FAA3E0FB1272D6127533900806
:104A3000B0127A6622900819E064036064E4FFFE15
:104A40007D807C47900975E0F8A3E0F9A3E0FAA324
:104A5000E0FB1272D612753390089C127A66E4FF5E
:104A6000FE7D807C47900979E0F8A3E0F9A3E0FAA5
:104A7000A3E0FB1272D61275339008A0127A66E496
:104A8000FFFE7D807C4790097DE0F8A3E0F9A3E07C
:104A9000FAA3E0FB1272D61275339008A4127A665C
:104AA00022E4FFFE7D807C47900975E0F8A3E0F9E1
:104AB000A3E0FAA3E0FB1272D61275339008B41289
:104AC0007A66E4FFFE7D807C47900979E0F8A3E0F8
:104AD000F9A3E0FAA3E0FB1272D61275339008B87E
:104AE000127A66E4FFFE7D807C4790097DE0F8A3A2
:104AF000E0F9A3E0FAA3E0FB1272D6127533900836
:104B0000BC127A6622900975E060079008C07403B1
:104B1000F022E49008C0F022900975E09008C1F0FE
:104B200022900975E09008C2F022E4F528E528C338
:104B300094034003024E2374752528F582E434095A
:104B4000F583E0FF74C32528F582E43408F583EF8C
:104B5000F0052880D8E4F528E528C394035071E5D2
:104B60002825E02475F582E43409F583E0FEA3E00E
:104B7000FFEE3395E0FDFCE52825E025E024C6F5B1
:104B800082E43408F583127A66E52825E025E024DE
:104B9000C6F582E43408F583C083C082E0FCA3E05C
:104BA000FDA3E0FEA3E0FF74C32528F582E43408EA
:104BB000F583E0F9F81279EDD082D083127A667429
:104BC000352528F582E4340AF583E4F00528808849
:104BD000D20A22E4F528E528C394034003024E23B9
:104BE000E52825E025E02475F582E43409F583E025
:104BF000FCA3E0FDA3E0FEA3E0FFE52825E025E01F
:104C000024D2F582E43408F583127A66052880C63A
:104C1000900975E09008DEF022E4F528E528C394B9
:104C2000024003024E23E52875F008A42475F5829E
:104C3000E43409F583E0FCA3E0FDA3E0FEA3E0FF7C
:104C4000E52825E025E024DFF582E43408F5831229
:104C50007A66E52875F008A42479F582E43409F52C
:104C600083E0FCA3E0FDA3E0FEA3E0FFE52825E050
:104C700025E024E7F582E43408F583127A66E52816
:104C800025E025E024DFF582E43408F583C083C005
:104C900082E0FCA3E0FDA3E0FEA3E0FF74C32528AF
:104CA000F582E43408F583E0F9F81279EDD082D08A
:104CB00083127A66E52825E025E024E7F582E434CE
:104CC00008F583C083C082E0FCA3E0FDA3E0FEA35F
:104CD000E0FF74C32528F582E43408F583E0F9F891
:104CE0001279EDD082D083127A660528024C1C908E
:104CF0000975E0FCA3E0FDA3E0FEA3E0FF90054DF5
:104D0000127A66E4FFFEFDFC90054DE0F8A3E0F9A1
:104D1000A3E0FAA3E0FBD312799F501490054DE075
:104D2000FCA3E0FDA3E0FEA3E0FF9008F3127A6687
:104D3000900979E0FCA3E0FDA3E0FEA3E0FF90056D
:104D40004D127A66E4FFFEFDFC90054DE0F8A3E00D
:104D5000F9A3E0FAA3E0FBC312799F5003024E23AC
:104D600090054DE0FCA3E0FDA3E0FEA3E0FF90086A
:104D7000EF127A6622900975E0FFA3E09008F7CF62
:104D8000F0A3EFF022900975E0FF60079008F97436
:104D900001F022E49008F9F022900975E09008FAF9
:104DA000F022900975E09008FBF022E4F528E52850
:104DB000C39406506EE52825E025E02475F582E4CD
:104DC0003409F583E0FCA3E0FDA3E0FEA3E0FFE5EA
:104DD0002825E025E024FCF582E43408F583127AE6
:104DE00066052880C9900975E0FFA3E0900916CFF9
:104DF000F0A3EFF022900975E0FFA3E0900918CF2F
:104E0000F0A3EFF022900975E0FFA3E090091ACF1C
:104E1000F0A3EFF0900977E0FFA3E090091CCFF03A
:104E2000A3EFF022E4F526F525F524F5239007E716
:104E3000E0FCA3E0FDA3E0FEA3E0F54A8E498D4827
:104E40008C47A3E0FCA3E0FDA3E0FEA3E0F54E8EBB
:104E50004D8D4C8C4BA3E0FCA3E0FDA3E0FEA3E052
:104E6000F5528E518D508C4FA3E0FCA3E0FDA3E0E2
:104E7000FEA3E0F5568E558D548C53A3E0FCA3E0C1
:104E8000FDA3E0FEA3E0F55A8E598D588C57A3E0A0
:104E9000FCA3E0FDA3E0FEA3E0F55E8E5D8D5C8CDF
:104EA0005BA3E0FCA3E0FDA3E0FEA3E0F5628E615E
:104EB0008D608C5FA3E0FCA3E0FDA3E0FEA3E0F522
:104EC000668E658D648C63A3E0FCA3E0FDA3E0FE29
:104ED000A3E0F56A8E698D688C67A3E0FCA3E0FD12
:104EE000A3E0FEA3E0F56E8E6D8D6C8C6BA3E0FCF1
:104EF000A3E0FDA3E0FEA3E0F5728E718D708C6FD0
:104F0000A3E0FCA3E0FDA3E0FEA3E0F5768E758DA3
:104F1000748C73900818E024FE70030250700460D3
:104F2000030257C4900850E06024A3E0FF3395E0EB
:104F3000FEFDFC900A29E0F8A3E0F9A3E0FAA3E063
:104F4000FB1278678F368E358D348C338024900831
:104F500051E0FF3395E0FEFDFC900A25E0F8A3E068
:104F6000F9A3E0FAA3E0FB1278678F368E358D3413
:104F70008C33900875E0F8A3E0F9A3E0FAA3E0FB16
:104F8000C3E5369BFFE5359AFEE53499FDE5339898
:104F9000FC900846E0F8A3E0F9A3E0FAA3E0FBC325
:104FA00012799F5044E4FFFEFDFC900846E0F8A310
:104FB000E0A3E0A3E0C312799F602E900875E0FCA7
:104FC000A3E0FDA3E0FEA3E0FF900846E0F8A3E025
:104FD000A3E0A3E0EF2BFFEE3AFEED39FDEC38FC49
:104FE000900875127A660257C4900875E0F8A3E03D
:104FF000F9A3E0FAA3E0FBC3E5369BFFE5359AFE93
:10500000E53499FDE53398FC90084AE0F8A3E0F90F
:10501000A3E0FAA3E0FBD312799F4043E4FFFEFD37
:10502000FC90084AE0F8A3E0A3E0A3E012799F60B7
:105030002E900875E0FCA3E0FDA3E0FEA3E0FF9046
:10504000084AE0F8A3E0A3E0A3E0EF2BFFEE3AFE6E
:10505000ED39FDEC38FC900875127A660257C4AF42
:1050600036AE35AD34AC33900875127A660257C44B
:10507000900819E014700302571F0460030257C41C
:10508000E4F53AF539F538F537F53EF53DF53CF5FB
:105090003BD3900A51E09484900A50E0648094835A
:1050A0004003D38001C350030254E9900918E0FA89
:1050B000A3E0FB900A51E09BFF900A50E09AFE3378
:1050C00095E08F3A8E39F538F537D3A3E09BEA6443
:1050D00080F8900A50E064809850030251B3900821
:1050E00075E0F8A3E0F9A3E0FAA3E0FBC000C0017B
:1050F000C002C003900916E0FEA3E0FFE4FCFDAB94
:105100003AAA39A938A837127867C006C0079009AB
:1051100018E0FEA3E0FFC3E49FFF74049EFEAB070C
:10512000FA3395E0F9F8D007D00612B1E7D003D0F2
:1051300002D001D000EB2FFFEA3EFEE93DFDE83C46
:10514000FC900875127A66900879E0F8A3E0F9A35C
:10515000E0FAA3E0FBC000C001C002C00390091642
:10516000E0FEA3E0FFE4FCFDAB3AAA39A938A8377A
:10517000127867C006C007900918E0FEA3E0FFC3DD
:10518000E49FFF74049EFEAB07FA3395E0F9F8D074
:1051900007D00612B1E7D003D002D001D000EB2F28
:1051A000FFEA3EFEE93DFDE83CFC900879127A6694
:1051B0000252BF900918E0FAA3E0FB900A51E02BDD
:1051C000FF900A50E03AFE3395E08F3A8E39F53879
:1051D000F537C3E49BFFE49AFEC3A3E09FEE64802F
:1051E000F8900A50E064809840030252BF9008751E
:1051F000E0F8A3E0F9A3E0FAA3E0FBC000C001C01F
:1052000002C003900916E0FEA3E0FFE4FCFDAB3A08
:10521000AA39A938A837127867C006C007900918BC
:10522000E0FEA3E0FFC3E49FFF74049EFEAB07FA19
:105230003395E0F9F8D007D00612B1E7D003D002D9
:10524000D001D000EB2FFFEA3EFEE93DFDE83CFC3B
:10525000900875127A66900879E0F8A3E0F9A3E067
:10526000FAA3E0FBC000C001C002C003900916E031
:10527000FEA3E0FFE4FCFDAB3AAA39A938A8371237
:105280007867C006C007900918E0FEA3E0FFC3E4FA
:105290009FFF74049EFEAB07FA3395E0F9F8D00740
:1052A000D00612B1E7D003D002D001D000EB2FFF1F
:1052B000EA3EFEE93DFDE83CFC900879127A6690F2
:1052C0000918E0FAA3E0FBC3900A53E09BFF900AA1
:1052D00052E09AFE3395E08F3E8E3DF53CF53BD390
:1052E000A3E09BEA6480F8900A52E064809850033F
:1052F0000253D1900875E0F8A3E0F9A3E0FAA3E027
:10530000FBC000C001C002C003900916E0FEA3E08C
:10531000FFE4FCFDAB3EAA3DA93CA83B127867C068
:1053200006C007900918E0FEA3E0FFC3E49FFF74E6
:10533000049EFEAB07FA3395E0F9F8D007D00612C9
:10534000B1E7D003D002D001D000EB2FFFEA3EFE40
:10535000E93DFDE83CFC900875127A66900879E01A
:10536000FCA3E0FDA3E0FEA3E0FFC004C005C0066F
:10537000C007900916E0FEA3E0FFE4FCFDAB3EAAE7
:105380003DA93CA83B127867C006C007900918E009
:10539000FEA3E0FFC3E49FFF74049EFEAB07FA3355
:1053A00095E0F9F8D007D00612B1E7A804A905AA3C
:1053B00006AB07D007D006D005D004C3EF9BFFEEA5
:1053C0009AFEED99FDEC98FC900879127A660257E6
:1053D000C4900918E0FAA3E0FB900A53E02BFF9079
:1053E0000A52E03AFE3395E08F3E8E3DF53CF53BA8
:1053F000C3E49BFFE49AFEC3A3E09FEE6480F890B1
:105400000A52E064809840030257C4900875E0F89F
:10541000A3E0F9A3E0FAA3E0FBC000C001C002C012
:1054200003900916E0FEA3E0FFE4FCFDAB3EAA3DBD
:10543000A93CA83B127867C006C007900918E0FE97
:10544000A3E0FFC3E49FFF74049EFEAB07FA33950D
:10545000E0F9F8D007D00612B1E7D003D002D001AE
:10546000D000EB2FFFEA3EFEE93DFDE83CFC900852
:1054700075127A66900879E0FCA3E0FDA3E0FEA334
:10548000E0FFC004C005C006C007900916E0FEA3F7
:10549000E0FFE4FCFDAB3EAA3DA93CA83B127867C7
:1054A000C006C007900918E0FEA3E0FFC3E49FFF19
:1054B00074049EFEAB07FA3395E0F9F8D007D006E6
:1054C00012B1E7A804A905AA06AB07D007D006D0F9
:1054D00005D004C3EF9BFFEE9AFEED99FDEC98FC1E
:1054E000900879127A660257C4900A25E0F8A3E082
:1054F000F9A3E0FAA3E0FB900A21E0FCA3E0FDA3FE
:10550000E0FEA3E0C39BFFEE9AFEED99FDEC98FC54
:1055100090081AE0F9F81279D98F428E418D408CAB
:105520003F900A25E0FCA3E0FDA3E0FEA3E0FF908E
:105530000A21E0F8A3E0F9A3E0FAA3E02FFFEA3E96
:10554000FEE93DFDE83CFC90081AE0F9F81279D933
:105550008F468E458D448C43AE41AF4212BC60D322
:10556000EF94F4EE64809481500302565FE4FFFEF2
:10557000FDFCAB42AA41A940A83F12799F40067E9C
:10558000007F0180047EFF7FFFEF64014E70689012
:105590000879E0F8A3E0F9A3E0FAA3E0FB9009168C
:1055A000E0FEA3E0FFE4FCFDEB2FFFEA3EFEED3959
:1055B000FDEC38FC900879127A66900875E0FCA33F
:1055C000E0FDA3E0FEA3E0FFC006C007900916E0DF
:1055D000C313FEA3E013FFFBAA06E4D007D006C363
:1055E000EF9BFFEE9AFEED9400FDEC9400FC90081A
:1055F00075127A660257C4900875E0F8A3E0F9A323
:10560000E0FAA3E0FB900916E0FEA3E0FFE4FCFD56
:10561000EB2FFFEA3EFEED39FDEC38FC90087512E9
:105620007A66900879E0FCA3E0FDA3E0FEA3E0FF2A
:10563000C006C007900916E0C313FEA3E013FFFBEA
:10564000AA06E4D007D006C3EF9BFFEE9AFEED94C6
:1056500000FDEC9400FC900879127A660257C4E4CD
:10566000FFFEFDFCAB46AA45A944A843D312799F8F
:1056700050030257C4900875E0FCA3E0FDA3E0FED0
:10568000A3E0FFC006C007900917E025E0FF9009DE
:1056900016E033FEAB07FAE4D007D006C3EF9BFF5A
:1056A000EE9AFEED9400FDEC9400FC900875127AE1
:1056B00066900879E0FCA3E0FDA3E0FEA3E0FFC054
:1056C00006C007900917E025E0FF900916E033FEB9
:1056D000AB07FAE4D007D006C3EF9BFFEE9AFEEDCE
:1056E0009400FDEC9400FC900879127A66E4FFFEC9
:1056F000FDFC900875E0F8A3E0F9A3E0FAA3E0FB55
:10570000C312799F500BE4FFFEFDFC900875127ADE
:1057100066E4FFFEFDFC900879127A660257C49099
:105720000A52E0FCA3E0FDEC1274FAE4FBFA7948BB
:1057300078BE1272D61275338F3E8E3D8D3C8C3BF7
:105740009008F7E0FEA3E0FFC3E49FFFE49EFE3372
:1057500095E0FDFC900A2DE0F8A3E0F9A3E0FAA3A0
:10576000E0FBC312799F5019900A53E09400900A0D
:1057700052E0648094804009E4F53EF53DF53CF547
:105780003B9008F7E0FEA3E0FFEE3395E0FDFC90D0
:105790000A2DE0F8A3E0F9A3E0FAA3E0FBD3127925
:1057A0009F4013900A52E0648094805009E4F53ED3
:1057B000F53DF53CF53BAF3EAE3DAD3CAC3B900816
:1057C00085127A66900835E0606AA3E0FCA3E0FDEC
:1057D000A3E0FEA3E0FF900875E0F8A3E0F9A3E0E2
:1057E000FAA3E0FBC312799F5014900836E0FCA3A3
:1057F000E0FDA3E0FEA3E0FF900875127A66900832
:105800003EE0FCA3E0FDA3E0FEA3E0FF900875E00E
:10581000F8A3E0F9A3E0FAA3E0FBD312799F4014C8
:1058200090083EE0FCA3E0FDA3E0FEA3E0FF9008AB
:1058300075127A66900819E07003025C29147003EF
:10584000025FED147003025DBC14600302605B90A4
:105850000A21E0F8A3E0F9A3E0FAA3E0FB900875C1
:10586000E0FCA3E0FDA3E0FEA3E0C39BF52AEE9AD3
:10587000F529ED99F528EC98F527900ADDE0FCA3D1
:10588000E0FDA3E0FEA3E0252AFFEE3529FEED357D
:1058900028FDEC3527FC900ADD127A667F807EF0C9
:1058A0007DFA7C02900ADDE0F8A3E0F9A3E0FAA318
:1058B000E0FBD312799F40107F807EF07DFA7C025E
:1058C000900ADD127A66802A7F807E0F7D057CFD3E
:1058D000900ADDE0F8A3E0F9A3E0FAA3E0FBC3122D
:1058E000799F500E7F807E0F7D057CFD900ADD1232
:1058F0007A66E4F532F531F530F52FFFFEFDFCABAD
:1059000062AA61A960A85FC312799F6026AF2AAE20
:1059100029AD28AC27A85F12786778101279D9E5ED
:10592000322FF532E5313EF531E5303DF530E52FEA
:105930003CF52FE4FFFEFDFCAB66AA65A964A863F5
:10594000C312799F6031900ADDE0FCA3E0FDA3E083
:10595000FEA3E0FF78061279D9A863127867780A67
:105960001279D9E5322FF532E5313EF531E5303D9A
:10597000F530E52F3CF52FE4FFFEFDFCAB6AAA698C
:10598000A968A867C312799F6043900AE5E0F8A36D
:10599000E0F9A3E0FAA3E0FBC3E52A9BFFE5299A1F
:1059A000FEE52899FDE52798FCAB6AAA69A968A8D5
:1059B0006712786778101279D9E5322FF532E53120
:1059C0003EF531E5303DF530E52F3CF52FAF2AAE01
:1059D00029AD28AC27900AE5127A66E4FFFEFDFCAB
:1059E000AB32AA31A930A82FC312799F4004D20E3E
:1059F0008002C20E90084EE0FEA3E0FFEE3395E079
:105A0000FDFCAB32AA31A930A82FD312799F4016E2
:105A100090084EE0FEA3E0FFEE3395E08F328E312A
:105A2000F530F52F803C90084EE0FEA3E0FFC3E484
:105A30009FFFE49EFE3395E0FDFCAB32AA31A93016
:105A4000A82FC312799F501A90084EE0FEA3E0FFE2
:105A5000C3E49FFFE49EFE3395E08F328E31F53034
:105A6000F52F900A2DE0F8A3E0F9A3E0FAA3E0FBFC
:105A7000C3E5329BF52EE5319AF52DE53099F52CED
:105A8000E52F98F52B900AE1E0FCA3E0FDA3E0FEF2
:105A9000A3E0252EFFEE352DFEED352CFDEC352B4C
:105AA000FC900AE1127A667FA07E867D017C0090E0
:105AB0000AE1E0F8A3E0F9A3E0FAA3E0FBD312794E
:105AC0009F40107FA07E867D017C00900AE1127AC3
:105AD00066802A7F607E797DFE7CFF900AE1E0F897
:105AE000A3E0F9A3E0FAA3E0FBC312799F500E7F75
:105AF000607E797DFE7CFF900AE1127A66E4F526ED
:105B0000F525F524F523FFFEFDFCAB6EAA6DA96C0F
:105B1000A86BC312799F6026AF2EAE2DAD2CAC2B97
:105B2000A86B12786778101279D9E5262FF526E54B
:105B3000253EF525E5243DF524E5233CF523E4FF4A
:105B4000FEFDFCAB72AA71A970A86FC312799F60A9
:105B500031900AE1E0FCA3E0FDA3E0FEA3E0FF78C2
:105B6000061279D9A86F127867780A1279D9E526D2
:105B70002FF526E5253EF525E5243DF524E5233CD6
:105B8000F523E4FFFEFDFCAB76AA75A974A873C3E8
:105B900012799F6043900AE9E0F8A3E0F9A3E0FAE4
:105BA000A3E0FBC3E52E9BFFE52D9AFEE52C99FDB6
:105BB000E52B98FCAB76AA75A974A8731278677860
:105BC000101279D9E5262FF526E5253EF525E524A1
:105BD0003DF524E5233CF52374FF7F9CFEFDFCABE3
:105BE00026AA25A924A823C312799F500D74FF75F6
:105BF000269CF525F524F523801EE47F64FEFDFC3C
:105C0000AB26AA25A924A823D312799F400AE475BC
:105C10002664F525F524F523AF2EAE2DAD2CAC2B47
:105C2000900AE9127A6602605B900A21E0F8A3E02C
:105C3000F9A3E0FAA3E0FB900875E0FCA3E0FDA364
:105C4000E0FEA3E0C39BF52AEE9AF529ED99F5282D
:105C5000EC98F527900ADDE0FCA3E0FDA3E0FEA3AD
:105C6000E0252AFFEE3529FEED3528FDEC3527FC31
:105C7000900ADD127A66E47FE87E03FDFC900ADD7F
:105C8000E0F8A3E0F9A3E0FAA3E0FBD312799F4088
:105C90000FE47FE87E03FDFC900ADD127A66802A1D
:105CA0007F187EFC7DFF7CFF900ADDE0F8A3E0F921
:105CB000A3E0FAA3E0FBC312799F500E7F187EFC8D
:105CC0007DFF7CFF900ADD127A66E4FFFEFDFCABEF
:105CD0004AAA49A948A847C312799F601AAF2AAEB9
:105CE00029AD28AC27A84712786778101279D98F88
:105CF000268E258D248C23E4FFFEFDFCAB4EAA4DA1
:105D0000A94CA84BC312799F6031900ADDE0FCA337
:105D1000E0FDA3E0FEA3E0FF78061279D9A84B12BC
:105D20007867780A1279D9E5262FF526E5253EF51C
:105D300025E5243DF524E5233CF523E4FFFEFDFCA9
:105D4000AB52AA51A950A84FC312799F6043900A41
:105D5000E5E0F8A3E0F9A3E0FAA3E0FBC3E52A9BA2
:105D6000FFE5299AFEE52899FDE52798FCAB52AAA4
:105D700051A950A84F12786778101279D9E5262FCB
:105D8000F526E5253EF525E5243DF524E5233CF5FE
:105D900023AF2AAE29AD28AC27900AE5127A66E433
:105DA000FFFEFDFCAB26AA25A924A823D312799FC8
:105DB0004005D20E02605BC20E02605B90088DE06F
:105DC000700302605B200D0302605B90087DE0FCC5
:105DD000A3E0FDA3E0FEA3E0F5328E318D308C2FE1
:105DE00090084EE0FEA3E0FFEE3395E0FDFCAB3201
:105DF000AA31A930A82FD312799F401690084EE0FF
:105E0000FEA3E0FFEE3395E08F328E31F530F52FB3
:105E1000803C90084EE0FEA3E0FFC3E49FFFE49EB9
:105E2000FE3395E0FDFCAB32AA31A930A82FC31296
:105E3000799F501A90084EE0FEA3E0FFC3E49FFF55
:105E4000E49EFE3395E08F328E31F530F52F900AC7
:105E50002DE0F8A3E0F9A3E0FAA3E0FBC3E5329B51
:105E6000F52EE5319AF52DE53099F52CE52F98F5CD
:105E70002B900AE1E0FCA3E0FDA3E0FEA3E0252EC9
:105E8000FFEE352DFEED352CFDEC352BFC900AE1B7
:105E9000127A667FA07E867D017C00900AE1E0F8A0
:105EA000A3E0F9A3E0FAA3E0FBD312799F40107FAF
:105EB000A07E867D017C00900AE1127A66802A7FAE
:105EC000607E797DFE7CFF900AE1E0F8A3E0F9A313
:105ED000E0FAA3E0FBC312799F500E7F607E797DCC
:105EE000FE7CFF900AE1127A66E4F526F525F5249A
:105EF000F523FFFEFDFCAB56AA55A954A853C312C7
:105F0000799F6026AF2EAE2DAD2CAC2BA853127806
:105F10006778101279D9E5262FF526E5253EF52577
:105F2000E5243DF524E5233CF523E4FFFEFDFCAB31
:105F30005AAA59A958A857C312799F6031900AE10B
:105F4000E0FCA3E0FDA3E0FEA3E0FF78061279D910
:105F5000A857127867780A1279D9E5262FF526E531
:105F6000253EF525E5243DF524E5233CF523E4FF16
:105F7000FEFDFCAB5EAA5DA95CA85BC312799F60C5
:105F800043900AE9E0F8A3E0F9A3E0FAA3E0FBC339
:105F9000E52E9BFFE52D9AFEE52C99FDE52B98FC5F
:105FA000AB5EAA5DA95CA85B12786778101279D9FC
:105FB000E5262FF526E5253EF525E5243DF524E5E6
:105FC000233CF523AF2EAE2DAD2CAC2B900AE9125D
:105FD0007A66E4FFFEFDFCAB26AA25A924A823C30C
:105FE00012799F4004D20E8072C20E806E90088596
:105FF000E0FCA3E0FDA3E0FEA3E0F5268E258D24C2
:106000008C23E4FFFEFDFCAB26AA25A924A823D3FC
:1060100012799F4004D20E8002C20E74FF7F9CFE54
:10602000FDFCAB26AA25A924A823C312799F500DF5
:1060300074FF75269CF525F524F523801EE47F6406
:10604000FEFDFCAB26AA25A924A823D312799F40E4
:106050000AE4752664F525F524F523E47F64FEFD46
:10606000FCAB26AA25A924A823D312799F400AE4D1
:10607000752664F525F524F52374FF7F9CFEFDFC51
:10608000AB26AA25A924A823C312799F500B74FF1D
:1060900075269CF525F524F523900819E064016028
:1060A00037AF26AE25AD24AC23780A1279EDE47B18
:1060B00064FAF9F812B1E7A804A905AA06AB07909B
:1060C0000A54E0FFE4FCFDFE127867780A1279D9E1
:1060D0008F268E258D248C23E4FFFEFDFCAB26AAA3
:1060E00025A924A823C312799F40047F0180027F41
:1060F000FF900A20EFF0300E077F0112BD8480056B
:10610000E4FF12BD84AE25AF2612BC6012BD722220
:10611000205945530000204E4F0000205573620067
:10612000002048616E646C650000204A6F797374CA
:1061300069636B000020506F736974696F6E0000B3
:106140002050574D00002043757272656E74000038
:1061500020506F736974696F6E20616E642043759F
:106160007272656E740000000D0A004669726D77E8
:106170006172652076657273696F6E3A20005348CC
:106180002D50524F2076362E312E30202D204A4F62
:1061900059535449434B002E0D0A0D0A00444556ED
:1061A00049434520494E464F0D0A0049443A2025AF
:1061B000640D0A0050574D2072657363616C696EFF
:1061C000672061637469766174696F6E3A20005963
:1061D00045530A004E4F0A0050574D204C696D69D7
:1061E000743A2025640D0A004D4F544F5220494EF9
:1061F000464F0D0A004D6F746F72207265666572AE
:10620000656E636500202D2043757272656E747330
:106210003A2000202D2050776D3A2000202D20506C
:106220006F736974696F6E3A2000256420004D6FAA
:10623000746F7220656E61626C65643A2000594526
:10624000530D0A004E4F0D0A000D0A4D454153559E
:1062500052454D454E545320494E464F0D0A00536A
:10626000656E736F722076616C75653A0D0A002554
:1062700064202D3E20256400566F6C746167652094
:10628000286D56293A20256C640043757272656E3C
:106290007420286D41293A20256C64004A6F797377
:1062A0007469636B206D6561737572656D656E747D
:1062B000733A202568642C20256864000D0A444543
:1062C0005649434520504152414D45544552530D86
:1062D0000A0050494420436F6E74726F6C6C657293
:1062E0003A0D0A0050202D3E20256620200049202E
:1062F0002D3E20256620200044202D3E2025660DC1
:106300000A0043757272656E742050494420436FD1
:106310006E74726F6C6C65723A0D0A005374617220
:106320007475702061637469766174696F6E3A2068
:106330005945530D0A00537461727475702061637E
:106340007469766174696F6E3A204E4F0D0A004988
:106350006E707574206D6F64653A205553420D0A56
:1063600000496E707574206D6F64653A2048616EE7
:10637000646C650D0A00496E707574206D6F6465FC
:106380003A204A6F79737469636B0D0A00436F6E2C
:1063900074726F6C206D6F64653A20506F7369740E
:1063A000696F6E0D0A00436F6E74726F6C206D6FB3
:1063B00064653A2050574D0D0A00436F6E74726F3A
:1063C0006C206D6F64653A2043757272656E740D52
:1063D0000A00436F6E74726F6C206D6F64653A20B3
:1063E000506F736974696F6E20616E6420437572BB
:1063F00072656E740D0A004162736F6C757465206E
:10640000656E636F64657220706F736974696F6E17
:106410003A205945530D0A004162736F6C757465DB
:1064200020656E636F64657220706F736974696F45
:106430006E3A204E4F0D0A004D6F746F722D4861F9
:106440006E646C6520526174696F3A2025640D0A90
:106450000053656E736F72207265736F6C7574692B
:106460006F6E3A0D0A004D6561737572656D656EEC
:1064700074204F66667365743A0D0A002564202DFA
:106480003E20256C64004D6561737572656D656EA7
:1064900074204D756C7469706C6965723A0D0A00F0
:1064A0002564202D3E2025660043757272656E744A
:1064B000206C6F6F6B7570207461626C653A0D0AA9
:1064C00000705B305D202D20705B325D3A202566C8
:1064D0002C2025662C2025660A00705B335D202D5C
:1064E00020705B355D3A2025662C2025662C202502
:1064F000660A00506F736974696F6E206C696D690C
:1065000074206163746976653A20256400506F7366
:106510006974696F6E206C696D6974206D6F746F3A
:10652000722025643A20696E66202D3E20256C6419
:10653000202000737570202D3E20256C640D0A000C
:106540004D6178207374657020706F7320616E6484
:10655000206E65673A2025642025640043757272B9
:10656000656E74206C696D69743A20256400436C13
:106570006F737572652073706565643A20256400D9
:106580004A6F79737469636B205468726573686FBE
:106590006C643A202564004A6F79737469636B20D8
:1065A0004761696E73202D20583A2568752020595F
:1065B0003A2568750064656275673A20256C640049
:1065C00000000000000000000000000000000000CB
:1065D00000000000000000000000000000000000BB
:1065E00000000000000000000000000000000000AB
:1065F000000000000000000000000000000000009B
:106F500000000031202D2044657669636520494496
:106F60003A0032202D20506F736974696F6E205083
:106F70004944205B502C20492C20445D3A003320AA
:106F80002D2043757272656E7420504944205B5009
:106F90002C20492C20445D3A0034202D205374616C
:106FA000727475702041637469766174696F6E3AAA
:106FB000000000000035202D20496E707574206D92
:106FC0006F64653A0000000000000000000000004F
:106FD0000000000000000036202D20436F6E747208
:106FE0006F6C206D6F64653A0000000000000000C7
:106FF000000000000000000000000000000037203A
:107000002D205265736F6C7574696F6E733A00381A
:10701000202D204D6561737572656D656E74204F0E
:107020006666736574733A0039202D204D756C7453
:1070300069706C696572733A003130202D20506F91
:10704000732E206C696D6974206163746976653A8A
:1070500000000000003131202D20506F732E206C75
:10706000696D697473205B696E662C207375705D41
:107070003A003132202D204D617820737465707391
:10708000205B6E65672C20706F735D3A0031332092
:107090002D2043757272656E74206C696D69743A47
:1070A000003134202D204162736F6C75746520654A
:1070B0006E636F64657220706F736974696F6E3A86
:1070C00000000000003135202D204D6F746F7220BC
:1070D00068616E646C6520726174696F3A00313664
:1070E000202D2050574D2072657363616C696E6767
:1070F0003A00000000003137202D20437572726580
:107100006E74206C6F6F6B75703A003138202D20D3
:10711000436C6F737572652073706565643A0031F6
:1071200039202D204A6F79737469636B20746872FB
:107130006573686F6C64733A003230202D204A6F9B
:1071400079737469636B206761696E733A003020EC
:107150002D3E205573620A31202D3E2048616E6419
:107160006C650A32202D3E204A6F79737469636B17
:107170000A0000000030202D3E20506F73697469B2
:107180006F6E0A31202D3E2050574D0A32202D3E81
:107190002043757272656E740A33202D3E20506F45
:1071A000736974696F6E20616E64204375727265D5
:1071B0006E740A0030202D3E204465616374697648
:1071C000617465205B4E4F5D0A31202D3E20416386
:1071D000746976617465205B5945535D0A000275D8
:1071E0009FE86480F8E933E83360110460F0ED3320
:1071F000EC337009E8FCE9FDEAFEEBFF220460DEF7
:10720000D3EB9FEA9EE99DE8C2E78CF0C2F795F0C8
:10721000400CE8CCF8E9CDF9EACEFAEBCFFB1275D9
:107220006A85D0F05804700320D5B3E80470075085
:1072300002B2D50275A992D5EC0460F7E4CCC0E0A7
:10724000C398F8603B94186008400DD0E0FB0275CD
:1072500081E4FBFAC9FC8028E830E406E4C9FBE4D9
:10726000CAFCE830E305E4C9CACBFCE85407601067
:10727000F8C3E913F9EA13FAEB13FBEC13FCD8F1AA
:1072800030F52FC3E49CFCEF9BFFEE9AFEED99FDD9
:10729000D0E0FBEF4E4D4C701222DB030275A6ECE2
:1072A0002CFCEF33FFEE33FEED33FDED30E7EB0268
:1072B0007581EF2BFFEE3AFEED39FDD0E0FB501368
:1072C0000BBB00030275A9ED13FDEE13FEEF13FFD8
:1072D000EC13FC027581EC4D6011E8497017ED3339
:1072E000EC3304600DE4FCFFFEFD22E933E83304D7
:1072F00070F802759F12756A58046009E4CC248105
:1073000050062850090275A92840030275A6C0E05E
:10731000EB4A7044B98006D0E0FB027595EF4E70E1
:107320001CBD8008EBFFEAFEE9FD80EBE98DF0A4CF
:10733000FEE5F00273BFE9CDF9EAFEEBFFEF89F05D
:10734000A4FCE5F0CE89F0A42EFFE435F0CD89F061
:10735000A42DFEE435F08067EF4E7005BD80D78028
:10736000C3EF8BF0A4ACF0EE8BF0A42CFCE435F072
:10737000F8EF8AF0A42CE5F038FCE433CB8DF0A4D0
:107380002CFCE5F03BF8EE8AF0A42CFCE5F038F894
:10739000E433CF89F0A42CFCE5F038CF3400CE895B
:1073A000F0A42FFFE5F03EFEE433C98DF0A42EFEDD
:1073B000E5F039CD8AF0A42FFFE5F03EFEE43DFD77
:1073C00033D0E0FB50070BBB000F0275A9EC2CFC7F
:1073D000EF33FFEE33FEED33FD0275810275A9EC4C
:1073E0005D046005E85904700302759F12756A58C0
:1073F0000460F6EC4860F2EC7004FDFEFF22C86009
:10740000DB2481C85009C398600250060275A69813
:1074100050CAF582E9294B4A7005AB820275957511
:10742000F0007C1A7880C3EF9BEE9AED99400DC373
:10743000EF9BFFEE9AFEED99FDE842F0DC23ACF005
:10744000D0E0FFD0E0FED0E0FDAB8220E7101BEBE8
:1074500060BAEC2CFCEF33FFEE33FEED33FD02752A
:1074600081E803F830E705C0F075F000EF2FFFEE7C
:1074700033FEED33FD40B830E7C280AA74F8CC6427
:1074800080CCC86480C8F58204604FC3EB9FF5F0E0
:10749000EA9E42F0E99D42F0E89C45F0603C501DB8
:1074A000E5825FFFE582D313CB5BCBF42B5582FBE8
:1074B00050280ABA002409B9002008801DE5825B23
:1074C000FBE582D313CF5FCFF4C3132F5582FF5058
:1074D000090EBE00050DBD00010CC3EB9FF5F0EADF
:1074E0009E42F0E99D42F0E89C45F06007CC4820C0
:1074F000E701B3EC2275F020800E75F01080057561
:10750000F0087D007E007F003392D530D5031279DC
:1075100091EC334010EF33FFEE33FEED33FDEC33EF
:10752000FCD5F0ED22E5F0247EA2D513CC92E7CD78
:10753000CEFF22EDD2E7CD33EC3392D52481400645
:10754000E4FFFEFDFC22FCE4CFCECDCC24E05011C4
:1075500074FF80EDC3CC13CCCD13CDCE13CECF139F
:10756000CF0470F030D5DE027991E9D2E7C933E873
:1075700033F892D5EDD2E7CD33EC33FC5002B2D5DF
:1075800022EC30E7100FBF000C0EBE00080DBD004E
:10759000040BEB6014A2D5EB13FCED92E7FD227413
:1075A000FFFCFDFEFF22E480F8A2D574FF13FC7DF2
:1075B00080E480EFED33EC33601004700FED547F06
:1075C0007005740292E0227404220422E422ED3356
:1075D000EC33600A047003BD8004ECB2E7FC22F9CE
:1075E00020E73624F950037907E4F42402FBE5820E
:1075F000158270021583DBF6E024FB501BE9601452
:10760000E4F0E582158270021583E004F0B40A0804
:10761000E4F0D9EE7401F00A22C2D522ED33EC3346
:1076200092D5FA602AB4FF33EDC2E77BFF60067A99
:10763000767941E4227A76794A20D5047A767945BA
:10764000224E614E002B494E46002D494E4600E425
:107650007A08F0A3DAFC7B00740722C083C082ECB6
:10766000C0E0EDC0E0EEC0E0EFC0E0EA75F010A4CD
:10767000CAABF075F04DA42BFBE435F0FCEA241006
:10768000FAEB34C5FBEC34D9FCEDC2E7FF75F056DC
:10769000A4F42411C5F0F434C58FF0A42AE5F03B1E
:1076A000E43CF020E714127751D0E0FFD0E0FED0A8
:1076B000E0FDD0E0FC1273DF8014F404127751D0A7
:1076C000E0FFD0E0FED0E0FDD0E0FC1272D6D08228
:1076D000D083E0FAEDD2E7CD33EC332482FBE4C370
:1076E000CF33CFCE33CECD33CD33DBF37B0775F045
:1076F0000A846004F0A31B0AE5F0F0A38FF0740A7B
:10770000A4FFACF08EF0740AA42CFEACF050010C77
:107710008DF0740AA42CFDE435F0F0A3DBDE7407D1
:10772000223F8000004120000042C80000447A004F
:1077300000461C400047C35000497424004B189673
:10774000804CBEBC205A0E1BCA6753C21C749DC518
:10775000AEFB60065407601C232312777FEB54387E
:10776000600912776B12777A1272D6ECF8EDF9EEA7
:10777000FAEFCB22EB12777A80F1543803241C9075
:107780007721FE93FC0EEE93FD0EEE930ECE93FF4B
:1077900022C0E0EFFBEEFAEDF9ECF81272D6D0E081
:1077A000F5F0EFFBEEFAEDF9ECF8127A3AA3A3A3A9
:1077B000A3E8C0E0E9C0E0EAC0E0EBC0E0C0F0123E
:1077C00072D6127A56A3A3A3A31271E5D0F0D0E02B
:1077D000FBD0E0FAD0E0F9D0E0F8D5F0D422BB013C
:1077E0000689828A83E0225002E722BBFE02E3225E
:1077F00089828A83E49322BB010CE58229F582E524
:10780000833AF583E0225006E92582F8E622BBFEA2
:1078100006E92582F8E222E58229F582E5833AF538
:1078200083E49322BB010689828A83F0225002F707
:1078300022BBFE01F322EF8DF0A4A8F0CF8CF0A4C0
:1078400028CE8DF0A42EFE22BB010A89828A83F005
:10785000E5F0A3F0225006F709A7F01922BBFE06B7
:10786000F3E5F009F31922E88FF0A4CC8BF0A42CF7
:10787000FCE98EF0A42CFC8AF0EDA42CFCEA8EF03E
:10788000A4CDA8F08BF0A42DCC3825F0FDE98FF025
:10789000A42CCD35F0FCEB8EF0A4FEA9F0EB8FF01C
:1078A000A4CFC5F02ECD39FEE43CFCEAA42DCE35A4
:1078B000F0FDE43CFC2275F008758200EF2FFFEE2E
:1078C00033FECD33CDCC33CCC58233C5829BED9A0C
:1078D000EC99E58298400CF582EE9BFEED9AFDEC6A
:1078E00099FC0FD5F0D6E4CEFBE4CDFAE4CCF9A8B0
:1078F0008222B800C1B90059BA002DEC8BF084CFB8
:10790000CECDFCE5F0CBF97818EF2FFFEE33FEED8E
:1079100033FDEC33FCEB33FB10D703994004EB99B8
:10792000FB0FD8E5E4F9FA227818EF2FFFEE33FECB
:10793000ED33FDEC33FCC933C910D7059BE99A4000
:1079400007EC9BFCE99AF90FD8E0E4C9FAE4CCFB18
:107950002275F010EF2FFFEE33FEED33FDCC33CC6C
:10796000C833C810D7079BEC9AE899400AED9BFDF5
:10797000EC9AFCE899F80FD5F0DAE4CDFBE4CCFA08
:10798000E4C8F922CFF4CFCEF4CECDF4CDCCF4CCF4
:1079900022C3E49FFFE49EFEE49DFDE49CFC22EBF9
:1079A0009FF5F0EA9E42F0E99D42F0EC6480C864E5
:1079B000809845F022EB9FF5F0EA9E42F0E99D4267
:1079C000F0E89C45F022E8600FECC313FCED13FDDA
:1079D000EE13FEEF13FFD8F122E86010ECA2E713DC
:1079E000FCED13FDEE13FEEF13FFD8F022E8600F5D
:1079F000EFC333FFEE33FEED33FDEC33FCD8F12261
:107A0000BB010789828A83027D295005E9F8027D3E
:107A10001DBBFE05E9F8027D3589828A83027A3A28
:107A2000BB010789828A83027A665005E9F8027DE4
:107A300041BBFE05E9F8027D4D22E493FC740193FD
:107A4000FD740293FE740393FF22E0F8A3E0F9A310
:107A5000E0FAA3E0FB22E493F8740193F974029333
:107A6000FA740393FB22ECF0A3EDF0A3EEF0A3EF86
:107A7000F022A8828583F0D083D082127A89127A8C
:107A800089127A89127A89E473E493A3C583C5F0D5
:107A9000C583C8C582C8F0A3C583C5F0C583C8C562
:107AA00082C822F8E0FBA3A3E0F925F0F0E58215F7
:107AB0008270021583E0FA38F022EBF0A3EAF0A31B
:107AC000E9F022D083D082F8E493701274019370AD
:107AD0000DA3A393F8740193F5828883E473740271
:107AE000936860EFA3A3A380DFE5112582F582E50B
:107AF000103583F583B510048582112210AF0685F9
:107B00008211F51022858211F510D2AF22EC8EF091
:107B1000A4CCC5F0CCCDF8EFA4CEC5F02DFDE43C4F
:107B2000FCE8A42EC8C5F03DFDE43CFCEFA4FFE555
:107B3000F028FEE43DFDE43CFC22E709F608DFFA0C
:107B40008046E709F208DFFA803E88828C83E709E5
:107B5000F0A3DFFA8032E309F608DFFA806EE3096A
:107B6000F208DFFA806688828C83E309F0A3DFFAEB
:107B7000805A89828A83E0A3F608DFFA804E8982E0
:107B80008A83E0A3F208DFFA804280D280FA80C6BE
:107B900080D4805580F28029801080A680EA809A67
:107BA00080A880DA80E280CA802988848C858982D6
:107BB0008A83E493A30586F0A30586DFF5DEF380D0
:107BC0000B89828A83E493A3F608DFF9ECFAA9F023
:107BD000EDFB2288848C8589828A83E0A30586F068
:107BE000A30586DFF6DEF480E389828A83E493A32B
:107BF000F208DFF980D688F0EF60010E4E60CD8884
:107C0000F0ED2402B4040050C3F582EB2402B40466
:107C10000050B92323458223907B8A73E709F60835
:107C200070FA8046E709F20870FA803E88828C83F9
:107C3000E709F0A370FA8074E309F60870FA806C23
:107C4000E309F20870FA806488828C83E309F0A368
:107C500070FA805889828A83E0A3F60870FA804C13
:107C600089828A83E0A3F20870FA804080D280FA89
:107C700080C680D4805180F28027801080A680EA60
:107C8000809A80A880DA80E280CA802788848C85E8
:107C900089828A83E493A30586F0A3058670F58024
:107CA0000B89828A83E493A3F60870F9ECFAA9F0B1
:107CB000EDFB2288848C8589828A83E0A30586F087
:107CC000A3058670F680E589828A83E493A3F2088F
:107CD00070F980D888F0ED2402B4040050CEF5820B
:107CE000EB2402B4040050C42323458223907C6C0F
:107CF00073C5F0F8A3E028F0C5F0F8E582158270AE
:107D0000021583E038F022A3F8E0C5F025F0F0E595
:107D100082158270021583E0C838F0E822E6FC087C
:107D2000E6FD08E6FE08E6FF22E0FCA3E0FDA3E096
:107D3000FEA3E0FF22E2FC08E2FD08E2FE08E2FF0B
:107D400022ECF608EDF608EEF608EFF622ECF20863
:107D5000EDF208EEF208EFF222E52824BCF582E409
:107D60003404F583E00528229004B9300803900418
:107D7000BCE475F001127AA30277DE2001E97F2EC0
:107D8000D2018018EF540F2490D43440D4FF300532
:107D90000BEF24BFB41A0050032461FFE5296002F1
:107DA0001529052CE52C7002052B30080E9004B91E
:107DB000E475F001127AA3EF02782402B77C740311
:107DC000D2088003E4C208F5289004B9127ABAE414
:107DD000F529F52BF52CE52960077F20127D9C8085
:107DE000F5752AFFC202C201C203C204C206C2075D
:107DF000C209127D68FF700D3008057F00127DAD4D
:107E0000AF2CAE2B22B4255FC2D5C205127D68FF10
:107E100024D0B40A00501A75F00A782930D5050824
:107E2000B6FF0106C6A426F620D5047002D204804F
:107E3000D924CFB41A00EF5004C2E5D20502809FC6
:107E4000D20280C6D20180C0D20380BCD2D580BA13
:107E5000D20680B47F20127D9C2003077401B529CF
:107E60000040F1127D59FF127D9C027DD6D209D2CD
:107E7000078095127D59FB127D59FA127D59F94AF6
:107E80004B7006799D7A817BFF20032EE529602ABD
:107E90007E008E827583001277F760060EEE652AEB
:107EA00070F0C2D5EBC0E0EAC0E0E9C0E0EE1281BC
:107EB00000D0E0F9D0E0FAD0E0FB1277DEFF60AA54
:107EC000EBC0E0EAC0E0E9C0E0127D9CD0E0240114
:107ED000F9D0E03400FAD0E0FBE52A0460DCD52AD2
:107EE000D98087D20380A21280E260F7E52A700170
:107EF000041275DFA92A600DE52A600914F52A121B
:107F0000818AEF60F3EA30E702F404C3995079EA1A
:107F1000F4252A0430E701E404F52A800D1280E2FA
:107F200060C1EA052A252A1275DFEA9004E8F030DC
:107F3000E701E4252A04D52A042006011412810051
:107F4000E4C0E012818A9004E8E0601320E707149F
:107F5000F0127D84802204F0D0E014C0E07F001293
:107F60007D84E52A6007127D7B152A800B3006038D
:107F7000127D7BD0E0027DD6D0E00480C41280E286
:107F8000609EE52A041275DF9004E8EAF0E52A20F5
:107F90000602600104240412810074FF04C0E01290
:107FA000818A127D84E52A2006026003127D7BD03F
:107FB000E0B52AE87F45127D8E9004E8E07F2B3003
:107FC000E7047F2DF404C0E0127D9CD0E075F00A38
:107FD00084C0F0127D85D0E0127D85027DD67910B7
:107FE00080027908C207C2098008D2D5790A8004C4
:107FF000790AC2D5E52A047002F52AE4FAFDFEFFEB
:10800000127D59FC7B08200213127D59FD7B103034
:10801000010A127D59FE127D59FF7B20EC3382D577
:1080200092D55013C3E43001069FFFE49EFEE42086
:1080300002039DFDE49CFCE4CBF8C202EC700CCF83
:10804000CECDCCE824F8F870F38017C3EF33FFEE01
:1080500033FEED33FDEC33FCEB33FB994002FB0FB9
:10806000D8E9EB300205F8D0E0C448B202C0E00A1B
:10807000EC4D4E4F78207B0070C2EAB52A0040BC20
:10808000C0E0128102D0F0D0E0200204C4C0E0C4FD
:10809000B202C0F0127D85D0F0D5F0EB027DD61291
:1080A0007AC37E73537FDE587E444C7E40427FE22B
:1080B0004F7FEA447FEA497E59437FF0557F1D4652
:1080C0007F7D457EE74781BD507E482D7E4C2E7ECC
:1080D0006F2B7E50237E6D2081A62A7E08480000EB
:1080E0007E67E52AB4FF03752A06127D59FC127DCE
:1080F00059FD127D59FE127D59FF9004E102761C54
:10810000790AA2D5200414300609B910020404B972
:10811000080104A2D520070250010420036892033D
:10812000B529005034C0E07F203004197F30A2030D
:1081300072077206500F128159C203C207C206C2EB
:10814000097F30800F300603E9C0E0127D9C3006C5
:1081500003D0E0F9D0E0B529CC3006177F30B91054
:108160000C127D9C7F583005077F788003B9080387
:10817000127D9C3003057F2D027D9C7F202009F815
:108180007F2B2007F322920380CF7F00B40700509B
:108190000B24E1F582E43404F583E0FF22286E75B8
:1081A0006C6C2900D202127D593002F8C202782983
:1081B00030D50108F6027E082D50434958127D59EA
:1081C0002403B405004001E49081B893127D8D74BE
:1081D0003A127D8DD204752904027FDE12BDCCEFE8
:1081E000700A300CF7C20C129B0A80F0900A19E05A
:1081F000249AFF900A18E034F9FE3395E0FDFCE480
:108200007BA07A07F9F812786778071279D9900974
:1082100055127A66300C05C20C129B0AE4FFFEFD73
:10822000FC900955E0F8A3E0F9A3E0FAA3E0FBD342
:1082300012799F50030285EED20D9008FBE0600397
:1082400012AAA8900A1BE0249AFF900A1AE034F9B7
:10825000FE3395E0FDFCE47BAB7A64F9F8127867B5
:10826000780D1279D9900A20E0FD3395E0FC127860
:1082700036EE3395E0FDFC12AB1E900A2D127A66A5
:10828000300C05C20C129B0AE50E14700302836FBA
:108290001470030283861470030283B71470030200
:1082A00084372404600302843A900A1CE0F523A377
:1082B000E0F524AE23EE3395E0FDFC900B01E0F8F1
:1082C000A3E0F9A3E0FAA3E0FBC3E5249BFFEE9A49
:1082D000FEED99FDEC98FC1274F5C004C005C006D3
:1082E000C007900B01E0FCA3E0FDA3E0FEA3E0FFCC
:1082F000EC1274F5A804A905AA06AB07D007D006AE
:10830000D005D0041273DFC004C005C006C00790BA
:10831000091CE0FCA3E0FDE41274FAD003D002D003
:1083200001D0001272D61275338E238F24300C05C3
:10833000C20C129B0AC3E5236480947C500675230B
:10834000FC752400D3E5249400E5236480948440E4
:1083500006752304752400900A52E523F0A3E52452
:10836000F0200C0302843AC20C129B0A02843AE405
:10837000900AFDF0A3F0FFFEFDFC900B01127A665F
:10838000750E0402843A900AFEE004F07006900A2A
:10839000FDE004F0900AFDE07004A3E06464600373
:1083A00002843A900AFDF0A3F0300C05C20C129B37
:1083B0000A750E0302843A900AFEE004F0700690FB
:1083C0000AFDE004F0900B01E0F8A3E0F9A3E0FA65
:1083D000A3E0FB900A1CE0FEA3E0FFEE3395E0FD76
:1083E000FCEB2FFFEA3EFEE93DFDE83CFC900B0173
:1083F000127A66300C05C20C129B0A900AFDE070DE
:1084000004A3E064C87033900B01E0FCA3E0FDA37B
:10841000E0FEA3E0FFE47BC8FAF9F812B1E7900BA5
:1084200001127A66300C05C20C129B0AE4900AFD18
:10843000F0A3F0F50E8003750E02E50F1470030231
:10844000851E14700302853514700302856514704F
:10845000030285DD240460030285E4900A1EE0F532
:1084600023A3E0F524AE23EE3395E0FDFC900B054D
:10847000E0F8A3E0F9A3E0FAA3E0FBC3E5249BFF47
:10848000EE9AFEED99FDEC98FC1274F5C004C0055F
:10849000C006C007900B05E0FCA3E0FDA3E0FEA32F
:1084A000E0FFEC1274F5A804A905AA06AB07D007F3
:1084B000D006D005D0041273DFC004C005C006C0CA
:1084C0000790091AE0FCA3E0FDE41274FAD003D08F
:1084D00002D001D0001272D61275338E238F243051
:1084E0000C05C20C129B0AC3E5236480947C5006E1
:1084F0007523FC752400D3E5249400E5236480945F
:10850000844006752304752400300C05C20C129BB0
:108510000A900A50E523F0A3E524F00285E4E490F4
:108520000AFFF0A3F0FFFEFDFC900B05127A6675C2
:108530000F040285E4900B00E004F07006900AFF3F
:10854000E004F0900AFFE07004A3E06464600302BA
:1085500085E4900AFFF0A3F0300C05C20C129B0AD0
:10856000750F03807F900B00E004F07006900AFF07
:10857000E004F0900B05E0F8A3E0F9A3E0FAA3E033
:10858000FB900A1EE0FEA3E0FFEE3395E0FDFCEB5E
:108590002FFFEA3EFEE93DFDE83CFC900B05127A18
:1085A00066900AFFE07004A3E064C87037900B0582
:1085B000E0FCA3E0FDA3E0FEA3E0FFE47BC8FAF942
:1085C000F812B1E7900B05127A66300C05C20C1256
:1085D0009B0AE4900AFFF0A3F0F50F8007E50E7008
:1085E00003750F02300C2DC20C129B0A8026750EEB
:1085F00001750F01C20D300C05C20C129B0AE4FF7D
:10860000FEFDFC900A2D127A66E4900A50F0A3F069
:10861000A3F0A3F0300C05C20C129B0A228F23E5B5
:1086200023C394034003028972300A227B03AF0301
:108630001BEF6018E4FFFEFDFCEB25E025E024EDD8
:10864000F582E4340AF583127A6680E2C20AE523F1
:10865000701812BCDD78011279C6EFEEED5403FDFF
:10866000E4FC900002127A668033E523B40118120C
:10867000BCAB78011279C6EFEEED5403FDE4FC903B
:108680000002127A66801612BCA178011279C6EF38
:10869000EEED5403FDE4FC900002127A667B017A51
:1086A00000790212ACE640030288DD900002E0FC93
:1086B000A3E0FDA3E0FEA3E054C0FFEEED5403FDF4
:1086C000E42FFFE43EFEED34FEFDE434FFFC7802CF
:1086D0001279C6EE3395E0FDFCE52325E025E02484
:1086E000C6F582E43408F583E0F8A3E0F9A3E0FAE4
:1086F000A3E02FFFEA3EFEE93DFDE83CFC900006CA
:10870000127A66300F27900006E0FCA3E0FDA3E09C
:10871000FEA3E0FFE52325E025E024EDF582E43427
:108720000AF583127A66E523B40202C20FE5232517
:10873000E025E024EDF582E4340AF583E0F8A3E0D7
:10874000F9A3E0FAA3E0FB900006E0FCA3E0FDA3A0
:10875000E0FEA3E0C39BFFEE9AFEED99FDEC98FCD2
:10876000A3127A66E4FF7EC0FDFC90000AE0F8A345
:10877000E0F9A3E0FAA3E0FBD312799F401074352F
:108780002523F582E4340AF583E014F080687F0045
:108790007E407DFF7CFF90000AE0F8A3E0F9A3E0B3
:1087A000FAA3E0FBC312799F501074352523F5829C
:1087B000E4340AF583E004F0803C90000AE0A3E092
:1087C000A3E0FEA3E0FF12BC60D3EF9400EE648050
:1087D00094C0402274F92523F582E4340AF583E03D
:1087E00004F074F92523F582E4340AF583E0C39498
:1087F0000A500302897274F92523F582E4340AF5DC
:1088000083E4F0900006E0FCA3E0FDA3E0FEA3E01B
:10881000FFE52325E025E024EDF582E4340AF58325
:10882000127A66900006E0F8A3E0F9A3E0FAA3E06C
:10883000FBC00074352523F582E4340AF583E0FF9C
:108840003395E0FEFDFC78101279EDD000EB2FFFA0
:10885000EA3EFEE93DFDE83CFC900006127A66E542
:108860002325E025E02429F582E43408F583E0FCA3
:10887000A3E0FDA3E0FEA3E0FFE4FBFA7980783FEC
:1088800012747C6038900006E0FCA3E0FDA3E0FEDB
:10889000A3E0FFEC1274F5E52325E025E02429F59B
:1088A00082E43408F583E0F8A3E0F9A3E0FAA3E05A
:1088B000FB1272D6127533900006127A669000068B
:1088C000E0FCA3E0FDA3E0FEA3E0FFE52325E02517
:1088D000E02421F582E4340AF583127A663010032D
:1088E000028972900AFCE0C394225004E004F02252
:1088F000900850E0602A900A25E0FCA3E0FDA3E088
:10890000FEA3E0FF900012127A66900A21E0FCA319
:10891000E0FDA3E0FEA3E0FF12A119900A35EFF0FD
:10892000900A21E0F8A3E0F9A3E0FAA3E0FBC0007D
:10893000900A35E0FF3395E0FEFDFC78101279EDEA
:10894000D000EB2FFFEA3EFEE93DFDE83CFC900A3B
:1089500021127A66900A21E0FCA3E0FDA3E0FEA3C9
:10896000E0FF9009F7127A6690088DE0FF12BD9C37
:10897000D21022752802900818E06003028C1A9029
:10898000081DE0FCA3E0FDA3E0FEA3E0FF900002D1
:10899000127A66900821E0FCA3E0FDA3E0FEA3E0CC
:1089A000FF900006127A66900829E0FCA3E0FDA380
:1089B000E0FEA3E0FF90000A127A6690082DE0FC2A
:1089C000A3E0FDA3E0FEA3E0FF90000E127A669004
:1089D00009F7E0FCA3E0FDA3E0FEA3E0FFEC1274C6
:1089E000F590000AE0F8A3E0F9A3E0FAA3E0FB1297
:1089F00073DF1275339009F7127A669009FBE0FC79
:108A0000A3E0FDA3E0FEA3E0FFEC1274F590000EDE
:108A1000E0F8A3E0F9A3E0FAA3E0FB1273DF12751C
:108A2000339009FB127A669009F7E0FCA3E0FDA3FE
