:40000000021415008F828E83E0540100000070F82278FFE4F6D8FD02147A900000EFF0E4F53FF540F541F54275430AC200121F87EF60057F00121FB7122067D2AF9044F4FC
:4000400074FDF0E4F53B754900754A00754B37900000E0FF70067EFF7FFF80008F4C7B017A0079017D2C7C011212FA8F3E900000E060021543E5436004E53E70C9E53E6046
:400080000302059FC3E5389407E53794004008900001E064016005753B04807E900004E0FE900003E0FDEEF53FEDF54074062540F5827400353FF583E0FE74052540F58228
:4000C0007400353FF583E0FDEEF53CEDF53DE5402407FFE4353FFED3EF9538EE95374005753B03803574072540F5827400353FF583E064176005753B04801F7B017A0079B1
:4001000001E5402404FDE4353FFC121C66EF653D7003EE653C6003753B08E4F539F53AE53B600302058E900005E0F536753B04900002E012088801553101823202083403A0
:400140007A3503883703D438020839040F3A05783B0000058B20000302058EE540453F600302058EFF120D84EF70047F0180027F00900005EFF0753900753A01E4F53B0260
:40018000058E20000302058EE5406401453F600302058EE536C39401400302058E900357E0FEA3E0F5828E83120842E4FBFA7901F81207188F24E536B5241E900357E0FE6B
:4001C000A3E0F5828E83120842E4FB7A01F9F81207187522008F238014E536D395244007E4F522F5238006752201752300E523900005F0E522A3F0A374FFF0E4A3F0F539B6
:40020000753A04F53B02058E900002E06434703C20000302058EE5406403453F600302058EE536C39440400FE536D3947F50087541007542108006754101754220AE41AF47
:40024000427D007B017A01792D1208FF20000302058EC3E5409403E53F9400500302058EE54024FDFFE53F34FFFE742D2542F974013541A801FC7D017B017A0079081209F7
:40028000E7E54024FDFFE53F34FFFEEF2542F542EE3541F541E536C394404012E536D3947F500B121DA8753F007540108006753F01754020E54265407004E541653F600369
:4002C00002036F900007E0FE900006E0FDEEF541EDF542E536D3943F506FE5367F00FEEF2542FFE5413E900259F0A3EFF0900357E0FEA3E0F5828E83120842E4FB7A01F9AA
:40030000F812071890025BEEF0A3EFF0900357E0FEA3E0F5828E83120842EFE4EF600A90025BE475F0011205DA90025BE0FEA3E0FFC390025AE09F900259E09E500B753BD5
:400340000AE4F541F54202058E7B017A01792D900263E53FF0A3E540F0AD42AC41AF36120F0BEF60047F0A80027F008F3B8003753B03E4F541F54202058E20000302058EC7
:40038000E4F541F54202059F20000302058EE5422540FFE541353FFED3EF942CEE9401502DE4F53BAE3FAF40742D2542F974013541A801FC7D017B017A0079051209E7E58F
:4003C000402542F542E53F3541F54102058E753B0302058EE540453F600302058E78257C00FD7BFF7A25791FFE7F081209E7D200753900753A08AE39AF3A78057C007D0105
:400400007B007A0079251209E7E4F53B02058E20000302058EE5406403453F600302058E900007E0FE900006E0FDEEF52FEDF530E536C394404038E536D3947F5031AE2F29
:40044000AF307C007D101208D28F348E338D328C318F4B8E4A8D498C48E4754F10F54EF54DF54CFF7E80FDFC12192C8F358050AE2FAF307C017D001208D2C004C005C006FC
:40048000C007AF36E4FCFDFEFBFA7901F812068DD003D002D001D0001206728F348E338D328C318F4B8E4A8D498C48E4F54F754E01F54DF54CFFFE7D10FC12192C8F35E588
:4004C00036D3943F5072AF367E007C207D001208D2E42FFFE43EFEED3408FDE43CFCC004A905AA06AB07AE2FAF307C007D201208D2D0001206728F348E338D328C31E4F5BA
:400500002DF52EC3E52E9420E52D9400502AE4E52E2534FFE52D3533FEE43532FDE43531A907AA06AB05121CF3EF2535F535052EE52E7002052D80CBE536702AAE2FAF301E
:40054000FCFD7BFFFAF9F8C31207C57019FD7F05120A3DC3E5359FF535E4FD7F06120A3DC3E5359FF535E535F404900005F0E4F53BF539753A018016E4FF120D84EF700604
:400580009046FA7480F01220718003753B057B017A007901853948853A49AF3B1215ED900000E0700302004330000302004322BB010689828A83E0225002E722BBFE02E399
:4005C0002289828A83E49322BB010689828A83F0225002F722BBFE01F322C5F0F8A3E028F0C5F0F8E582158270021583E038F022BB010A89828A83E0F5F0A3E022500687B6
:40060000F009E71922BBFE07E3F5F009E3192289828A83E493F5F074019322BB010789828A830205DA500B09C5F027F7C5F01937F722BBFE0D09F8E325F0F3C5F019E338A6
:40064000F322F889828A8374019325F0C5F0F8E4933822BB010A89828A83F0E5F0A3F0225006F709A7F01922BBFE06F3E5F009F31922EF2BFFEE3AFEED39FDEC38FC22C315
:40068000EF9BFFEE9AFEED99FDEC98FC22E88FF0A4CC8BF0A42CFCE98EF0A42CFC8AF0EDA42CFCEA8EF0A4CDA8F08BF0A42DCC3825F0FDE98FF0A42CCD35F0FCEB8EF0A47C
:4006C000FEA9F0EB8FF0A4CFC5F02ECD39FEE43CFCEAA42DCE35F0FDE43CFC2275F008758200EF2FFFEE33FECD33CDCC33CCC58233C5829BED9AEC99E58298400CF582EE4A
:400700009BFEED9AFDEC99FC0FD5F0D6E4CEFBE4CDFAE4CCF9A88222B800C1B90059BA002DEC8BF084CFCECDFCE5F0CBF97818EF2FFFEE33FEED33FDEC33FCEB33FB10D7C4
:4007400003994004EB99FB0FD8E5E4F9FA227818EF2FFFEE33FEED33FDEC33FCC933C910D7059BE99A4007EC9BFCE99AF90FD8E0E4C9FAE4CCFB2275F010EF2FFFEE33FE50
:40078000ED33FDCC33CCC833C810D7079BEC9AE899400AED9BFDEC9AFCE899F80FD5F0DAE4CDFBE4CCFAE4C8F922EF4BFFEE4AFEED49FDEC48FC22C3E49FFFE49EFEE49D2F
:4007C000FDE49CFC22EB9FF5F0EA9E42F0E99D42F0E89C45F022E8600FECC313FCED13FDEE13FEEF13FFD8F122E8600FEFC333FFEE33FEED33FDEC33FCD8F122BB010789DC
:40080000828A830208365005E9F8020A0DBBFE05E9F8020A1989828A83020842BB010789828A8302085E5005E9F8020A25BBFE05E9F8020A3122E0FCA3E0FDA3E0FEA3E06A
:40084000FF22E493FC740193FD740293FE740393FF22E0F8A3E0F9A3E0FAA3E0FB22ECF0A3EDF0A3EEF0A3EFF022E0FBA3E0FAA3E0F922EBF0A3EAF0A3E9F022E493FB74E9
:400880000193FA740293F922D083D082F8E4937012740193700DA3A393F8740193F5828883E4737402936860EFA3A3A380DFE5092582F582E5083583F583B50804858209B7
:4008C0002210AF06858209F50822858209F508D2AF22EC8EF0A4CCC5F0CCCDF8EFA4CEC5F02DFDE43CFCE8A42EC8C5F03DFDE43CFCEFA4FFE5F028FEE43DFDE43CFC22EF51
:400900004E6012EF60010EEDBB010B89828A83F0A3DFFCDEFA2289F05007F709DFFCA9F022BBFEFCF309DFFCA9F022E709F608DFFA8046E709F208DFFA803E88828C83E7AA
:4009400009F0A3DFFA8032E309F608DFFA806EE309F208DFFA806688828C83E309F0A3DFFA805A89828A83E0A3F608DFFA804E89828A83E0A3F208DFFA804280D280FA80F3
:40098000C680D4805580F28029801080A680EA809A80A880DA80E280CA802988848C8589828A83E493A30586F0A30586DFF5DEF3800B89828A83E493A3F608DFF9ECFAA95D
:4009C000F0EDFB2288848C8589828A83E0A30586F0A30586DFF6DEF480E389828A83E493A3F208DFF980D688F0EF60010E4E60CD88F0ED2402B4040050C3F582EB2402B455
:400A0000040050B9232345822390097B73E6FC08E6FD08E6FE08E6FF22E2FC08E2FD08E2FE08E2FF22ECF608EDF608EEF608EFF622ECF208EDF208EEF208EFF22290025D03
:400A4000EDF0AB079002627402F0E4FFFEFDFCA312085EEB1208880A79010AA6020ACB030AF0040B15050B40060B8F070B6B080BB3090BD70A00000C0190025DE0FF7E005E
:400A80007C017D001208D21207B7EF24C0FFEE34FFFEED3410FDE43CFCA312085E9002627401F0020C0C90025DE0FF7E007C017D001208D2C374C39FFF74FF9EFE74109DBD
:400AC000FDE49CFCA312085E020C0C90025DE0FF7E007C017D001208D2C374C79FFF74FF9EFE74109DFDE49CFCA312085E020C0C90025DE0FF7E007C017D001208D2C37433
:400B0000CB9FFF74FF9EFE74109DFDE49CFCA312085E020C0C90025DE0FF7E007C017D001208D2C374D09FFF74FF9EFE74109DFDE49CFCA312085E9002627401F0020C0C60
:400B400090025DE0FF7E007C017D001208D2C374D19FFF74FF9EFE74109DFDE49CFCA312085E9002627401F0020C0C90025DE0FF7E007C017D001208D2C374D69FFF74FF16
:400B80009EFE74109DFDE49CFCA312085E807D90025DE0FF7E007C017D001208D2C374D29FFF74FF9EFE74109DFDE49CFCA312085E805990025DE0FF7E007C017D00120811
:400BC000D2C374D49FFF74FF9EFE74109DFDE49CFCA312085E803590025DE0FF7E007C017D001208D2C374D89FFF74FF9EFE74109DFDE49CFCA312085E9002627404F08082
:400C00000BE4FFFEFDFC90025E12085E900262E0B4011990025E120836A907AA06AB05121CF3E4FCFDFE90026312085E900262E06402705C90025E120836EF2401FFE43E91
:400C4000FEE43DFDE43CA907AA06AB05121CF3E4FCFDFE90026312085E900263120852C000C001C002C00390025E120836A907AA06AB05121CF3E4FCFDFE78081207E9D0BA
:400C800003D002D001D0001207AA90026312085E900262E064046003020D7D90025E120836EF2403FFE43EFEE43DFDE43CA907AA06AB05121CF3E4FCFDFE90026312085E37
:400CC000900263120852C000C001C002C00390025E120836EF2402FFE43EFEE43DFDE43CA907AA06AB05121CF3E4FCFDFE78081207E9D003D002D001D0001207AA9002634F
:400D000012085E900263120852C000C001C002C00390025E120836EF2401FFE43EFEE43DFDE43CA907AA06AB05121CF3E4FCFDFE78101207E9D003D002D001D0001207AA84
:400D400090026312085E900263120852C000C001C002C00390025E120836A907AA06AB05121CF3E4FCFDFE78181207E9D003D002D001D0001207AA90026312085E90026356
:400D8000120836228F44AD447F03120A3DEF2401FFE43EFEE43DFDE43CFCE4FB7A01F9F812068DC004C005C006C007AD447F04120A3DD003D002D001D0001206728F4C8EA9
:400DC0004B8D4A8C49C201E4F54DAD447F03120A3DEF2401FFE43EFEE43DFDE43CFCE4FB7A01F9F812068D8F488E478D468C45AF4CAE4BAD4AAC49AB48AA47A946A845C337
:400E00001207C55032854882854783E493F54E6005F46002D201E54E254DF54DAF48AE47AD46AC45E47B01FAF9F81206728F488E478D468C4580B8AD447F03120A3DEF2479
:400E400001FFE43EFEE43DFDE43CFCE4FB7A01F9F812068D78031207D68F488E478D468C45E47FC07EFFFDFCAB4CAA4BA94AA849C31207C57007FF7E20FDFC800DAF4CAE21
:400E80004BAD4AAC4978031207D68F4C8E4B8D4A8C49AF4CAE4BAD4AAC49AB48AA47A946A845C31207C55039E42548FFE43547FEE5463408FDE43545A907AA06AB05121CB9
:400EC000F3EF254DF54DAF48AE47AD46AC45E47B01FAF9F81206728F488E478D468C4580B1E54DF404F54DAD447F01120A3DA804A905AA06AB07AF4DE4FCFDFEC31207C5CC
:400F000070032001037F06227F002290025EECF0A3EDF0A312087390025DEFF0E4900265F0EFD3943F500E90025DE0940140069002657401F090025DE0FFD3947F4006903A
:400F400002657401F0EFC39440400CEFD3944140069002657401F0EFD3943F501E90025EE0FEA3E0FFE4FCFDFB7A01F9F8C31207C5502F9002657401F08027D390025FE03C
:400F8000948090025EE0940040069002657401F0900263E07004A3E0641060069002657401F090026012086AE94A4B700590026504F0900265E0600302108A121EFEEF606E
:400FC0000302108490025EE0FCA3E0FDA312086A900263E0FFA3E090026CCFF0A3EFF090025DE0FF1211DE900265EFF06407600302107F904722E0540270087F01FE121EF6
:401000006480F0904722E054026009E0FF1313543FFF80027FFFEF7006900265F0800690026574FFF0900265E0705490025DE0FFA3E0FCA3E0FD900353E0FBA3E090026AD9
:40104000F0121A90900265EFF064077032904722E0540270087F01FE121E6480F0904722E054026009E0FF1313543FFF80027FFFEF7006900265F0800690026574FFF0124B
:40108000205180069002657404F0900265E0FF227B007A4679E8121CF3EF4401FD7B007A4679E8122045E4F52CE52CC3940A502CE52C75F005A42461F582E43424AF82F571
:4010C000218F22F58312087C8F82852183740393FC740493FD121F6E052C80CDE4F52CE52CC394015046E52C75F007A42413F582E43425AF82F5238F24F58312087C8B25E1
:401100008A2689278F82852383740393FE7404938E28F529740593F52A740693F52BAD29AC28FFAE2A121EB8052C80B37E207F92121DD97B017A507903121CF3EF4402FD3B
:401140007B017A5079031220457B017A507913121CF3EF4402FD7B017A5079131220459043A0E04440F09043C2E04410F07C207D827B007A5179127F087E00121EB87C2053
:401180007D8A7B007A5179227F087E00121EB89044F47401F0904322E04408F09046ECE0C394055006904689743AF090480074F1F012150690480074B1F0121F1D7B007A41
:4011C0004379A0C00179B0900005120873D0017F0E7E00121D749043B0E054FDF022900266EFF0A3ECF0A3EDF0A312087390026E7407F0904722E0540270030212EE904756
:401200002074B6F074D5F07402F0904722E0540260030212E6900266E0904720F0E490026FF0A3F090026CE0FEA3E0FF90026FE0FCA3E0FDC39FEC9E501F90026912086A8D
:40124000E92DF9EA3CFA1205AF904720F090026FE475F0011205DA80CB90026CE064017002A3E060030212F4900266E0FFD3943F40030212F47E007C207D001208D2E42F0A
:40128000FFE43EFEED3408FDE43CFCC004A905AA06AB07A3E0FEA3E0FF7C007D201208D2D00012067290027112085EE490026FF0A3F090026FE0FEA3E0FFC39420EE94005A
:4012C0005032E4FCFDA3120852120672A907AA06AB05121CF3904720EFF090026FE475F0011205DA80CC90026E7409F0800690026E7404F090026EE0FF228B448A4589469E
:401300008C478D48755505E4F54DF54EE54C75F00AA4FFC3E54E9FE54D95F0503B121B34EF6022121B347553008F54E47F19FEFDFC1218C7121B34D3EF9554E4955350E366
:40134000E4F5558013E47F01FEFDFC1218C7054EE54E7002054D80B4AB49AA4AA94BE4F5F0120653E4F54FF550121B34EFD394005003021412121B347551008F52AB49AA8D
:401380004AA94BE5518552F012061BAB49AA4AA94B1205F0C39548E5F09547505FE4F54DF54EC3E54E9552E54D95515025121C1CAB44E5462550F9E545354FFAEF1205C8C1
:4013C0000550E5507002054F054EE54E7002054D80D0AB44E55024FFFFE54F34FFFEE5462FF9E5453EFA1205AF64177003021369E47F05FEFDFC1218C7021369AB49AA4ABB
:40140000A94B1205F0C39552FFE5F095518FF0120653AF552275930078007583467582E8E04401F0009046ECE0F99046FAE0FA90034BF0B903225420B40012B8001AEA9014
:401440001FFFF07401901FFEF09046F6F0901FFEE06005901FFFE0FA90480074C0F0758156121EDE90000078007920E4F0A3D8FCD9FAEA90034BF002001175081F7509FD1F
:401480001210900214C1022079E493A3F8E493A34003F68001F208DFF48029E493A3F85407240CC8C333C4540F4420C8834004F456800146F6DFE4800B0102040810204063
:4014C00080901B83E47E019360BCA3FF543F30E509541FFEE493A360010ECF54C025E060A840B8E493A3FAE493A3F8E493A3C8C582C8CAC583CAF0A3C8C582C8CAC583CABE
:40150000DFE9DEE780BE7B007A4079807D337C001220279040827418F09043007402F09040007408F09042007403F07B0C7A017908121CF39046A1EFF07B007A4279227D68
:40154000087C001220277B007A4279207D517C12122027E4900004F07F19FEFDFC90000012085E900000120836D3EF9400EE9400403B900004E0FF64036032904225E05440
:4015800001FEEF25E04E5403900004F0E47FE07E01FDFC121D0090000012083674FFFBFAF9F812067290000012085E80B6900000120836EF4E70057F0312207F7B007A402A
:4015C00079047D007C011220279040047407F0904006E4F09040087448F0904004E4F09040017402F09043A2E04401F0228B458A46894774011205C8AB452547F9E43546AB
:40160000FAEF1205C8E549AB45E5472402F9E43546FAE5491205C8E548FFAB45E5472403F9E43546FAEF1205C8AB45AA46A947E5492404FDE43548FC121C668E4A8F4BEFCF
:40164000AB45E5492404FDE43548FCE5472DF9E5463CFAEF1205C8E54AFFAB45E5492405FDE43548FCE5472DF9E5463CFAEF1205C8AB45E5492406FFE43548FEE5472FF9FF
:40168000E5463EFA74171205C8E5492407FDE43548FC755100755200755348755496AB45AA46A947121BD122C0E0C083C082C085C084C086758600C093759300C0D075D09F
:4016C00000C001C002C003C006C007E4FBA2AF33FAD2AF9044F474FDF090646CE0FFFE541EF960069002FDE049F0EF30E54590644AE0FE9002F9E02478F582E43402F583E5
:40170000EEF07B01EB602C900276E060069002FC7401F09002F9E004F0E0C394404002E4F0900277E0FE9002F9E0B506069002767401F0EF20E5A2AF02EA24FF92AFD007BF
:40174000D006D003D002D001D0D0D093D086D084D085D082D083D0E032752106E4FF120D84EF7002F521E4F54BF54AF549F548900357E0FEA3E0F5828E831208428F4F8E82
:401780004E8D4D8C4CE4FFFE7D10FC12192C900355E0FCA3E0F5828C83E493FEC3EF9EFFF404FFB50612900357E0FEA3E0F5828E83120842EF4E70057F00121FB79046FAFB
:4017C000E054C064406004E52160099046FAE4F0FF12001A12205D22C0E0C083C082C085C084C086758600C093759300C0D075D000C006C007A2AFE433FFD2AF9044F4742E
:40180000FDF09002FAE0FE9002B8E06E602C90646EE020E2259002B8E0C394404002E4F09002B8E024B9F582E43402F583E090644DF09002B8E004F080C8EF24FF92AFD043
:4018400007D006D0D0D093D086D084D085D082D083D0E032A9079002FAE0FF9002B8E0FEEFC39E501AEE24FFFDE434FFFCEF7A00B50508EAB504047D0180027D00800CC346
:40188000EF9EB43F047D0180027D00ED70C8EEB5070D90646EE020E20690644DE9F022EFC394404002E4FF74B92FF582E43402F583E9F00F9002FAEFF090646EE030E10609
:4018C0009044D07402F02290FFFC1208AE12085E850883850982120836D3EF9400EE9480402E90034C120836121D00850883850982C083C082120836E42FFFEE3480FEEDC9
:4019000034FFFDEC34FFFCD082D08312085E80C090034212083685088385098212085212068D121D009000041208AE228F478E468D458C44E4F550D3E54F9400E54E940025
:40194000404BAF4FAE4EAD4DAC4C74FFFBFAF9F81206728F4F8E4E8D4D8C4CE547254BFFE546354AFEE5453549FDE5443548FCEF254FFFEE354EFEED354DFDEC354CA907BD
:40198000AA06AB051205AF2550F55080AAAF5022121FE190025E74FFF0121EFEEF703B7F01121E35EF6407702C7B017A0379537D021219E6EFB40215E490025EF090472228
:4019C000E0540270107F01FE121E6480F0904722E0540260D4122051800690025E7404F090025EE0FF2290025F120873900262EDF0E4A3F0900262E0FFA3E0C39F50379065
:401A00004722E054016003D38001C340097F017E00121E6480E9904720E0FF90025F12086A900263E029F9E43AFAEF1205C8900263E004F080BE900263E0FF2290025EEC49
:401A4000F0A3EDF090025DEFF0541F25E0FFE433FEE42FFFEE3444FAA9077B0112201A900260EEF0A3EFF090025DE075F002A42400FFE5F03444FAA9077B01A3E0FEA3E0EC
:401A8000FFFDAC06122029900260E0FEA3E0FF22900267ECF0A3EDF0AC077D07904722E05402603B90472074B6F074D8F07405F0904722E054027023904720ECF09002670F
:401AC000E0904720F0900267E0A3E0904720F0EBF090026AE0904720F080067D0980027D04AF0522121FE1121EFEEF703B121F3A90025EEFF06407702A904722E0540270A1
:401B0000087F01FE121E6480F0904722E054026009E0FF1313543FFF80027FFFEF700490025EF0122051800690025E7404F090025EE0FF229044C87401F09002F9E0FE905D
:401B40000277E0B5060E900276E060047F40802CE4FF80289002F9E0FE900277E0C39E500BE0FE9002F9E0C39EFF8010900277E0FEC374409EFE9002F9E02EFF9044C07420
:401B800001F022420355251A420357251B430350000000440347016E360044034200005DC04103461844034C2EE000004102FB004102B8004102FA004102FD00410277003B
:401BC0004102F900410276004102FC0041035B00008B4C8A4D894E8C4F8D50E4F555F556121E07C3E5569550E555954F501DAB4CE54E2556F9E54D3555FA1205AFFF121874
:401C0000540556E5567002055580D8AB51AA52A953E54F8550F01206537F00229044C87401F0900277E0FE9002F9E0FD900276E07004EE6D602474782EF582E43402F583EF
:401C4000E0FF0EEEC394404002E4FE900277EEF0900276E06009E4F0800590644AE0FF9044C07401F0228B4C8A4D894EE4F54FF550D3ED9400EC94004025AB4CED24FFFFD4
:401C8000EC34FFFEE54E2FF9E54D3EFA1205AF2550F550E4354FF54FED1D70011C80D2E550F4FFE54FF4FEEF2401FFE43EFE227C167DA8E4FF121A3C7D07E4FF121F55E4B7
:401CC0009002FDF090648A7469F090648C7420F07C177DD87F01121A3C7D077F01121F5590642E7406F090643E7447F090648E7402F0228B938A838982E0759300FF22000A
:401D0000EC4D4E700D78FCEF24E950032840FD2200007BF178DA0000EF28FF78FFEE38FEED38FDEC38FC50E7EF2BFFEE38FEED38FDEC38FC40F22205020304121FCC9002FD
:401D40005DEFF090649AE04420F090649CE04410F09044C07401F090649EE04410F09044D87402F09044C0F012203690025DE0FF121F9F22758600EF4E6027EF60010E75B2
:401D80009300900005E0F595A3E0F585A3E0F5848B938A838982E0A30586F0A31586DFF6DEF4E4F593F59522121FCC9043A0E04408F09043B0E04408F090470174C8F090A8
:401DC00043ACE04410F09043BCE04410F0904700E0542060F8121F9F22ACEAADA08E838F82E493F9601CA3E493F5EAA3E493F5A0A3E49360F1FAA3E493F8A3E493F2DAF6BC
:401E0000D9E48DA08CEA22121FCC90649AE04401F0E054FEF0121F9F9044C87401F0E4900277F09002F9F0900276F09002FCF09044C004F0227E07904722E05402601F9052
:401E4000472074B6F074E1F0740EF0904722E054027007904720EFF080067E0980027E04AF062200EEFA900346E0F88FF0A4FFAEF0E88AF0A42EFEE5F03400FDEF24C9FF5A
:401E800078FFEE38FEED38FDE438FC5003021D0022121FCC90649DE04401F0E054FEF0121F9F9044C87402F0E49002B8F09002FAF09044C07402F022758600EF4E601BEFCA
:401EC00060010E8C838D828B958A858984E493A30586F0A31586DFF5DEF3E4F595229046FAE054C064807015F0FD7F02120A3DEF4E600AE4FD7F02120A3D122009229002CC
:401F0000667404F0121FCC90035BE0700704F0E4900266F0121F9F900266E0FF227B0C7A0179CF121CF3EF540790586EF0EFC4540FA3F09058767444F0227F07904722E0DD
:401F40005402600E90472074B6F074E0F0740DF080027F0422AC07ED540775F020A4FFEC541F2480F582E43444F583EFF022EC4D6011ED60010C8B938A838982E4F0A3DDB0
:401F8000FCDCFA75930022121AE490025DEFF0700812199090025DEFF090025DE0FF22EF54016004D2AF8002C2AFEF5402FF9044F4E054FD4FF02290FFFF1208AEEFF090D7
:401FC00046EA7401F09000011208AE229044F4E0F84402F0E85402FF10AF012274014FFF22121FCC9043A0E04408F09043B0E04408F0121F9F229002FBE07009121CAF9087
:4020000002FB7401F0121D3B2290034BE0FA8E838F827400758101738B938A838982E0FFA3E0FE759300228B938A838982EDF0A3ECF0759300229043A2E04401F09043B26F
:40204000E04401F0228B938A838982EDF075930022121FCCE490035BF0121F9F229046FA7480F012207122121FF6121E07121E91229046F6E04401F02212175980FE2280DC
:40208000FE22007F7B007B00000030D8C800D800000016005205082309121098118814200064047E3F8A698C3A8E0F010101E204010301E6020105028702E008010604B82E
:4020C00002BE01D804DF010107021B02A702010A088501890195019901B101BF01D904DF01010B4F00400106038808010A040B111028130219641A041B0A202021082230E9
:40210000274028282A022B022E033080310232103304340836203708382239803A083C283E084028410843824A024B0152045B4068286A016B027090712072108D408E104D
:402140008F809042910493109621980199029B0C9D649E049F80A004A102A202A490A520A702AB01B021B405B602B744C00FC20FC40ECA0FCC6FCE6FD00FD208D608E0083A
:40218000E801010C4C0001021608E70A180E3F101E120114C6163918481C88208824DD262228232ADC2CC8301F320834E03A22541A560458045B045F018008824284F88698
:4021C000018704880F89028AF08D068EC792849308943996C698109C20A020A101A43FA6C0A906AA08AC30B031B106B308B501B6FFB702B982BE40BF11C062C101C5E0C6DA
:40220000CBC80EC9FFCAFFCBFFCEF0CF44D00CD804D904DA04DF01E6C0EA40EB02010D46002901100210030B04010709080209260A310D220E11108012481388151016502C
:402240001780180219021C081D021E201F20200421012208230128402920320238C839A43A083B10414042084921502053405E205F026540674887409088912093089502C2
:40228000978098409B4A9C029D259E049F04A420A504A72AB001B301C0DFC2FFC4FFCA05CC01CE0ED00CD204D6A0D8B0010E4E040906D007230B080C0C0D210E710F0E1048
:4022C00014141016AC170C18DC1A221B201E0321102410264029212A202B062D0C2F2330E03310350F361F37203A023B203F444004464049FF4A074BFF4C404D204EF04F8A
:4023000005500854015604580459045A045B045F01604061A862406320871F89198B0691019304950997029A01A506A719A919AA01AB06AF0FB201B310B507B708B908BB65
:4023400020BE04D804D904DB04DF01010F3C004404040504084809200A010B800E0810081210160418C01A011F042130224425102604270A280829212A802F2A303031047A
:402380003402370438883A103D284101500C5210581059015A886380680169046A206B406F0171407304821083408550868089048B04C005C24FC446CA7DCCC6CE6ED00101
:4023C000D60FD801E40C014005322035808180CC30E2200141038620A620E6400144058301870188C0E004E40401450F0C0857025B046401660193029889A040A301B009C2
:40240000C204D607D801E801EC0401460D8702900893029888A040A301A702AB04B40CB601E808EC02EE08014705900893029888A040A301014C0E5004544057015808607D
:40244000806702900893029888A040A301D406D607D80201500300010C010E01015101000F005100001000513000400051C000100051F000100100000A00010A800580018E
:40248000140008000140000A00014C000200015000002000008080207D050000040800130C0400030204200A031410130C0C7300088000400800004043003C404F003000DE
:4024C0000000734000303F0FC0800008002028000040003402010005C0000E12FFFFFF62A0F0410C00000000000210040404040000000100000000000040020010301000CE
:4025000010101200000000000000000000000000000000010A002493008061000026006930091E031E010100000000000000000000000000000000000000000000000000BD
:40254000000000000000000000000000000000000000000000000000000000000000000000000000000000000000000000000000000000000000000000000000000000005B
:40258000000000000000000000000000000000000000000000000000000000000000000000000000000000000000000000000000000000000000000000000000000000001B
:4025C00000000000000000000000000000000000000000000000000000000000000000000000000000000000000000000000000000000000000000000000000000000000DB
:40260000029D55008F828E83E0540100000070F82278FFE4F6D8FD029DE3900450EBF0A3EAF0A3E9F09007E6E064FA7003023A69900450E0FBA3E0FAA3E0F8AC02AD037B02
:40264000FF7A617967127CD49007DF74FFF0A37461F0A37468F0900450E0FBA3E0FAA3E0F912AD519007DF74FFF0A37461F0A3746BF0900450E0FBA3E0FAA3E0F912AD514B
:402680009007DF74FFF0A37461F0A3747EF0900450E0FBA3E0FAA3E0F912AD519007DF74FFF0A37461F0A37497F0900450E0FBA3E0FAA3E0F912AD519007DF74FFF0A374F5
:4026C00061F0A3749DF0900450E0FBA3E0FAA3E0F912AD519004BC74FFF0A37461F0A374ABF09007E6E0FF9004BFE4F0A3EFF07B017A047955127DBE9007DF7401F0A37444
:4027000004F0A37455F0900450E0FBA3E0FAA3E0F912AD519007DF74FFF0A37461F0A374B4F0900450E0FBA3E0FAA3E0F912AD51900852E0B4011E9007DF74FFF0A37461CF
:40274000F0A374CFF0900450E0FBA3E0FAA3E0F912AD51801C9007DF74FFF0A37461F0A374D4F0900450E0FBA3E0FAA3E0F912AD519004BC74FFF0A37461F0A374D8F090C1
:402780000A54E0FF9004BFE4F0A3EFF07B017A047955127DBE9007DF7401F0A37404F0A37455F0900450E0FBA3E0FAA3E0F912AD519007DF74FFF0A37461F0A37468F090D4
:4027C0000450E0FBA3E0FAA3E0F912AD519007DF74FFF0A37461F0A374E8F0900450E0FBA3E0FAA3E0F912AD519007DF74FFF0A37461F0A374F5F0900450E0FBA3E0FAA38D
:40280000E0F912AD519008C2E0B4021E9007DF74FFF0A37462F0A37405F0900450E0FBA3E0FAA3E0F912AD5180419008C2E0B4011E9007DF74FFF0A37462F0A37413F090D1
:402840000450E0FBA3E0FAA3E0F912AD51801C9007DF74FFF0A37462F0A3741CF0900450E0FBA3E0FAA3E0F912AD51E4900453F0A3F0C3900454E09402900453E0648094A9
:402880008040030229D69008C2E06402705F9004BC74FFF0A37462F0A3742AF0900453E0FEA3E07802C333CE33CED8F9247DF58274083EF583E0A3E0A3E0FFA3E09004BF3B
:4028C000CFF0A3EFF07B017A047955127DBE9007DF7401F0A37404F0A37455F0900450E0FBA3E0FAA3E0F912AD510229C59008C2E06401705E9004BC74FFF0A37462F0A35C
:40290000742AF0900453E0FEA3E07802C333CE33CED8F92485F58274083EF583E0A3E0A3E0FFA3E09004BFCFF0A3EFF07B017A047955127DBE9007DF7401F0A37404F0A3C5
:402940007455F0900450E0FBA3E0FAA3E0F912AD5180729004BC74FFF0A37462F0A3742AF0900453E0FAA3E0FBAE027802C333CE33CED8F92475F58274083EF583E0FCA3D7
:40298000E0FDA3E0FEA3E0FF741A2BF58274083AF583E0F9F81279D99004BFEEF0A3EFF07B017A047955127DBE9007DF7401F0A37404F0A37455F0900450E0FBA3E0FAA3BB
:4029C000E0F912AD51900454E004F07006900453E004F00228729007DF74FFF0A37461F0A37468F0900450E0FBA3E0FAA3E0F912AD519007DF74FFF0A37461F0A37468F03D
:402A0000900450E0FBA3E0FAA3E0F912AD519004BC74FFF0A37462F0A3742EF07B017A047955127DBE90088DE0540360199007DF74FFF0A37462F0A3743EF07B017A047999
:402A40005512AD5180179007DF74FFF0A37462F0A37444F07B017A04795512AD519007DF7401F0A37404F0A37455F0900450E0FBA3E0FAA3E0F912AD519007DF74FFF0A36F
:402A80007462F0A37449F0900450E0FBA3E0FAA3E0F912AD519007DF74FFF0A37462F0A3745FF0900450E0FBA3E0FAA3E0F912AD51E4900453F0A3F0C3900454E0940390C8
:402AC0000453E0648094804003022B7E9004BC74FFF0A37462F0A3746FF0900453E0FCA3E0FD2401FEE43C9004BFF0A3CEF0EDAE047802C333CE33CED8F92421F582740A14
:402B00003EF583E0FCA3E0FDA3E0FEA3E0FF900453E0FAA3E0241AF58274083AF583E0F9F81279D99004C1EEF0A3EFF07B017A047955127DBE9007DF7401F0A37404F0A3D1
:402B40007455F0900450E0FBA3E0FAA3E0F912AD519007DF74FFF0A37461F0A37468F0900450E0FBA3E0FAA3E0F912AD51900454E004F07006900453E004F0022AB89004F7
:402B8000BC74FFF0A37462F0A37478F0900955E0FCA3E0FDA3E0FEA3E0FF9004BF127A667B017A047955127DBE9007DF7401F0A37404F0A37455F0900450E0FBA3E0FAA346
:402BC000E0F912AD519007DF74FFF0A37461F0A37468F0900450E0FBA3E0FAA3E0F912AD519004BC74FFF0A37462F0A3748AF0900A2DE0FCA3E0FDA3E0FEA3E0FF9004BF4E
:402C0000127A667B017A047955127DBE9007DF7401F0A37404F0A37455F0900450E0FBA3E0FAA3E0F912AD519007DF74FFF0A37461F0A37468F0900450E0FBA3E0FAA3E014
:402C4000F912AD519004BC74FFF0A37462F0A3749CF0900A50E0FFA3E09004BFCFF0A3EFF0900A52E0FFA3E09004C1CFF0A3EFF07B017A047955127DBE9007DF7401F0A335
:402C80007404F0A37455F0900450E0FBA3E0FAA3E0F912AD519007DF74FFF0A37461F0A37468F0900450E0FBA3E0FAA3E0F912AD519007DF74FFF0A37462F0A374BCF0907B
:402CC0000450E0FBA3E0FAA3E0F912AD519007DF74FFF0A37462F0A374D2F0900450E0FBA3E0FAA3E0F912AD51900819E064037003022DF69004BC74FFF0A37462F0A374F6
:402D0000E4F09007E7E0FCA3E0FDA3E0FEA3E0FFEC1274F5E4FBFA798078471273DF9004BF127A667B017A047955127DBE9007DF7401F0A37404F0A37455F0900450E0FB2B
:402D4000A3E0FAA3E0F912AD519004BC74FFF0A37462F0A374EEF09007EBE0FCA3E0FDA3E0FEA3E0FFEC1274F5E4FBFA798078471273DF9004BF127A667B017A04795512DD
:402D80007DBE9007DF7401F0A37404F0A37455F0900450E0FBA3E0FAA3E0F912AD519004BC74FFF0A37462F0A374F8F09007EFE0FCA3E0FDA3E0FEA3E0FFEC1274F5E4FB88
:402DC000FA798078471273DF9004BF127A667B017A047955127DBE9007DF7401F0A37404F0A37455F0900450E0FBA3E0FAA3E0F912AD51022EF59004BC74FFF0A37462F018
:402E0000A374E4F09007FFE0FCA3E0FDA3E0FEA3E0FFEC1274F5E4FBFA798078471273DF9004BF127A667B017A047955127DBE9007DF7401F0A37404F0A37455F0900450D6
:402E4000E0FBA3E0FAA3E0F912AD519004BC74FFF0A37462F0A374EEF0900803E0FCA3E0FDA3E0FEA3E0FFEC1274F5E4FBFA798078471273DF9004BF127A667B017A04794F
:402E800055127DBE9007DF7401F0A37404F0A37455F0900450E0FBA3E0FAA3E0F912AD519004BC74FFF0A37462F0A374F8F0900807E0FCA3E0FDA3E0FEA3E0FFEC1274F5E6
:402EC000E4FBFA798078471273DF9004BF127A667B017A047955127DBE9007DF7401F0A37404F0A37455F0900450E0FBA3E0FAA3E0F912AD519007DF74FFF0A37463F0A393
:402F00007402F0900450E0FBA3E0FAA3E0F912AD51900819E06403700302301E9004BC74FFF0A37462F0A374E4F09007F3E0FCA3E0FDA3E0FEA3E0FFEC1274F5E4FBFA79FF
:402F40008078471273DF9004BF127A667B017A047955127DBE9007DF7401F0A37404F0A37455F0900450E0FBA3E0FAA3E0F912AD519004BC74FFF0A37462F0A374EEF090A9
:402F800007F7E0FCA3E0FDA3E0FEA3E0FFEC1274F5E4FBFA798078471273DF9004BF127A667B017A047955127DBE9007DF7401F0A37404F0A37455F0900450E0FBA3E0FA80
:402FC000A3E0F912AD519004BC74FFF0A37462F0A374F8F09007FBE0FCA3E0FDA3E0FEA3E0FFEC1274F5E4FBFA798078471273DF9004BF127A667B017A047955127DBE90F3
:4030000007DF7401F0A37404F0A37455F0900450E0FBA3E0FAA3E0F912AD5102311D9004BC74FFF0A37462F0A374E4F090080BE0FCA3E0FDA3E0FEA3E0FFEC1274F5E4FB77
:40304000FA798078471273DF9004BF127A667B017A047955127DBE9007DF7401F0A37404F0A37455F0900450E0FBA3E0FAA3E0F912AD519004BC74FFF0A37462F0A374EEB5
:40308000F090080FE0FCA3E0FDA3E0FEA3E0FFEC1274F5E4FBFA798078471273DF9004BF127A667B017A047955127DBE9007DF7401F0A37404F0A37455F0900450E0FBA3C0
:4030C000E0FAA3E0F912AD519004BC74FFF0A37462F0A374F8F0900813E0FCA3E0FDA3E0FEA3E0FFEC1274F5E4FBFA798078471273DF9004BF127A667B017A047955127D4D
:40310000BE9007DF7401F0A37404F0A37455F0900450E0FBA3E0FAA3E0F912AD519007DF74FFF0A37461F0A37468F0900450E0FBA3E0FAA3E0F912AD51900817E0B4031EEB
:403140009007DF74FFF0A37463F0A3741CF0900450E0FBA3E0FAA3E0F912AD51801C9007DF74FFF0A37463F0A37436F0900450E0FBA3E0FAA3E0F912AD51900818E0146039
:4031800025146040240270589007DF74FFF0A37463F0A3744FF0900450E0FBA3E0FAA3E0F912AD51803A9007DF74FFF0A37463F0A37461F0900450E0FBA3E0FAA3E0F912B8
:4031C000AD51801C9007DF74FFF0A37463F0A37476F0900450E0FBA3E0FAA3E0F912AD51900819E014602814604314605E240370769007DF74FFF0A37463F0A3748DF09083
:403200000450E0FBA3E0FAA3E0F912AD5180589007DF74FFF0A37463F0A374A6F0900450E0FBA3E0FAA3E0F912AD51803A9007DF74FFF0A37463F0A374BAF0900450E0FB49
:40324000A3E0FAA3E0F912AD51801C9007DF74FFF0A37463F0A374D2F0900450E0FBA3E0FAA3E0F912AD51900850E0601E9007DF74FFF0A37463F0A374F7F0900450E0FB7F
:40328000A3E0FAA3E0F912AD51801C9007DF74FFF0A37464F0A37418F0900450E0FBA3E0FAA3E0F912AD519004BC74FFF0A37464F0A37438F0900851E0FE3395E09004BF1F
:4032C000F0A3CEF07B017A047955127DBE9007DF7401F0A37404F0A37455F0900450E0FBA3E0FAA3E0F912AD519007DF74FFF0A37464F0A37451F0900450E0FBA3E0FAA3E3
:40330000E0F912AD51E4900453F0A3F0C3900454E09403900453E06480948040030233A89004BC74FFF0A37462F0A3746FF0900453E0FCA3E0FD2401FEE43C9004BFF0A357
:40334000CEF0741A2DF58274083CF583E0FF9004C1E4F0A3EFF07B017A047955127DBE9007DF7401F0A37404F0A37455F0900450E0FBA3E0FAA3E0F912AD519007DF74FF9B
:40338000F0A37461F0A37468F0900450E0FBA3E0FAA3E0F912AD51900454E004F07006900453E004F002330C9007DF74FFF0A37464F0A37466F0900450E0FBA3E0FAA3E0E0
:4033C000F912AD51E4900453F0A3F0C3900454E09403900453E064809480400302348F9004BC74FFF0A37464F0A3747CF0900453E0FCA3E0FD2401FEE43C9004BFF0A3CEB2
:40340000F0EDAE047802C333CE33CED8F9241DF58274083EF583E0FCA3E0FDA3E0FEA3E0FF900453E0FAA3E0241AF58274083AF583E0F9F81279D99004C1127A667B017A0B
:40344000047955127DBE9007DF7401F0A37404F0A37455F0900450E0FBA3E0FAA3E0F912AD519007DF74FFF0A37461F0A37468F0900450E0FBA3E0FAA3E0F912AD51900417
:4034800054E004F07006900453E004F00233CB9007DF74FFF0A37464F0A37486F0900450E0FBA3E0FAA3E0F912AD51E4900453F0A3F0C3900454E09403900453E06480946B
:4034C0008040030235609004BC74FFF0A37464F0A374A0F0900453E0FCA3E0FD2401FEE43C9004BFF0A3CEF0EDAE047802C333CE33CED8F92429F58274083EF583E0FCA35F
:40350000E0FDA3E0FEA3E0FF9004C1127A667B017A047955127DBE9007DF7401F0A37404F0A37455F0900450E0FBA3E0FAA3E0F912AD519007DF74FFF0A37461F0A3746885
:40354000F0900450E0FBA3E0FAA3E0F912AD51900454E004F07006900453E004F00234B29007DF74FFF0A37464F0A374A9F0900450E0FBA3E0FAA3E0F912AD519004BC743E
:40358000FFF0A37464F0A374C1F0900853E0FCA3E0FDA3E0FEA3E0FF9004BF127A66900857E0FCA3E0FDA3E0FEA3E0FF9004C3127A6690085BE0FCA3E0FDA3E0FEA3E0FF71
:4035C0009004C7127A667B017A047955127DBE9007DF7401F0A37404F0A37455F0900450E0FBA3E0FAA3E0F912AD519004BC74FFF0A37464F0A374DAF090085FE0FCA3E00A
:40360000FDA3E0FEA3E0FF9004BF127A66900863E0FCA3E0FDA3E0FEA3E0FF9004C3127A66900867E0FCA3E0FDA3E0FEA3E0FF9004C7127A667B017A047955127DBE90074B
:40364000DF7401F0A37404F0A37455F0900450E0FBA3E0FAA3E0F912AD519007DF74FFF0A37461F0A37468F0900450E0FBA3E0FAA3E0F912AD519004BC74FFF0A37464F041
:40368000A374F3F09008DEE0FF9004BFE4F0A3EFF07B017A047955127DBE9007DF7401F0A37404F0A37455F0900450E0FBA3E0FAA3E0F912AD519007DF74FFF0A37461F0B2
:4036C000A37468F0900450E0FBA3E0FAA3E0F912AD51E4900453F0A3F0C3900454E09401900453E06480948040030237F19004BC74FFF0A37465F0A3740DF0900453E0FC03
:40370000A3E0FD2401FEE43C9004BFF0A3CEF0EDAE047802C333CE33CED8F924DFF58274083EF583E0FCA3E0FDA3E0FEA3E0FF900453E0FAA3E024C3F58274083AF583E0B8
:40374000F9F81279D99004C1127A667B017A047955127DBE9007DF7401F0A37404F0A37455F0900450E0FBA3E0FAA3E0F912AD519004BC74FFF0A37465F0A37433F09004A1
:4037800053E0FAA3E0FBAE027802C333CE33CED8F924E7F58274083EF583E0FCA3E0FDA3E0FEA3E0FF74C32BF58274083AF583E0F9F81279D99004BF127A667B017A047997
:4037C00055127DBE9007DF7401F0A37404F0A37455F0900450E0FBA3E0FAA3E0F912AD51900454E004F07006900453E004F00236D99004BC74FFF0A37465F0A37440F09029
:4038000008EFE0A3E0A3E0FFA3E09004BFCFF0A3EFF09008F3E0A3E0A3E0FFA3E09004C1CFF0A3EFF07B017A047955127DBE9007DF7401F0A37404F0A37455F0900450E0F1
:40384000FBA3E0FAA3E0F912AD519007DF74FFF0A37461F0A37468F0900450E0FBA3E0FAA3E0F912AD519004BC74FFF0A37465F0A3745CF09008F7E0FFA3E09004BFCFF047
:40388000A3EFF07B017A047955127DBE9007DF7401F0A37404F0A37455F0900450E0FBA3E0FAA3E0F912AD519007DF74FFF0A37461F0A37468F0900450E0FBA3E0FAA3E0F8
:4038C000F912AD519004BC74FFF0A37465F0A3746EF090086DE0FFA3E09004BFCFF0A3EFF07B017A047955127DBE9007DF7401F0A37404F0A37455F0900450E0FBA3E0FA9D
:40390000A3E0F912AD519007DF74FFF0A37461F0A37468F0900450E0FBA3E0FAA3E0F912AD519004BC74FFF0A37465F0A37480F090086FE0FFA3E09004BFCFF0A3EFF07B65
:40394000017A047955127DBE9007DF7401F0A37404F0A37455F0900450E0FBA3E0FAA3E0F912AD519007DF74FFF0A37461F0A37468F0900450E0FBA3E0FAA3E0F912AD512B
:403980009004BC74FFF0A37465F0A37497F0900871E0FFA3E09004BFCFF0A3EFF0900873E0FFA3E09004C1CFF0A3EFF07B017A047955127DBE9007DF7401F0A37404F0A3AA
:4039C0007455F0900450E0FBA3E0FAA3E0F912AD519007DF74FFF0A37461F0A37468F0900450E0FBA3E0FAA3E0F912AD519004BC74FFF0A37465F0A374B5F0900951E0F831
:403A0000A3E0F9A3E0FAA3E0FB900A10E0FCA3E0FDA3E0FEA3E0C39BFFEE9AFEED99FDEC98FC9004BF127A667B017A047955127DBE9007DF7401F0A37404F0A37455F090F3
:403A40000450E0FBA3E0FAA3E0F912AD519007DF74FFF0A37461F0A37468F0900450E0FBA3E0FAA3E0F912AD5122900002EEF0A3EFF078047C007D017BFF7A6A790C7E05A6
:403A80007F47127BF690054B7405F0A37447F078517C057D017BFF7A6F79537E007F0F127BF678607C057D017BFF7A6F79627E007F1C127BF6787C7C057D017BFF7A6F7920
:403AC0007E7E007F1B127BF678977C057D017BFF7A6F79997E007F1C127BF678B37C057D017BFF7A6F79B57E007F22127BF678D57C057D017BFF7A6F79D77E007F27127B81
:403B0000F678FC7C057D017BFF7A6F79FE7E007F11127BF6780D7C067D017BFF7A70790F7E007F19127BF678267C067D017BFF7A7079287E007F11127BF678377C067D01C4
:403B40007BFF7A7079397E007F1C127BF678537C067D017BFF7A7079557E007F1D127BF678707C067D017BFF7A7079727E007F1B127BF6788B7C067D017BFF7A70798D7E3C
:403B8000007F14127BF6789F7C067D017BFF7A7079A17E007F24127BF678C37C067D017BFF7A7079C57E007F19127BF678DC7C067D017BFF7A7079DE7E007F18127BF67821
:403BC000F47C067D017BFF7A7079F67E007F15127BF678097C077D017BFF7A71790B7E007F14127BF6781D7C077D017BFF7A71791F7E007F1A127BF678377C077D017BFF13
:403C00007A7179397E007F15127BF6784C7C077D017BFF7A71794E7E007F27127BF678737C077D017BFF7A7179757E007F3F127BF678B27C077D017BFF7A7179B47E007F02
:403C40002A127BF67B017A05795112BA0C8F2A7B017A05796012BA0C8F2B7B017A05797C12BA0C8F2C7B017A0579FC12BA0C8F2D7B017A06790D12BA0C8F2E7B017A0679C8
:403C80002612BA0C8F2F7B017A06795312BA0C8F307B017A06797012BA0C8F317B017A06798B12BA0C8F327B017A07790912BA0C8F337B017A07791D12BA0C8F347B017A96
:403CC00007793712BA0C8F357B017A0679C312BA0C8F367B017A0679F412BA0C8F377B017A07794C12BA0C8F387B017A07797312BA0C8F397B017A0779B212BA0C8F3A9052
:403D00000004740CF0A37415F0900002E0FEA3E0FFEE6003024E23EFB415004003024E23903D27F8282873023D6602495C024965024A35024B05024B18024B21024B2A0205
:403D40004B55024BD3024C10024C19024CEF024D75024D85024D99024DA2024DAB024DE5024DF5024E059000067402F0A314F09007E6E0900008F0852A28E5286032FFC389
:403D8000E52A9FFFE49400FE74512FF58274053EF583E0FFE528FDE52AC39DFDE49400FC74092DF58274003CF583EFF0152880CA9000387407F0A37403F0900819E0640399
:403DC00060689007E7E0FCA3E0FDA3E0FEA3E0FFEC1274F5E4FBFA798078471273DF90003A127A669007EBE0FCA3E0FDA3E0FEA3E0FFEC1274F5E4FBFA798078471273DFC9
:403E000090003E127A669007EFE0FCA3E0FDA3E0FEA3E0FFEC1274F5E4FBFA798078471273DF900042127A6680669007FFE0FCA3E0FDA3E0FEA3E0FFEC1274F5E4FBFA7929
:403E40008078471273DF90003A127A66900803E0FCA3E0FDA3E0FEA3E0FFEC1274F5E4FBFA798078471273DF90003E127A66900807E0FCA3E0FDA3E0FEA3E0FFEC1274F568
:403E8000E4FBFA798078471273DF900042127A66852B28E5286032FFC3E52B9FFFE49400FE74602FF58274053EF583E0FFE528FDE52BC39DFDE49400FC74462DF5827400A7
:403EC0003CF583EFF0152880CA90006A7407F0A37403F0900819E0640360689007F3E0FCA3E0FDA3E0FEA3E0FFEC1274F5E4FBFA798078471273DF90006C127A669007F7B8
:403F0000E0FCA3E0FDA3E0FEA3E0FFEC1274F5E4FBFA798078471273DF900070127A669007FBE0FCA3E0FDA3E0FEA3E0FFEC1274F5E4FBFA798078471273DF900074127AF7
:403F400066806690080BE0FCA3E0FDA3E0FEA3E0FFEC1274F5E4FBFA798078471273DF90006C127A6690080FE0FCA3E0FDA3E0FEA3E0FFEC1274F5E4FBFA79807847127326
:403F8000DF900070127A66900813E0FCA3E0FDA3E0FEA3E0FFEC1274F5E4FBFA798078471273DF900074127A66852C28E5286032FFC3E52C9FFFE49400FE747C2FF582746B
:403FC000053EF583E0FFE528FDE52CC39DFDE49400FC74782DF58274003CF583EFF0152880CAE490009CF0A304F0900817E090009EF0900817601C9007DF74FFF0A374615D
:40400000F0A37410F07B017A05799712AD5175291C801A9007DF74FFF0A37461F0A37416F07B017A05799712AD5175291B852928E5286032FFC3E5299FFFE49400FE749774
:404040002FF58274053EF583E0FFE528FDE529C39DFDE49400FC749F2DF58274003CF583EFF0152880CA749F2529F582E43400F5837403F0E49000CEF0A304F0900818E036
:404080009000D0F090081814602314603C240270529007DF74FFF0A37461F0A3741BF07B017A0579B312AD5175291480369007DF74FFF0A37461F0A37421F07B017A0579F2
:4040C000B312AD51752917801A9007DF74FFF0A37461F0A3742AF07B017A0579B312AD51752919852928E5286032FFC3E5299FFFE49400FE74B32FF58274053EF583E0FF1A
:40410000E528FDE529C39DFDE49400FC74D12DF58274003CF583EFF0152880CA74D12529F582E43400F5837401F0E4900100F0A304F0900819E0900102F0900819146026C5
:4041400014603F1460582403706E9007DF74FFF0A37461F0A37435F07B017A0579D512AD5175291B80529007DF74FFF0A37461F0A37440F07B017A0579D512AD51752916C5
:4041800080369007DF74FFF0A37461F0A37446F07B017A0579D512AD5175291A801A9007DF74FFF0A37461F0A37450F07B017A0579D512AD51752927852928E5286032FFE6
:4041C000C3E5299FFFE49400FE74D52FF58274053EF583E0FFE528FDE529C39DFDE49400FC74032DF58274013CF583EFF0152880CA74032529F582E43401F5837402F09087
:404200000132F0A304F0E4F528E528C39403501E741A2528F582E43408F583E0FF74342528F582E43401F583EFF0052880DB852D28E5286032FFC3E52D9FFFE49400FE74EC
:40424000FC2FF58274053EF583E0FFE528FDE52DC39DFDE49400FC74372DF58274013CF583EFF0152880CA9001647403F0A3F0E4F528E528C394035044E52825E025E0249D
:404280001DF582E43408F583E0FCA3E0FDA3E0FEA3E0FF741A2528F582E43408F583E0F9F81279D975F002E528A42466F582E5F03401F583EEF0A3EFF0052880B5852E281C
:4042C000E5286032FFC3E52E9FFFE49400FE740D2FF58274063EF583E0FFE528FDE52EC39DFDE49400FC746C2DF58274013CF583EFF0152880CA9001967407F0A37403F063
:40430000E4F528E528C394035031E52825E025E02429F582E43408F583E0FCA3E0FDA3E0FEA3E0FF75F004E528A42498F582E5F03401F583127A66052880C8852F28E528A3
:404340006032FFC3E52F9FFFE49400FE74262FF58274063EF583E0FFE528FDE52FC39DFDE49400FC74A42DF58274013CF583EFF0152880CAE49001C8F0A304F0900835E0C7
:404380009001CAF0900835601C9007DF74FFF0A37461F0A37410F07B017A06793712AD5175291C801A9007DF74FFF0A37461F0A37416F07B017A06793712AD5175291B85A9
:4043C0002928E5286032FFC3E5299FFFE49400FE74372FF58274063EF583E0FFE528FDE529C39DFDE49400FC74CB2DF58274013CF583EFF0152880CA74CB2529F582E43412
:4044000001F5837403F09001FA7405F0A37402F0E4F528E528C39401400302449EE52825E025E02436F582E43408F583E0FCA3E0FDA3E0FEA3E0FF741A2528F582E43408C1
:40444000F583E0F9F81279D975F008E528A424FCF582E5F03401F583127A66E52825E025E0243EF582E43408F583E0FCA3E0FDA3E0FEA3E0FF741A2528F582E43408F58395
:40448000E0F9F81279D975F008E528A42400F582E5F03402F583127A660528024413853028E5286032FFC3E5309FFFE49400FE74532FF58274063EF583E0FFE528FDE53011
:4044C000C39DFDE49400FC74042DF58274023CF583EFF0152880CA90022C7405F0A37402F090084AE0FCA3E0FDA3E0FEA3E0FF90022E127A66900846E0FCA3E0FDA3E0FE61
:40450000A3E0FF900232127A66853128E5286032FFC3E5319FFFE49400FE74702FF58274063EF583E0FFE528FDE531C39DFDE49400FC74362DF58274023CF583EFF01528BC
:4045400080CA90025E7403F0A37401F090084EE0FFA3E0900260CFF0A3EFF0853228E5286032FFC3E5329FFFE49400FE748B2FF58274063EF583E0FFE528FDE532C39DFD7A
:40458000E49400FC74622DF58274023CF583EFF0152880CAE4900290F0A304F0900850E0900292F0900850601C9007DF74FFF0A37461F0A37410F07B017A06799F12AD5134
:4045C000752924801A9007DF74FFF0A37461F0A37416F07B017A06799F12AD51752923852928E5286032FFC3E5299FFFE49400FE749F2FF58274063EF583E0FFE528FDE50C
:4046000029C39DFDE49400FC74932DF58274023CF583EFF0152880CA74932529F582E43402F5837403F09002C27401F0A3F0900851E09002C4F0853628E5286032FFC3E5FC
:40464000369FFFE49400FE74C32FF58274063EF583E0FFE528FDE536C39DFDE49400FC74C52DF58274023CF583EFF0152880CAE49002F4F0A304F0900852E09002F6F090DE
:404680000852601C9007DF74FFF0A37461F0A37410F07B017A0679DC12AD51752918801A9007DF74FFF0A37461F0A37416F07B017A0679DC12AD51752917852928E5286064
:4046C00032FFC3E5299FFFE49400FE74DC2FF58274063EF583E0FFE528FDE529C39DFDE49400FC74F72DF58274023CF583EFF0152880CA74F72529F582E43402F5837403DE
:40470000F09003267407F0A314F0E4F528E528C394065031E52825E025E02453F582E43408F583E0FCA3E0FDA3E0FEA3E0FF75F004E528A42428F582E5F03403F583127AE9
:4047400066052880C8853728E5286032FFC3E5379FFFE49400FE74F42FF58274063EF583E0FFE528FDE537C39DFDE49400FC74402DF58274033CF583EFF0152880CA900359
:40478000587404F0A37401F090086DE0FFA3E090035ACFF0A3EFF0853328E5286032FFC3E5339FFFE49400FE74092FF58274073EF583E0FFE528FDE533C39DFDE49400FC09
:4047C000745C2DF58274033CF583EFF0152880CA90038A7403F0A37401F090086FE0FFA3E090038CCFF0A3EFF0853428E5286032FFC3E5349FFFE49400FE741D2FF5827445
:40480000073EF583E0FFE528FDE534C39DFDE49400FC748E2DF58274033CF583EFF0152880CA9003BC7404F0A37402F0900871E0FFA3E0900778CFF0A3EFF0900873E0FF4C
:40484000A3E090077CCFF0A3EFF0853528E5286032FFC3E5359FFFE49400FE74372FF58274073EF583E0FFE528FDE535C39DFDE49400FC74C22DF58274033CF583EFF015A1
:404880002880CA853828E5286032FFC3E5389FFFE49400FE744C2FF58274073EF583E0FFE528FDE538C39DFDE49400FC74202DF58274043CF583EFF0152880CA853928E50C
:4048C000286032FFC3E5399FFFE49400FE74732FF58274073EF583E0FFE528FDE539C39DFDE49400FC74B62DF58274043CF583EFF0152880CA853A28E5286032FFC3E53AAD
:404900009FFFE49400FE74B22FF58274073EF583E0FFE528FDE53AC39DFDE49400FC74E82DF58274043CF583EFF0152880CA7B017A00790490054BE0A3E014FD12B5D69007
:40494000054BE0FCA3E0FD2403F58274003CF583EFF07B017A00790412A61722900975E090088FF022900819E064036064E4FFFE7D807C47900975E0F8A3E0F9A3E0FAA37C
:40498000E0FB1272D6127533900890127A66E4FFFE7D807C47900979E0F8A3E0F9A3E0FAA3E0FB1272D6127533900894127A66E4FFFE7D807C4790097DE0F8A3E0F9A3E02C
:4049C000FAA3E0FB1272D6127533900898127A6622E4FFFE7D807C47900975E0F8A3E0F9A3E0FAA3E0FB1272D61275339008A8127A66E4FFFE7D807C47900979E0F8A3E095
:404A0000F9A3E0FAA3E0FB1272D61275339008AC127A66E4FFFE7D807C4790097DE0F8A3E0F9A3E0FAA3E0FB1272D61275339008B0127A6622900819E064036064E4FFFE25
:404A40007D807C47900975E0F8A3E0F9A3E0FAA3E0FB1272D612753390089C127A66E4FFFE7D807C47900979E0F8A3E0F9A3E0FAA3E0FB1272D61275339008A0127A66E4BB
:404A8000FFFE7D807C4790097DE0F8A3E0F9A3E0FAA3E0FB1272D61275339008A4127A6622E4FFFE7D807C47900975E0F8A3E0F9A3E0FAA3E0FB1272D61275339008B41200
:404AC0007A66E4FFFE7D807C47900979E0F8A3E0F9A3E0FAA3E0FB1272D61275339008B8127A66E4FFFE7D807C4790097DE0F8A3E0F9A3E0FAA3E0FB1272D61275339008CC
:404B0000BC127A6622900975E060079008C07403F022E49008C0F022900975E09008C1F022900975E09008C2F022E4F528E528C394034003024E2374752528F582E4340982
:404B4000F583E0FF74C32528F582E43408F583EFF0052880D8E4F528E528C394035071E52825E02475F582E43409F583E0FEA3E0FFEE3395E0FDFCE52825E025E024C6F51E
:404B800082E43408F583127A66E52825E025E024C6F582E43408F583C083C082E0FCA3E0FDA3E0FEA3E0FF74C32528F582E43408F583E0F9F81279EDD082D083127A66740E
:404BC000352528F582E4340AF583E4F005288088D20A22E4F528E528C394034003024E23E52825E025E02475F582E43409F583E0FCA3E0FDA3E0FEA3E0FFE52825E025E0C7
:404C000024D2F582E43408F583127A66052880C6900975E09008DEF022E4F528E528C394024003024E23E52875F008A42475F582E43409F583E0FCA3E0FDA3E0FEA3E0FF51
:404C4000E52825E025E024DFF582E43408F583127A66E52875F008A42479F582E43409F583E0FCA3E0FDA3E0FEA3E0FFE52825E025E024E7F582E43408F583127A66E528BF
:404C800025E025E024DFF582E43408F583C083C082E0FCA3E0FDA3E0FEA3E0FF74C32528F582E43408F583E0F9F81279EDD082D083127A66E52825E025E024E7F582E434D0
:404CC00008F583C083C082E0FCA3E0FDA3E0FEA3E0FF74C32528F582E43408F583E0F9F81279EDD082D083127A660528024C1C900975E0FCA3E0FDA3E0FEA3E0FF90054DF7
:404D0000127A66E4FFFEFDFC90054DE0F8A3E0F9A3E0FAA3E0FBD312799F501490054DE0FCA3E0FDA3E0FEA3E0FF9008F3127A66900979E0FCA3E0FDA3E0FEA3E0FF900551
:404D40004D127A66E4FFFEFDFC90054DE0F8A3E0F9A3E0FAA3E0FBC312799F5003024E2390054DE0FCA3E0FDA3E0FEA3E0FF9008EF127A6622900975E0FFA3E09008F7CF8C
:404D8000F0A3EFF022900975E0FF60079008F97401F022E49008F9F022900975E09008FAF022900975E09008FBF022E4F528E528C39406506EE52825E025E02475F582E413
:404DC0003409F583E0FCA3E0FDA3E0FEA3E0FFE52825E025E024FCF582E43408F583127A66052880C9900975E0FFA3E0900916CFF0A3EFF022900975E0FFA3E0900918CF7F
:404E0000F0A3EFF022900975E0FFA3E090091ACFF0A3EFF0900977E0FFA3E090091CCFF0A3EFF022E4F526F525F524F5239007E7E0FCA3E0FDA3E0FEA3E0F54A8E498D48DD
:404E40008C47A3E0FCA3E0FDA3E0FEA3E0F54E8E4D8D4C8C4BA3E0FCA3E0FDA3E0FEA3E0F5528E518D508C4FA3E0FCA3E0FDA3E0FEA3E0F5568E558D548C53A3E0FCA3E0BA
:404E8000FDA3E0FEA3E0F55A8E598D588C57A3E0FCA3E0FDA3E0FEA3E0F55E8E5D8D5C8C5BA3E0FCA3E0FDA3E0FEA3E0F5628E618D608C5FA3E0FCA3E0FDA3E0FEA3E0F5C9
:404EC000668E658D648C63A3E0FCA3E0FDA3E0FEA3E0F56A8E698D688C67A3E0FCA3E0FDA3E0FEA3E0F56E8E6D8D6C8C6BA3E0FCA3E0FDA3E0FEA3E0F5728E718D708C6F86
:404F0000A3E0FCA3E0FDA3E0FEA3E0F5768E758D748C73900818E024FE70030250700460030257C4900850E06024A3E0FF3395E0FEFDFC900A29E0F8A3E0F9A3E0FAA3E011
:404F4000FB1278678F368E358D348C338024900851E0FF3395E0FEFDFC900A25E0F8A3E0F9A3E0FAA3E0FB1278678F368E358D348C33900875E0F8A3E0F9A3E0FAA3E0FBCF
:404F8000C3E5369BFFE5359AFEE53499FDE53398FC900846E0F8A3E0F9A3E0FAA3E0FBC312799F5044E4FFFEFDFC900846E0F8A3E0A3E0A3E0C312799F602E900875E0FC41
:404FC000A3E0FDA3E0FEA3E0FF900846E0F8A3E0A3E0A3E0EF2BFFEE3AFEED39FDEC38FC900875127A660257C4900875E0F8A3E0F9A3E0FAA3E0FBC3E5369BFFE5359AFECB
:40500000E53499FDE53398FC90084AE0F8A3E0F9A3E0FAA3E0FBD312799F4043E4FFFEFDFC90084AE0F8A3E0A3E0A3E012799F602E900875E0FCA3E0FDA3E0FEA3E0FF9093
:40504000084AE0F8A3E0A3E0A3E0EF2BFFEE3AFEED39FDEC38FC900875127A660257C4AF36AE35AD34AC33900875127A660257C4900819E014700302571F0460030257C427
:40508000E4F53AF539F538F537F53EF53DF53CF53BD3900A51E09484900A50E0648094834003D38001C350030254E9900918E0FAA3E0FB900A51E09BFF900A50E09AFE3326
:4050C00095E08F3A8E39F538F537D3A3E09BEA6480F8900A50E064809850030251B3900875E0F8A3E0F9A3E0FAA3E0FBC000C001C002C003900916E0FEA3E0FFE4FCFDAB03
:405100003AAA39A938A837127867C006C007900918E0FEA3E0FFC3E49FFF74049EFEAB07FA3395E0F9F8D007D00612B1E7D003D002D001D000EB2FFFEA3EFEE93DFDE83C42
:40514000FC900875127A66900879E0F8A3E0F9A3E0FAA3E0FBC000C001C002C003900916E0FEA3E0FFE4FCFDAB3AAA39A938A837127867C006C007900918E0FEA3E0FFC308
:40518000E49FFF74049EFEAB07FA3395E0F9F8D007D00612B1E7D003D002D001D000EB2FFFEA3EFEE93DFDE83CFC900879127A660252BF900918E0FAA3E0FB900A51E02BE0
:4051C000FF900A50E03AFE3395E08F3A8E39F538F537C3E49BFFE49AFEC3A3E09FEE6480F8900A50E064809840030252BF900875E0F8A3E0F9A3E0FAA3E0FBC000C001C078
:4052000002C003900916E0FEA3E0FFE4FCFDAB3AAA39A938A837127867C006C007900918E0FEA3E0FFC3E49FFF74049EFEAB07FA3395E0F9F8D007D00612B1E7D003D0020C
:40524000D001D000EB2FFFEA3EFEE93DFDE83CFC900875127A66900879E0F8A3E0F9A3E0FAA3E0FBC000C001C002C003900916E0FEA3E0FFE4FCFDAB3AAA39A938A8371220
:405280007867C006C007900918E0FEA3E0FFC3E49FFF74049EFEAB07FA3395E0F9F8D007D00612B1E7D003D002D001D000EB2FFFEA3EFEE93DFDE83CFC900879127A669021
:4052C0000918E0FAA3E0FBC3900A53E09BFF900A52E09AFE3395E08F3E8E3DF53CF53BD3A3E09BEA6480F8900A52E064809850030253D1900875E0F8A3E0F9A3E0FAA3E02D
:40530000FBC000C001C002C003900916E0FEA3E0FFE4FCFDAB3EAA3DA93CA83B127867C006C007900918E0FEA3E0FFC3E49FFF74049EFEAB07FA3395E0F9F8D007D00612FC
:40534000B1E7D003D002D001D000EB2FFFEA3EFEE93DFDE83CFC900875127A66900879E0FCA3E0FDA3E0FEA3E0FFC004C005C006C007900916E0FEA3E0FFE4FCFDAB3EAAC9
:405380003DA93CA83B127867C006C007900918E0FEA3E0FFC3E49FFF74049EFEAB07FA3395E0F9F8D007D00612B1E7A804A905AA06AB07D007D006D005D004C3EF9BFFEE18
:4053C0009AFEED99FDEC98FC900879127A660257C4900918E0FAA3E0FB900A53E02BFF900A52E03AFE3395E08F3E8E3DF53CF53BC3E49BFFE49AFEC3A3E09FEE6480F89051
:405400000A52E064809840030257C4900875E0F8A3E0F9A3E0FAA3E0FBC000C001C002C003900916E0FEA3E0FFE4FCFDAB3EAA3DA93CA83B127867C006C007900918E0FE61
:40544000A3E0FFC3E49FFF74049EFEAB07FA3395E0F9F8D007D00612B1E7D003D002D001D000EB2FFFEA3EFEE93DFDE83CFC900875127A66900879E0FCA3E0FDA3E0FEA35D
:40548000E0FFC004C005C006C007900916E0FEA3E0FFE4FCFDAB3EAA3DA93CA83B127867C006C007900918E0FEA3E0FFC3E49FFF74049EFEAB07FA3395E0F9F8D007D00699
:4054C00012B1E7A804A905AA06AB07D007D006D005D004C3EF9BFFEE9AFEED99FDEC98FC900879127A660257C4900A25E0F8A3E0F9A3E0FAA3E0FB900A21E0FCA3E0FDA333
:40550000E0FEA3E0C39BFFEE9AFEED99FDEC98FC90081AE0F9F81279D98F428E418D408C3F900A25E0FCA3E0FDA3E0FEA3E0FF900A21E0F8A3E0F9A3E0FAA3E02FFFEA3E82
:40554000FEE93DFDE83CFC90081AE0F9F81279D98F468E458D448C43AE41AF4212BC60D3EF94F4EE64809481500302565FE4FFFEFDFCAB42AA41A940A83F12799F40067E02
:40558000007F0180047EFF7FFFEF64014E7068900879E0F8A3E0F9A3E0FAA3E0FB900916E0FEA3E0FFE4FCFDEB2FFFEA3EFEED39FDEC38FC900879127A66900875E0FCA315
:4055C000E0FDA3E0FEA3E0FFC006C007900916E0C313FEA3E013FFFBAA06E4D007D006C3EF9BFFEE9AFEED9400FDEC9400FC900875127A660257C4900875E0F8A3E0F9A31E
:40560000E0FAA3E0FB900916E0FEA3E0FFE4FCFDEB2FFFEA3EFEED39FDEC38FC900875127A66900879E0FCA3E0FDA3E0FEA3E0FFC006C007900916E0C313FEA3E013FFFBB5
:40564000AA06E4D007D006C3EF9BFFEE9AFEED9400FDEC9400FC900879127A660257C4E4FFFEFDFCAB46AA45A944A843D312799F50030257C4900875E0FCA3E0FDA3E0FE14
:40568000A3E0FFC006C007900917E025E0FF900916E033FEAB07FAE4D007D006C3EF9BFFEE9AFEED9400FDEC9400FC900875127A66900879E0FCA3E0FDA3E0FEA3E0FFC04F
:4056C00006C007900917E025E0FF900916E033FEAB07FAE4D007D006C3EF9BFFEE9AFEED9400FDEC9400FC900879127A66E4FFFEFDFC900875E0F8A3E0F9A3E0FAA3E0FB47
:40570000C312799F500BE4FFFEFDFC900875127A66E4FFFEFDFC900879127A660257C4900A52E0FCA3E0FDEC1274FAE4FBFA794878BE1272D61275338F3E8E3D8D3C8C3B8E
:405740009008F7E0FEA3E0FFC3E49FFFE49EFE3395E0FDFC900A2DE0F8A3E0F9A3E0FAA3E0FBC312799F5019900A53E09400900A52E0648094804009E4F53EF53DF53CF58B
:405780003B9008F7E0FEA3E0FFEE3395E0FDFC900A2DE0F8A3E0F9A3E0FAA3E0FBD312799F4013900A52E0648094805009E4F53EF53DF53CF53BAF3EAE3DAD3CAC3B9008C3
:4057C00085127A66900835E0606AA3E0FCA3E0FDA3E0FEA3E0FF900875E0F8A3E0F9A3E0FAA3E0FBC312799F5014900836E0FCA3E0FDA3E0FEA3E0FF900875127A66900848
:405800003EE0FCA3E0FDA3E0FEA3E0FF900875E0F8A3E0F9A3E0FAA3E0FBD312799F401490083EE0FCA3E0FDA3E0FEA3E0FF900875127A66900819E07003025C29147003D8
:40584000025FED147003025DBC14600302605B900A21E0F8A3E0F9A3E0FAA3E0FB900875E0FCA3E0FDA3E0FEA3E0C39BF52AEE9AF529ED99F528EC98F527900ADDE0FCA331
:40588000E0FDA3E0FEA3E0252AFFEE3529FEED3528FDEC3527FC900ADD127A667F807EF07DFA7C02900ADDE0F8A3E0F9A3E0FAA3E0FBD312799F40107F807EF07DFA7C02A4
:4058C000900ADD127A66802A7F807E0F7D057CFD900ADDE0F8A3E0F9A3E0FAA3E0FBC312799F500E7F807E0F7D057CFD900ADD127A66E4F532F531F530F52FFFFEFDFCABF2
:4059000062AA61A960A85FC312799F6026AF2AAE29AD28AC27A85F12786778101279D9E5322FF532E5313EF531E5303DF530E52F3CF52FE4FFFEFDFCAB66AA65A964A86357
:40594000C312799F6031900ADDE0FCA3E0FDA3E0FEA3E0FF78061279D9A863127867780A1279D9E5322FF532E5313EF531E5303DF530E52F3CF52FE4FFFEFDFCAB6AAA693B
:40598000A968A867C312799F6043900AE5E0F8A3E0F9A3E0FAA3E0FBC3E52A9BFFE5299AFEE52899FDE52798FCAB6AAA69A968A86712786778101279D9E5322FF532E5316C
:4059C0003EF531E5303DF530E52F3CF52FAF2AAE29AD28AC27900AE5127A66E4FFFEFDFCAB32AA31A930A82FC312799F4004D20E8002C20E90084EE0FEA3E0FFEE3395E00E
:405A0000FDFCAB32AA31A930A82FD312799F401690084EE0FEA3E0FFEE3395E08F328E31F530F52F803C90084EE0FEA3E0FFC3E49FFFE49EFE3395E0FDFCAB32AA31A93014
:405A4000A82FC312799F501A90084EE0FEA3E0FFC3E49FFFE49EFE3395E08F328E31F530F52F900A2DE0F8A3E0F9A3E0FAA3E0FBC3E5329BF52EE5319AF52DE53099F52C2D
:405A8000E52F98F52B900AE1E0FCA3E0FDA3E0FEA3E0252EFFEE352DFEED352CFDEC352BFC900AE1127A667FA07E867D017C00900AE1E0F8A3E0F9A3E0FAA3E0FBD312795A
:405AC0009F40107FA07E867D017C00900AE1127A66802A7F607E797DFE7CFF900AE1E0F8A3E0F9A3E0FAA3E0FBC312799F500E7F607E797DFE7CFF900AE1127A66E4F5266A
:405B0000F525F524F523FFFEFDFCAB6EAA6DA96CA86BC312799F6026AF2EAE2DAD2CAC2BA86B12786778101279D9E5262FF526E5253EF525E5243DF524E5233CF523E4FFAC
:405B4000FEFDFCAB72AA71A970A86FC312799F6031900AE1E0FCA3E0FDA3E0FEA3E0FF78061279D9A86F127867780A1279D9E5262FF526E5253EF525E5243DF524E5233C44
:405B8000F523E4FFFEFDFCAB76AA75A974A873C312799F6043900AE9E0F8A3E0F9A3E0FAA3E0FBC3E52E9BFFE52D9AFEE52C99FDE52B98FCAB76AA75A974A87312786778D3
:405BC000101279D9E5262FF526E5253EF525E5243DF524E5233CF52374FF7F9CFEFDFCAB26AA25A924A823C312799F500D74FF75269CF525F524F523801EE47F64FEFDFC67
:405C0000AB26AA25A924A823D312799F400AE4752664F525F524F523AF2EAE2DAD2CAC2B900AE9127A6602605B900A21E0F8A3E0F9A3E0FAA3E0FB900875E0FCA3E0FDA307
:405C4000E0FEA3E0C39BF52AEE9AF529ED99F528EC98F527900ADDE0FCA3E0FDA3E0FEA3E0252AFFEE3529FEED3528FDEC3527FC900ADD127A66E47FE87E03FDFC900ADDBE
:405C8000E0F8A3E0F9A3E0FAA3E0FBD312799F400FE47FE87E03FDFC900ADD127A66802A7F187EFC7DFF7CFF900ADDE0F8A3E0F9A3E0FAA3E0FBC312799F500E7F187EFC47
:405CC0007DFF7CFF900ADD127A66E4FFFEFDFCAB4AAA49A948A847C312799F601AAF2AAE29AD28AC27A84712786778101279D98F268E258D248C23E4FFFEFDFCAB4EAA4D85
:405D0000A94CA84BC312799F6031900ADDE0FCA3E0FDA3E0FEA3E0FF78061279D9A84B127867780A1279D9E5262FF526E5253EF525E5243DF524E5233CF523E4FFFEFDFC2F
:405D4000AB52AA51A950A84FC312799F6043900AE5E0F8A3E0F9A3E0FAA3E0FBC3E52A9BFFE5299AFEE52899FDE52798FCAB52AA51A950A84F12786778101279D9E5262F89
:405D8000F526E5253EF525E5243DF524E5233CF523AF2AAE29AD28AC27900AE5127A66E4FFFEFDFCAB26AA25A924A823D312799F4005D20E02605BC20E02605B90088DE05F
:405DC000700302605B200D0302605B90087DE0FCA3E0FDA3E0FEA3E0F5328E318D308C2F90084EE0FEA3E0FFEE3395E0FDFCAB32AA31A930A82FD312799F401690084EE05D
:405E0000FEA3E0FFEE3395E08F328E31F530F52F803C90084EE0FEA3E0FFC3E49FFFE49EFE3395E0FDFCAB32AA31A930A82FC312799F501A90084EE0FEA3E0FFC3E49FFFD1
:405E4000E49EFE3395E08F328E31F530F52F900A2DE0F8A3E0F9A3E0FAA3E0FBC3E5329BF52EE5319AF52DE53099F52CE52F98F52B900AE1E0FCA3E0FDA3E0FEA3E0252EE8
:405E8000FFEE352DFEED352CFDEC352BFC900AE1127A667FA07E867D017C00900AE1E0F8A3E0F9A3E0FAA3E0FBD312799F40107FA07E867D017C00900AE1127A66802A7FAE
:405EC000607E797DFE7CFF900AE1E0F8A3E0F9A3E0FAA3E0FBC312799F500E7F607E797DFE7CFF900AE1127A66E4F526F525F524F523FFFEFDFCAB56AA55A954A853C312FA
:405F0000799F6026AF2EAE2DAD2CAC2BA85312786778101279D9E5262FF526E5253EF525E5243DF524E5233CF523E4FFFEFDFCAB5AAA59A958A857C312799F6031900AE136
:405F4000E0FCA3E0FDA3E0FEA3E0FF78061279D9A857127867780A1279D9E5262FF526E5253EF525E5243DF524E5233CF523E4FFFEFDFCAB5EAA5DA95CA85BC312799F6059
:405F800043900AE9E0F8A3E0F9A3E0FAA3E0FBC3E52E9BFFE52D9AFEE52C99FDE52B98FCAB5EAA5DA95CA85B12786778101279D9E5262FF526E5253EF525E5243DF524E577
:405FC000233CF523AF2EAE2DAD2CAC2B900AE9127A66E4FFFEFDFCAB26AA25A924A823C312799F4004D20E8072C20E806E900885E0FCA3E0FDA3E0FEA3E0F5268E258D247E
:406000008C23E4FFFEFDFCAB26AA25A924A823D312799F4004D20E8002C20E74FF7F9CFEFDFCAB26AA25A924A823C312799F500D74FF75269CF525F524F523801EE47F64CB
:40604000FEFDFCAB26AA25A924A823D312799F400AE4752664F525F524F523E47F64FEFDFCAB26AA25A924A823D312799F400AE4752664F525F524F52374FF7F9CFEFDFC8C
:40608000AB26AA25A924A823C312799F500B74FF75269CF525F524F523900819E064016037AF26AE25AD24AC23780A1279EDE47B64FAF9F812B1E7A804A905AA06AB0790F8
:4060C0000A54E0FFE4FCFDFE127867780A1279D98F268E258D248C23E4FFFEFDFCAB26AA25A924A823C312799F40047F0180027FFF900A20EFF0300E077F0112BD848005F0
:40610000E4FF12BD84AE25AF2612BC6012BD7222205945530000204E4F00002055736200002048616E646C650000204A6F79737469636B000020506F736974696F6E000087
:406140002050574D00002043757272656E74000020506F736974696F6E20616E642043757272656E740000000D0A004669726D776172652076657273696F6E3A20005348CE
:406180002D50524F2076362E312E30202D204A4F59535449434B002E0D0A0D0A0044455649434520494E464F0D0A0049443A2025640D0A0050574D2072657363616C696E00
:4061C000672061637469766174696F6E3A20005945530A004E4F0A0050574D204C696D69743A2025640D0A004D4F544F5220494E464F0D0A004D6F746F72207265666572A4
:40620000656E636500202D2043757272656E74733A2000202D2050776D3A2000202D20506F736974696F6E3A2000256420004D6F746F7220656E61626C65643A20005945F2
:40624000530D0A004E4F0D0A000D0A4D4541535552454D454E545320494E464F0D0A0053656E736F722076616C75653A0D0A002564202D3E20256400566F6C746167652036
:40628000286D56293A20256C640043757272656E7420286D41293A20256C64004A6F79737469636B206D6561737572656D656E74733A202568642C20256864000D0A444579
:4062C0005649434520504152414D45544552530D0A0050494420436F6E74726F6C6C65723A0D0A0050202D3E20256620200049202D3E20256620200044202D3E2025660DCE
:406300000A0043757272656E742050494420436F6E74726F6C6C65723A0D0A00537461727475702061637469766174696F6E3A205945530D0A005374617274757020616360
:406340007469766174696F6E3A204E4F0D0A00496E707574206D6F64653A205553420D0A00496E707574206D6F64653A2048616E646C650D0A00496E707574206D6F64650A
:406380003A204A6F79737469636B0D0A00436F6E74726F6C206D6F64653A20506F736974696F6E0D0A00436F6E74726F6C206D6F64653A2050574D0D0A00436F6E74726F30
:4063C0006C206D6F64653A2043757272656E740D0A00436F6E74726F6C206D6F64653A20506F736974696F6E20616E642043757272656E740D0A004162736F6C75746520F7
:40640000656E636F64657220706F736974696F6E3A205945530D0A004162736F6C75746520656E636F64657220706F736974696F6E3A204E4F0D0A004D6F746F722D4861BC
:406440006E646C6520526174696F3A2025640D0A0053656E736F72207265736F6C7574696F6E3A0D0A004D6561737572656D656E74204F66667365743A0D0A002564202DED
:406480003E20256C64004D6561737572656D656E74204D756C7469706C6965723A0D0A002564202D3E2025660043757272656E74206C6F6F6B7570207461626C653A0D0A96
:4064C00000705B305D202D20705B325D3A2025662C2025662C2025660A00705B335D202D20705B355D3A2025662C2025662C2025660A00506F736974696F6E206C696D69FE
:4065000074206163746976653A20256400506F736974696F6E206C696D6974206D6F746F722025643A20696E66202D3E20256C64202000737570202D3E20256C640D0A0054
:406540004D6178207374657020706F7320616E64206E65673A2025642025640043757272656E74206C696D69743A20256400436C6F737572652073706565643A2025640078
:406580004A6F79737469636B205468726573686F6C643A202564004A6F79737469636B204761696E73202D20583A2568752020593A2568750064656275673A20256C64004D
:4065C000000000000000000000000000000000000000000000000000000000000000000000000000000000000000000000000000000000000000000000000000000000009B
:40660000000000000000000000000000000000000000000000000000000000000000000000000000000000000000000000000000000000000000000000000000000000005A
:40664000000000000000000000000000000000000000000000000000000000000000000000000000000000000000000000000000000000000000000000000000000000001A
:4066800000000000000000000000000000000000000000000000000000000000000000000000000000000000000000000000000000000000000000000000000000000000DA
:406F40000000000000000000000000000000000000000031202D204465766963652049443A0032202D20506F736974696F6E20504944205B502C20492C20445D3A00332071
:406F80002D2043757272656E7420504944205B502C20492C20445D3A0034202D20537461727475702041637469766174696F6E3A000000000035202D20496E707574206DDE
:406FC0006F64653A0000000000000000000000000000000000000036202D20436F6E74726F6C206D6F64653A00000000000000000000000000000000000000000000372045
:407000002D205265736F6C7574696F6E733A0038202D204D6561737572656D656E74204F6666736574733A0039202D204D756C7469706C696572733A003130202D20506FBC
:40704000732E206C696D6974206163746976653A00000000003131202D20506F732E206C696D697473205B696E662C207375705D3A003132202D204D617820737465707341
:40708000205B6E65672C20706F735D3A003133202D2043757272656E74206C696D69743A003134202D204162736F6C75746520656E636F64657220706F736974696F6E3AD9
:4070C00000000000003135202D204D6F746F722068616E646C6520726174696F3A003136202D2050574D2072657363616C696E673A00000000003137202D204375727265F7
:407100006E74206C6F6F6B75703A003138202D20436C6F737572652073706565643A003139202D204A6F79737469636B207468726573686F6C64733A003230202D204A6F12
:4071400079737469636B206761696E733A0030202D3E205573620A31202D3E2048616E646C650A32202D3E204A6F79737469636B0A0000000030202D3E20506F7369746941
:407180006F6E0A31202D3E2050574D0A32202D3E2043757272656E740A33202D3E20506F736974696F6E20616E642043757272656E740A0030202D3E204465616374697616
:4071C000617465205B4E4F5D0A31202D3E204163746976617465205B5945535D0A0002759FE86480F8E933E83360110460F0ED33EC337009E8FCE9FDEAFEEBFF220460DE68
:40720000D3EB9FEA9EE99DE8C2E78CF0C2F795F0400CE8CCF8E9CDF9EACEFAEBCFFB12756A85D0F05804700320D5B3E80470075002B2D50275A992D5EC0460F7E4CCC0E083
:40724000C398F8603B94186008400DD0E0FB027581E4FBFAC9FC8028E830E406E4C9FBE4CAFCE830E305E4C9CACBFCE854076010F8C3E913F9EA13FAEB13FBEC13FCD8F12D
:4072800030F52FC3E49CFCEF9BFFEE9AFEED99FDD0E0FBEF4E4D4C701222DB030275A6EC2CFCEF33FFEE33FEED33FDED30E7EB027581EF2BFFEE3AFEED39FDD0E0FB5013C1
:4072C0000BBB00030275A9ED13FDEE13FEEF13FFEC13FC027581EC4D6011E8497017ED33EC3304600DE4FCFFFEFD22E933E8330470F802759F12756A58046009E4CC2481E3
:4073000050062850090275A92840030275A6C0E0EB4A7044B98006D0E0FB027595EF4E701CBD8008EBFFEAFEE9FD80EBE98DF0A4FEE5F00273BFE9CDF9EAFEEBFFEF89F024
:40734000A4FCE5F0CE89F0A42EFFE435F0CD89F0A42DFEE435F08067EF4E7005BD80D780C3EF8BF0A4ACF0EE8BF0A42CFCE435F0F8EF8AF0A42CE5F038FCE433CB8DF0A444
:407380002CFCE5F03BF8EE8AF0A42CFCE5F038F8E433CF89F0A42CFCE5F038CF3400CE89F0A42FFFE5F03EFEE433C98DF0A42EFEE5F039CD8AF0A42FFFE5F03EFEE43DFD7C
:4073C00033D0E0FB50070BBB000F0275A9EC2CFCEF33FFEE33FEED33FD0275810275A9EC5D046005E85904700302759F12756A580460F6EC4860F2EC7004FDFEFF22C8608D
:40740000DB2481C85009C398600250060275A69850CAF582E9294B4A7005AB8202759575F0007C1A7880C3EF9BEE9AED99400DC3EF9BFFEE9AFEED99FDE842F0DC23ACF058
:40744000D0E0FFD0E0FED0E0FDAB8220E7101BEB60BAEC2CFCEF33FFEE33FEED33FD027581E803F830E705C0F075F000EF2FFFEE33FEED33FD40B830E7C280AA74F8CC6431
:4074800080CCC86480C8F58204604FC3EB9FF5F0EA9E42F0E99D42F0E89C45F0603C501DE5825FFFE582D313CB5BCBF42B5582FB50280ABA002409B9002008801DE5825BDF
:4074C000FBE582D313CF5FCFF4C3132F5582FF50090EBE00050DBD00010CC3EB9FF5F0EA9E42F0E99D42F0E89C45F06007CC4820E701B3EC2275F020800E75F01080057554
:40750000F0087D007E007F003392D530D503127991EC334010EF33FFEE33FEED33FDEC33FCD5F0ED22E5F0247EA2D513CC92E7CDCEFF22EDD2E7CD33EC3392D52481400647
:40754000E4FFFEFDFC22FCE4CFCECDCC24E0501174FF80EDC3CC13CCCD13CDCE13CECF13CF0470F030D5DE027991E9D2E7C933E833F892D5EDD2E7CD33EC33FC5002B2D534
:4075800022EC30E7100FBF000C0EBE00080DBD00040BEB6014A2D5EB13FCED92E7FD2274FFFCFDFEFF22E480F8A2D574FF13FC7D80E480EFED33EC33601004700FED547F98
:4075C0007005740292E0227404220422E422ED33EC33600A047003BD8004ECB2E7FC22F920E73624F950037907E4F42402FBE582158270021583DBF6E024FB501BE9601483
:40760000E4F0E582158270021583E004F0B40A08E4F0D9EE7401F00A22C2D522ED33EC3392D5FA602AB4FF33EDC2E77BFF60067A767941E4227A76794A20D5047A7679455F
:40764000224E614E002B494E46002D494E4600E47A08F0A3DAFC7B00740722C083C082ECC0E0EDC0E0EEC0E0EFC0E0EA75F010A4CAABF075F04DA42BFBE435F0FCEA241030
:40768000FAEB34C5FBEC34D9FCEDC2E7FF75F056A4F42411C5F0F434C58FF0A42AE5F03BE43CF020E714127751D0E0FFD0E0FED0E0FDD0E0FC1273DF8014F404127751D08B
:4076C000E0FFD0E0FED0E0FDD0E0FC1272D6D082D083E0FAEDD2E7CD33EC332482FBE4C3CF33CFCE33CECD33CD33DBF37B0775F00A846004F0A31B0AE5F0F0A38FF0740A5A
:40770000A4FFACF08EF0740AA42CFEACF050010C8DF0740AA42CFDE435F0F0A3DBDE7407223F8000004120000042C80000447A0000461C400047C35000497424004B1896CF
:40774000804CBEBC205A0E1BCA6753C21C749DC5AEFB60065407601C232312777FEB5438600912776B12777A1272D6ECF8EDF9EEFAEFCB22EB12777A80F1543803241C9037
:407780007721FE93FC0EEE93FD0EEE930ECE93FF22C0E0EFFBEEFAEDF9ECF81272D6D0E0F5F0EFFBEEFAEDF9ECF8127A3AA3A3A3A3E8C0E0E9C0E0EAC0E0EBC0E0C0F012F8
:4077C00072D6127A56A3A3A3A31271E5D0F0D0E0FBD0E0FAD0E0F9D0E0F8D5F0D422BB010689828A83E0225002E722BBFE02E32289828A83E49322BB010CE58229F582E5EE
:40780000833AF583E0225006E92582F8E622BBFE06E92582F8E222E58229F582E5833AF583E49322BB010689828A83F0225002F722BBFE01F322EF8DF0A4A8F0CF8CF0A469
:4078400028CE8DF0A42EFE22BB010A89828A83F0E5F0A3F0225006F709A7F01922BBFE06F3E5F009F31922E88FF0A4CC8BF0A42CFCE98EF0A42CFC8AF0EDA42CFCEA8EF079
:40788000A4CDA8F08BF0A42DCC3825F0FDE98FF0A42CCD35F0FCEB8EF0A4FEA9F0EB8FF0A4CFC5F02ECD39FEE43CFCEAA42DCE35F0FDE43CFC2275F008758200EF2FFFEE5B
:4078C00033FECD33CDCC33CCC58233C5829BED9AEC99E58298400CF582EE9BFEED9AFDEC99FC0FD5F0D6E4CEFBE4CDFAE4CCF9A88222B800C1B90059BA002DEC8BF084CFE6
:40790000CECDFCE5F0CBF97818EF2FFFEE33FEED33FDEC33FCEB33FB10D703994004EB99FB0FD8E5E4F9FA227818EF2FFFEE33FEED33FDEC33FCC933C910D7059BE99A40DC
:4079400007EC9BFCE99AF90FD8E0E4C9FAE4CCFB2275F010EF2FFFEE33FEED33FDCC33CCC833C810D7079BEC9AE899400AED9BFDEC9AFCE899F80FD5F0DAE4CDFBE4CCFA0C
:40798000E4C8F922CFF4CFCEF4CECDF4CDCCF4CC22C3E49FFFE49EFEE49DFDE49CFC22EB9FF5F0EA9E42F0E99D42F0EC6480C864809845F022EB9FF5F0EA9E42F0E99D4284
:4079C000F0E89C45F022E8600FECC313FCED13FDEE13FEEF13FFD8F122E86010ECA2E713FCED13FDEE13FEEF13FFD8F022E8600FEFC333FFEE33FEED33FDEC33FCD8F1227F
:407A0000BB010789828A83027D295005E9F8027D1DBBFE05E9F8027D3589828A83027A3ABB010789828A83027A665005E9F8027D41BBFE05E9F8027D4D22E493FC74019315
:407A4000FD740293FE740393FF22E0F8A3E0F9A3E0FAA3E0FB22E493F8740193F9740293FA740393FB22ECF0A3EDF0A3EEF0A3EFF022A8828583F0D083D082127A89127AE3
:407A800089127A89127A89E473E493A3C583C5F0C583C8C582C8F0A3C583C5F0C583C8C582C822F8E0FBA3A3E0F925F0F0E582158270021583E0FA38F022EBF0A3EAF0A397
