:102600000285BD008F828E83E0540100000070F8C7
:102610002278FFE4F6D8FD02864B90073F1252F174
:10262000900451E0FFEF64FA7003023A457BFF7AB1
:10263000687979C003C002C00190073F1252D1A847
:1026400001AC02AD03D001D002D00312553890077F
:102650003F1252D1C003C002C0017BFF7A68797A71
:102660009007AB1252F1D001D002D00312998F9093
:10267000073F1252D1C003C002C0017BFF7A6879C4
:102680007D9007AB1252F1D001D002D00312998F86
:1026900090073F1252D1C003C002C0017BFF7A688D
:1026A00079909007AB1252F1D001D002D003129969
:1026B0008F90073F1252D1C003C002C0017BFF7A46
:1026C00068799E9007AB1252F1D001D002D003126C
:1026D000998F90073F1252D1C003C002C0017BFF07
:1026E0007A6879A49007AB1252F1D001D002D003DE
:1026F00012998F7B017A077944C003C002C0017B25
:10270000FF7A6879B29007AB1252F1900451E0FF62
:102710007E009007AEEEF0A3EFF0D001D002D00320
:1027200012645B90073F1252D1C003C002C0017B0C
:10273000017A0779449007AB1252F1D001D002D050
:102740000312998F90073F1252D1C003C002C001FB
:102750007BFF7A6879BB9007AB1252F1D001D002AF
:10276000D00312998F9004CBE0FFEFB401239007C0
:102770003F1252D1C003C002C0017BFF7A6879D6F4
:102780009007AB1252F1D001D002D00312998F8082
:102790002190073F1252D1C003C002C0017BFF7AD3
:1027A0006879DB9007AB1252F1D001D002D003124E
:1027B000998F7B017A077944C003C002C0017BFF77
:1027C0007A6879DF9007AB1252F190066FE0FF7ED6
:1027D000009007AEEEF0A3EFF0D001D002D00312CC
:1027E000645B90073F1252D1C003C002C0017B015D
:1027F0007A0779449007AB1252F1D001D002D0038E
:1028000012998F90073F1252D1C003C002C0017BC2
:10281000FF7A68797A9007AB1252F1D001D002D0DA
:102820000312998F90073F1252D1C003C002C0011A
:102830007BFF7A6879EF9007AB1252F1D001D0029A
:10284000D00312998F90073F1252D1C003C002C02B
:10285000017BFF7A6879FC9007AB1252F1D001D06E
:1028600002D00312998F90051BE0FFEFB402239072
:10287000073F1252D1C003C002C0017BFF7A6979C1
:102880000C9007AB1252F1D001D002D00312998FF5
:10289000804D90051BE0FFEFB4012390073F1252DB
:1028A000D1C003C002C0017BFF7A69791A9007ABDF
:1028B0001252F1D001D002D00312998F80219007DB
:1028C0003F1252D1C003C002C0017BFF7A69792355
:1028D0009007AB1252F1D001D002D00312998F9021
:1028E0000742E4F0A3E4F0900742E0FEA3E0FFC358
:1028F000EF9402EE648094804003022A7B90051BD3
:10290000E0FFEF6402706D7B017A077944C003C079
:1029100002C0017BFF7A6979319007AB1252F190C6
:102920000742E0FEA3E0FFEF7802C333CE33CED8F8
:10293000F9FF74D62FF58274043EF58312527F900E
:1029400007AEEEF0A3EFF0D001D002D00312645B2B
:1029500090073F1252D1C003C002C0017B017A0729
:1029600079449007AB1252F1D001D002D0031299F2
:102970008F022A6E90051BE0FFEF6401706D7B01F2
:102980007A077944C003C002C0017BFF7A697931BC
:102990009007AB1252F1900742E0FEA3E0FFEF7800
:1029A00002C333CE33CED8F9FF74DE2FF582740420
:1029B0003EF58312527F9007AEEEF0A3EFF0D00108
:1029C000D002D00312645B90073F1252D1C003C003
:1029D00002C0017B017A0779449007AB1252F1D013
:1029E00001D002D00312998F022A6E7B017A0779F7
:1029F00044C003C002C0017BFF7A6979319007AB04
:102A00001252F1900742E0FEA3E0FFEF7802C333D9
:102A1000CE33CED8F9FF74CE2FF58274043EF58301
:102A200012527F900742E0FAA3E0FB74852BF582F7
:102A300074043AF583E0F9A80112521E9007AEEE35
:102A4000F0A3EFF0D001D002D00312645B90073FF7
:102A50001252D1C003C002C0017B017A07794490B1
:102A600007AB1252F1D001D002D00312998F900718
:102A700042E475F00112502C0228E790073F1252F1
:102A8000D1C003C002C0017BFF7A68797A9007AB9E
:102A90001252F1D001D002D00312998F90073F1249
:102AA00052D1C003C002C0017BFF7A68797A9007D7
:102AB000AB1252F1D001D002D00312998F7B017A70
:102AC000077944C003C002C0017BFF7A6979359061
:102AD00007AB1252F1D001D002D00312645B900414
:102AE000E6E0FFEF5403FFEF60237B017A077944B0
:102AF000C003C002C0017BFF7A6979459007AB1221
:102B000052F1D001D002D00312998F80217B017A3B
:102B1000077944C003C002C0017BFF7A69794B90FA
:102B200007AB1252F1D001D002D00312998F900757
:102B30003F1252D1C003C002C0017B017A07794421
:102B40009007AB1252F1D001D002D00312998F90AE
:102B5000073F1252D1C003C002C0017BFF7A6979DE
:102B6000509007AB1252F1D001D002D00312998FCE
:102B700090073F1252D1C003C002C0017BFF7A69A7
:102B800079669007AB1252F1D001D002D0031299AE
:102B90008F900742E4F0A3E4F0900742E0FEA3E048
:102BA000FFC3EF9403EE648094804003022C787B93
:102BB000017A077944C003C002C0017BFF7A6979BA
:102BC000769007AB1252F1900742E0FEA3E0FFEFD0
:102BD0002401FFEE3400FE9007AEEEF0A3EFF0907C
:102BE0000742E0FEA3E0FFEF7802C333CE33CED836
:102BF000F9FF74502FF58274063EF58312527F90D0
:102C00000742E0FAA3E0FB74852BF58274043AF5E1
:102C100083E0F9A80112521E9007B0EEF0A3EFF086
:102C2000D001D002D00312645B90073F1252D1C092
:102C300003C002C0017B017A0779449007AB1252AE
:102C4000F1D001D002D00312998F90073F1252D1D8
:102C5000C003C002C0017BFF7A68797A9007AB128B
:102C600052F1D001D002D00312998F900742E4753F
:102C7000F00112502C022B997B017A077944C00392
:102C8000C002C0017BFF7A69797F9007AB1252F1D5
:102C900090058812527F9007AE125297D001D00251
:102CA000D00312645B90073F1252D1C003C002C030
:102CB000017B017A0779449007AB1252F1D001D021
:102CC00002D00312998F90073F1252D1C003C00265
:102CD000C0017BFF7A68797A9007AB1252F1D0017C
:102CE000D002D00312998F7B017A077944C003C0C8
:102CF00002C0017BFF7A6979919007AB1252F19083
:102D0000065C12527F9007AE125297D001D002D0CB
:102D10000312645B90073F1252D1C003C002C0018E
:102D20007B017A0779449007AB1252F1D001D002AF
:102D3000D00312998F90073F1252D1C003C002C036
:102D4000017BFF7A68797A9007AB1252F1D001D0FB
:102D500002D00312998F90073F1252D1C003C002D4
:102D6000C0017BFF7A6979A39007AB1252F1D001C1
:102D7000D002D00312998F90073F1252D1C003C0E6
:102D800002C0017BFF7A6979B99007AB1252F1D08A
:102D900001D002D00312998F7B017A077944C003D6
:102DA000C002C0017BFF7A6979CB9007AB1252F168
:102DB00090045212527FEC124D517B007A007980C0
:102DC0007847124C3B9007AE125297D001D002D0F8
:102DD0000312645B90073F1252D1C003C002C001CE
:102DE0007B017A0779449007AB1252F1D001D002EF
:102DF000D00312998F7B017A077944C003C002C0C7
:102E0000017BFF7A6979D59007AB1252F190045695
:102E100012527FEC124D517B007A00798078471274
:102E20004C3B9007AE125297D001D002D0031264EF
:102E30005B90073F1252D1C003C002C0017B017AF0
:102E40000779449007AB1252F1D001D002D003129F
:102E5000998F7B017A077944C003C002C0017BFFD0
:102E60007A6979DF9007AB1252F190045A12527FBF
:102E7000EC124D517B007A0079807847124C3B90E0
:102E800007AE125297D001D002D00312645B9007B4
:102E90003F1252D1C003C002C0017B017A077944BE
:102EA0009007AB1252F1D001D002D00312998F904B
:102EB000073F1252D1C003C002C0017BFF7A69797B
:102EC000E99007AB1252F1D001D002D00312998FD2
:102ED0007B017A077944C003C002C0017BFF7A6995
:102EE00079CB9007AB1252F190045E12527FEC1234
:102EF0004D517B007A0079807847124C3B9007AEA9
:102F0000125297D001D002D00312645B90073F1297
:102F100052D1C003C002C0017B017A0779449007F7
:102F2000AB1252F1D001D002D00312998F7B017AFB
:102F3000077944C003C002C0017BFF7A6979D5904C
:102F400007AB1252F190046212527FEC124D517B8A
:102F5000007A0079807847124C3B9007AE12529766
:102F6000D001D002D00312645B90073F1252D1C04F
:102F700003C002C0017B017A0779449007AB12526B
:102F8000F1D001D002D00312998F7B017A077944E6
:102F9000C003C002C0017BFF7A6979DF9007AB12E2
:102FA00052F190046612527FEC124D517B007A0070
:102FB00079807847124C3B9007AE125297D001D0DF
:102FC00002D00312645B90073F1252D1C003C002CB
:102FD000C0017B017A0779449007AB1252F1D0010E
:102FE000D002D00312998F90073F1252D1C003C074
:102FF00002C0017BFF7A68797A9007AB1252F1D058
:1030000001D002D00312998F900482E0FFEFB40345
:103010002390073F1252D1C003C002C0017BFF7A48
:103020006A79039007AB1252F1D001D002D003129B
:10303000998F802190073F1252D1C003C002C00176
:103040007BFF7A6A791D9007AB1252F1D001D00252
:10305000D00312998F900483E0FFEF1252FA30747C
:103060000030980130BC0230DF0331020431250505
:103070000000314690073F1252D1C003C002C00188
:103080007BFF7A6A79369007AB1252F1D001D002F9
:10309000D00312998F02314690073F1252D1C003DC
:1030A000C002C0017BFF7A6A79489007AB1252F1E7
:1030B000D001D002D00312998F02314690073F12FF
:1030C00052D1C003C002C0017BFF7A6A795D9007CC
:1030D000AB1252F1D001D002D00312998F806790C9
:1030E000073F1252D1C003C002C0017BFF7A6A7948
:1030F0007C9007AB1252F1D001D002D00312998F0D
:10310000804490073F1252D1C003C002C0017BFF30
:103110007A6A79979007AB1252F1D001D002D003AE
:1031200012998F802190073F1252D1C003C002C074
:10313000017BFF7A6A79AE9007AB1252F1D001D0D1
:1031400002D00312998F900484E0FFEF1252FA31FB
:103150005F0031820131A50231C803000031E990DE
:10316000073F1252D1C003C002C0017BFF7A6A79C7
:10317000C99007AB1252F1D001D002D00312998F3F
:10318000806790073F1252D1C003C002C0017BFF8D
:103190007A6A79E29007AB1252F1D001D002D003E3
:1031A00012998F804490073F1252D1C003C002C0D1
:1031B000017BFF7A6A79F69007AB1252F1D001D009
:1031C00002D00312998F802190073F1252D1C00381
:1031D000C002C0017BFF7A6B790E9007AB1252F1EF
:1031E000D001D002D00312998F9004C9E0FFEF60A4
:1031F0002390073F1252D1C003C002C0017BFF7A67
:103200006B79339007AB1252F1D001D002D0031288
:10321000998F802190073F1252D1C003C002C00194
:103220007BFF7A6B79549007AB1252F1D001D00238
:10323000D00312998F7B017A077944C003C002C082
:10324000017BFF7A6B79749007AB1252F19004CA3C
:10325000E0FFEF3395E0FE9007AEEEF0A3EFF0D085
:1032600001D002D00312645B90073F1252D1C00319
:10327000C002C0017B017A0779449007AB1252F17A
:10328000D001D002D00312998F90073F1252D1C0C3
:1032900003C002C0017BFF7A6B798D9007AB12529D
:1032A000F1D001D002D00312998F900742E4F0A32D
:1032B000E4F0900742E0FEA3E0FFC3EF9403EE6466
:1032C000809480400302336E7B017A077944C00307
:1032D000C002C0017BFF7A6979769007AB1252F188
:1032E000900742E0FEA3E0FFEF2401FFEE3400FE72
:1032F0009007AEEEF0A3EFF0900742E0FEA3E0FFF0
:1033000074852FF58274043EF583E0FF7E009007FC
:10331000B0EEF0A3EFF0D001D002D00312645B90C6
:10332000073F1252D1C003C002C0017B017A077966
:10333000449007AB1252F1D001D002D00312998F02
:1033400090073F1252D1C003C002C0017BFF7A68D0
:10335000797A9007AB1252F1D001D002D0031299C2
:103360008F900742E475F00112502C0232B29007A0
:103370003F1252D1C003C002C0017BFF7A6B79A219
:103380009007AB1252F1D001D002D00312998F9066
:103390000742E4F0A3E4F0900742E0FEA3E0FFC39D
:1033A000EF9403EE6480948040030234747B017ACE
:1033B000077944C003C002C0017BFF7A6B79B890E3
:1033C00007AB1252F1900742E0FEA3E0FFEF2401A9
:1033D000FFEE3400FE9007AEEEF0A3EFF090074250
:1033E000E0FEA3E0FFEF7802C333CE33CED8F9FF7F
:1033F00074882FF58274043EF58312527F90074241
:10340000E0FAA3E0FB74852BF58274043AF583E0BF
:10341000F9A80112521E9007B0125297D001D002A3
:10342000D00312645B90073F1252D1C003C002C0A8
:10343000017B017A0779449007AB1252F1D001D099
:1034400002D00312998F90073F1252D1C003C002DD
:10345000C0017BFF7A68797A9007AB1252F1D001F4
:10346000D002D00312998F900742E475F0011250F8
:103470002C02339790073F1252D1C003C002C00103
:103480007BFF7A6B79C29007AB1252F1D001D00268
:10349000D00312998F900742E4F0A3E4F090074222
:1034A000E0FEA3E0FFC3EF9403EE6480948040034A
:1034B0000235617B017A077944C003C002C0017BF9
:1034C000FF7A6B79DC9007AB1252F1900742E0FE75
:1034D000A3E0FFEF2401FFEE3400FE9007AEEEF014
:1034E000A3EFF0900742E0FEA3E0FFEF7802C333C2
:1034F000CE33CED8F9FF74942FF58274043EF58351
:1035000012527F9007B0125297D001D002D003120E
:10351000645B90073F1252D1C003C002C0017B011F
:103520007A0779449007AB1252F1D001D002D00350
:1035300012998F90073F1252D1C003C002C0017B85
:10354000FF7A68797A9007AB1252F1D001D002D09D
:103550000312998F900742E475F00112502C023447
:103560009D7B017A077944C003C002C0017BFF7ACA
:103570006B79E59007AB1252F1900537E0FF7E00C2
:103580009007AEEEF0A3EFF0D001D002D0031264AA
:103590005B90073F1252D1C003C002C0017B017A89
:1035A0000779449007AB1252F1D001D002D0031238
:1035B000998F90073F1252D1C003C002C0017BFF18
:1035C0007A68797A9007AB1252F1D001D002D00319
:1035D00012998F900742E4F0A3E4F0900742E0FED6
:1035E000A3E0FFC3EF9401EE6480948040030237B0
:1035F000187B017A077944C003C002C0017BFF7ABF
:103600006B79FF9007AB1252F1900742E0FEA3E006
:10361000FFEF2401FFEE3400FE9007AEEEF0A3EFC3
:10362000F0900742E0FEA3E0FFEF7802C333CE3311
:10363000CED8F9FF74382FF58274053EF583125207
:103640007F900742E0FAA3E0FB741C2BF58274051F
:103650003AF583E0F9A80112521E9007B012529772
:10366000D001D002D00312645B90073F1252D1C048
:1036700003C002C0017B017A0779449007AB125264
:10368000F1D001D002D00312998F7B017A077944DF
:10369000C003C002C0017BFF7A6C79259007AB1292
:1036A00052F1900742E0FEA3E0FFEF7802C333CE71
:1036B00033CED8F9FF74402FF58274053EF583129E
:1036C000527F900742E0FAA3E0FB741C2BF5827452
:1036D000053AF583E0F9A80112521E9007AE125286
:1036E00097D001D002D00312645B90073F1252D1F1
:1036F000C003C002C0017B017A0779449007AB1276
:1037000052F1D001D002D00312998F900742E47594
:10371000F00112502C0235DB7B017A077944C0039B
:10372000C002C0017BFF7A6C79329007AB1252F174
:1037300090054812527F9007AEEEF0A3EFF090058F
:103740004C12527F9007B0EEF0A3EFF0D001D00200
:10375000D00312645B90073F1252D1C003C002C075
:10376000017B017A0779449007AB1252F1D001D066
:1037700002D00312998F90073F1252D1C003C002AA
:10378000C0017BFF7A68797A9007AB1252F1D001C1
:10379000D002D00312998F7B017A077944C003C00D
:1037A00002C0017BFF7A6C794E9007AB1252F19008
:1037B0000550E0FEA3E0FF9007AEEEF0A3EFF0D0DF
:1037C00001D002D00312645B90073F1252D1C003B4
:1037D000C002C0017B017A0779449007AB1252F115
:1037E000D001D002D00312998F90073F1252D1C05E
:1037F00003C002C0017BFF7A68797A9007AB12524E
:10380000F1D001D002D00312998F7B017A0779445D
:10381000C003C002C0017BFF7A6C79609007AB12D5
:1038200052F1900552E0FEA3E0FF9007AEEEF0A348
:10383000EFF0900554E0FEA3E0FF9007B0EEF0A398
:10384000EFF0D001D002D00312645B90073F125218
:10385000D1C003C002C0017B017A0779449007AB55
:103860001252F1D001D002D00312998F90073F126B
:1038700052D1C003C002C0017BFF7A68797A9007F9
:10388000AB1252F1D001D002D00312998F7B017A92
:10389000077944C003C002C0017BFF7A6C79829033
:1038A00007AB1252F190055712527F9007AE125299
:1038B0009790055B12527F9007B2125297D001D0B9
:1038C00002D00312645B90073F1252D1C003C002C2
:1038D000C0017B017A0779449007AB1252F1D00105
:1038E000D002D00312998F90073F1252D1C003C06B
:1038F00002C0017BFF7A68797A9007AB1252F1D04F
:1039000001D002D00312998F900556E0FFEF60239B
:1039100090073F1252D1C003C002C0017BFF7A6CF6
:1039200079A69007AB1252F1D001D002D0031299C0
:103930008F802190073F1252D1C003C002C0017B8B
:10394000FF7A6C79C19007AB1252F1D001D002D04E
:103950000312998F7B017A077944C003C002C0012A
:103960007BFF7A6C79DB9007AB1252F190055FE038
:10397000FF7E009007AEEEF0A3EFF0D001D002D0B2
:103980000312645B90073F1252D1C003C002C00112
:103990007B017A0779449007AB1252F1D001D00233
:1039A000D00312998F90073F1252D1C003C002C0BA
:1039B000017BFF7A68797A9007AB1252F1D001D07F
:1039C00002D00312998F7B017A077944C003C002A9
:1039D000C0017BFF7A6C79ED9007AB1252F1900534
:1039E0008412528BC374419BFF744B9AFE744C99A2
:1039F000FDE498FC9007AE125297D001D002D0039C
:103A000012645B90073F1252D1C003C002C0017B19
:103A1000017A0779449007AB1252F1D001D002D05D
:103A20000312998F90073F1252D1C003C002C00108
:103A30007BFF7A68797A9007AB1252F1D001D002FD
:103A4000D00312998F227F007E007D007C008F269C
:103A50008E258D248C2390045212527F8F428E41EA
:103A60008D408C3F90045612527F8F468E458D4478
:103A70008C4390045A12527F8F4A8E498D488C474E
:103A800090045E12527F8F4E8E4D8D4C8C4B900465
:103A90006212527F8F528E518D508C4F900466125D
:103AA000527F8F568E558D548C5390046A12527FDC
:103AB0008F5A8E598D588C5790046E12527F8F5E9C
:103AC0008E5D8D5C8C5B90047212527F8F628E6172
:103AD0008D608C5F90047612527F8F668E658D6448
:103AE0008C6390047A12527F8F6A8E698D688C671E
:103AF00090047E12527F8F6E8E6D8D6C8C6B900455
:103B0000BBE0FEA3E0FFAB07AA06E4F9F890066766
:103B100012527F1250848F3A8E398D388C37900430
:103B2000BDE0FEA3E0FFAB07AA06E4F9F890066B40
:103B300012527F1250848F3E8E3D8D3C8C3B900400
:103B400083E0FFEF1252FA3B5A013C4D023CB803AE
:103B50003DBE043F3A05000040FF9004C9E0FFEF7E
:103B6000601F9004CAE0FFEF3395E0FEFDFC900675
:103B70005812528B1250928F368E358D348C338082
:103B80001D9004CAE0FFEF3395E0FEFDFC90065463
:103B900012528B1250928F368E358D348C339004A6
:103BA000CE12528BC3E5369BFFE5359AFEE534997C
:103BB000FDE53398FC9004B112528BC31251E450CE
:103BC0002C7F007E007D007C009004B112528BC3DC
:103BD0001251E460189004CE12527F9004B1125238
:103BE0008B1250779004CE1252970240FF9004CE71
:103BF00012528BC3E5369BFFE5359AFEE53499FDFD
:103C0000E53398FC9004B512528BD31251E4402C4A
:103C10007F007E007D007C009004B512528BC312A1
:103C200051E460189004CE12527F9004B512528B6A
:103C30001250779004CE1252970240FFAF36AE3545
:103C4000AD34AC339004CE1252970240FF7F007E19
:103C5000007D007C00AB3AAA39A938A837D31251AD
:103C6000E4404490054012527FAB3AAA39A938A8E3
:103C700037125092C004C005C006C0079004BBE0D4
:103C8000FEA3E0FFC3E49FFF74049EFEAB07AA06F9
:103C9000E4F9F8D007D006D005D00412A36D900443
:103CA000CE1252970240FF7F007E007D007C009084
:103CB00004CE1252970240FF7F007E007D007C0000
:103CC000AB3AAA39A938A837D31251E4406A900414
:103CD000CE12527FC004C005C006C00790055FE049
:103CE000FFE4FCFDFEAB3AAA39A938A8371250927E
:103CF0007801125232C004C005C006C0079004BB50
:103D0000E0FEA3E0FFC3E49FFF74049EFEAB07AA9E
:103D100006E4F9F8D007D006D005D00412A36DA8A8
:103D200004A905AA06AB07D007D006D005D0041217
:103D300050779004CE1252977F007E007D007C0069
:103D4000AB3EAA3DA93CA83BD31251E4500302402C
:103D5000FF9004CE12527FC004C005C006C0079079
:103D6000055FE0FFE4FCFDFEAB3EAA3DA93CA83B9D
:103D70001250927801125232C004C005C006C0072A
:103D80009004BDE0FEA3E0FFC3E49FFF74049EFE29
:103D9000AB07AA06E4F9F8D007D006D005D0041284
:103DA000A36DA804A905AA06AB07D007D006D005C5
:103DB000D0041250849004CE1252970240FF900714
:103DC00008E0FFEF1252FA3DD4003E15013EA60274
:103DD000000040FF7F007E007D007C00AB3AAA39E6
:103DE000A938A837D31251E440099007087401F0AC
:103DF0000240FF7F007E007D007C00AB3EAA3DA913
:103E00003CA83BD31251E450030240FF90070874D2
:103E100002F00240FF7F007E007D007C00AB3AAAEA
:103E200039A938A837C31251E45008900708E4F0C4
:103E30000240FF9004CE12527FC004C005C006C0ED
:103E40000790055FE0FFE4FCFDFEAB3AAA39A93814
:103E5000A8371250927B027A0079007800125092B3
:103E6000C004C005C006C0079004BBE0FEA3E0FF8D
:103E7000C3E49FFF74049EFEAB07AA06E4F9F8D0E2
:103E800007D006D005D00412A36DA804A905AA0680
:103E9000AB07D007D006D005D0041250779004CEDF
:103EA0001252970240FF7F007E007D007C00AB3EF7
:103EB000AA3DA93CA83BC31251E45008900708E46E
:103EC000F00240FF9004CE12527FC004C005C0062D
:103ED000C00790055FE0FFE4FCFDFEAB3EAA3DA9F4
:103EE0003CA83B1250927B027A0079007800125075
:103EF00092C004C005C006C0079004BDE0FEA3E068
:103F0000FFC3E49FFF74049EFEAB07AA06E4F9F822
:103F1000D007D006D005D00412A36DA804A905AA25
:103F200006AB07D007D006D005D004125084900409
:103F3000CE1252970240FF0240FF900708E0FFEFC9
:103F40001252FA3F50003F9101404B02000040FFE7
:103F50007F007E007D007C00AB3AAA39A938A837E3
:103F6000D31251E440099007087401F00240FF7F2A
:103F7000007E007D007C00AB3EAA3DA93CA83BD35F
:103F80001251E450030240FF9007087402F002400F
:103F9000FF7F007E007D007C00AB3AAA39A938A8DB
:103FA00037C31251E4501E7F007E007D007C00ABC1
:103FB0003EAA3DA93CA83BC31251E4500890070813
:103FC000E4F00240FF7F007E007D007C00AB3AAA57
:103FD00039A938A837D31251E450030240FF9004A6
:103FE000CE12527FC004C005C006C00790055FE036
:103FF000FFE4FCFDFEAB3AAA39A938A8371250926B
:104000007802125232C004C005C006C0079004BB3B
:10401000E0FEA3E0FFC3E49FFF74049EFEAB07AA8B
:1040200006E4F9F8D007D006D005D00412A36DA895
:1040300004A905AA06AB07D007D006D005D0041204
:1040400050779004CE1252970240FF7F007E007D91
:10405000007C00AB3AAA39A938A837C31251E45002
:104060001E7F007E007D007C00AB3EAA3DA93CA8DF
:104070003BC31251E45008900708E4F00240FF7F70
:10408000007E007D007C00AB3EAA3DA93CA83BD34E
:104090001251E4406A9004CE12527FC004C005C0A1
:1040A00006C0079004C8E0FFE4FCFDFEAB3EAA3D5D
:1040B000A93CA83B1250927802125232C004C005AB
:1040C000C006C0079004BDE0FEA3E0FFC3E49FFF6D
:1040D00074049EFEAB07AA06E4F9F8D007D006D018
:1040E00005D00412A36DA804A905AA06AB07D00742
:1040F000D006D005D0041250849004CE125297906E
:1041000004A0E0FFEF603C9004A112527F9004CE27
:1041100012528BC31251E4500C9004A112527F90A2
:1041200004CE1252979004A912527F9004CE1252DC
:104130008BD31251E4400C9004A912527F9004CE0C
:10414000125297900484E0FFEF1252FA454900485A
:10415000F80146C402415C03000049709006501209
:10416000528B9004CE12527F1250848F2A8E298D4A
:10417000288C279006F812527FEF252AFFEE35296A
:10418000FEED3528FDEC3527FC9006F81252977F9E
:10419000807EF07DFA7C029006F812528BD3125189
:1041A000E440107F807EF07DFA7C029006F8125287
:1041B0009780227F807E0F7D057CFD9006F812524D
:1041C0008BC31251E4500E7F807E0F7D057CFD90E5
:1041D00006F81252977F007E007D007C008F328EA1
:1041E000318D308C2F7F007E007D007C00AB5AAA81
:1041F00059A958A857C31251E46030AF2AAE29AD6F
:1042000028AC27AB5AAA59A958A85712509278102F
:1042100012521EE5322FFFE5313EFEE5303DFDE551
:104220002F3CFC8F328E318D308C2F7F007E007DB5
:10423000007C00AB5EAA5DA95CA85BC31251E46080
:10424000339006F812527F780612521EAB5EAA5DBA
:10425000A95CA85B125092780A12521EE5322FFF19
:10426000E5313EFEE5303DFDE52F3CFC8F328E31E1
:104270008D308C2F7F007E007D007C00AB62AA61B8
:10428000A960A85FC31251E4603F90070012528BEF
:10429000C3E52A9BFFE5299AFEE52899FDE52798C5
:1042A000FCAB62AA61A960A85F125092781012520A
:1042B0001EE5322FFFE5313EFEE5303DFDE52F3CAA
:1042C000FC8F328E318D308C2FAF2AAE29AD28ACC9
:1042D000279007001252977F007E007D007C00AB84
:1042E00032AA31A930A82FC31251E44004D20E8063
:1042F00002C20E9004B9E0FEA3E0FFEE3395E0FDAC
:10430000FCAB32AA31A930A82FD31251E440189047
:1043100004B9E0FEA3E0FFEE3395E0FDFC8F328EA2
:10432000318D308C2F80409004B9E0FEA3E0FFC3B4
:10433000E49FFFE49EFEEE3395E0FDFCAB32AA3134
:10434000A930A82FC31251E4501D9004B9E0FEA378
:10435000E0FFC3E49FFFE49EFEEE3395E0FDFC8F9B
:10436000328E318D308C2FAF32AE31AD30AC2F90DC
:10437000066012529790065C12528BC3E5329BFF87
:10438000E5319AFEE53099FDE52F98FC8F2E8E2DB4
:104390008D2C8C2B9006FC12527FEF252EFFEE35D4
:1043A0002DFEED352CFDEC352BFC9006FC125297C2
:1043B0007FA07E867D017C009006FC12528BD3127A
:1043C00051E440107FA07E867D017C009006FC12A7
:1043D000529780227F607E797DFE7CFF9006FC12E2
:1043E000528BC31251E4500E7F607E797DFE7CFFBC
:1043F0009006FC1252977F007E007D007C008F2685
:104400008E258D248C237F007E007D007C00AB6692
:10441000AA65A964A863C31251E46030AF2EAE2D23
:10442000AD2CAC2BAB66AA65A964A8631250927838
:104430001012521EE5262FFFE5253EFEE5243DFD28
:10444000E5233CFC8F268E258D248C237F007E0067
:104450007D007C00AB6AAA69A968A867C31251E411
:1044600060339006FC12527F780612521EAB6AAA85
:1044700069A968A867125092780A12521EE5262F81
:10448000FFE5253EFEE5243DFDE5233CFC8F268E21
:10449000258D248C237F007E007D007C00AB6EAADE
:1044A0006DA96CA86BC31251E4603F9007041252CF
:1044B0008BC3E52E9BFFE52D9AFEE52C99FDE52BA0
:1044C00098FCAB6EAA6DA96CA86B12509278101272
:1044D000521EE5262FFFE5253EFEE5243DFDE523A2
:1044E0003CFC8F268E258D248C237F9C7EFF7DFFB8
:1044F0007CFFAB26AA25A924A823C31251E450129D
:104500007F9C7EFF7DFF7CFF8F268E258D248C2354
:1045100080267F647E007D007C00AB26AA25A9242E
:10452000A823D31251E440107F647E007D007C00FC
:104530008F268E258D248C23AF2EAE2DAD2CAC2B4B
:1045400090070412529702497090065012528B90B5
:1045500004CE12527F1250848F2A8E298D288C27E8
:104560009006F812527FEF252AFFEE3529FEED3531
:1045700028FDEC3527FC9006F81252977FE87E0361
:104580007D007C009006F812528BD31251E440104B
:104590007FE87E037D007C009006F812529780220F
:1045A0007F187EFC7DFF7CFF9006F812528BC312B1
:1045B00051E4500E7F187EFC7DFF7CFF9006F812C0
:1045C00052977F007E007D007C00AB42AA41A9404B
:1045D000A83FC31251E46020AF2AAE29AD28AC2712
:1045E000AB42AA41A940A83F125092781012521E25
:1045F0008F268E258D248C237F007E007D007C00FD
:10460000AB46AA45A944A843C31251E460339006BF
:10461000F812527FAB46AA45A944A843125092789B
:104620000612521E780A12521EE5262FFFE5253E7D
:10463000FEE5243DFDE5233CFC8F268E258D248C54
:10464000237F007E007D007C00AB4AAA49A948A8D0
:1046500047C31251E4603F90070012528BC3E52A12
:104660009BFFE5299AFEE52899FDE52798FCAB4AD2
:10467000AA49A948A847125092781012521EE5265E
:104680002FFFE5253EFEE5243DFDE5233CFC8F267E
:104690008E258D248C23AF2AAE29AD28AC27900718
:1046A000001252977F007E007D007C00AB26AA2579
:1046B000A924A823D31251E44005D20E024970C2A6
:1046C0000E0249709004E6E0FFEF7003024970208B
:1046D0000D030249709004D612527F8F328E318DB5
:1046E000308C2F9004B9E0FEA3E0FFEE3395E0FD9F
:1046F000FCAB32AA31A930A82FD31251E440189054
:1047000004B9E0FEA3E0FFEE3395E0FDFC8F328EAE
:10471000318D308C2F80409004B9E0FEA3E0FFC3C0
:10472000E49FFFE49EFEEE3395E0FDFCAB32AA3140
:10473000A930A82FC31251E4501D9004B9E0FEA384
:10474000E0FFC3E49FFFE49EFEEE3395E0FDFC8FA7
:10475000328E318D308C2F90065C12528BC3E53235
:104760009BFFE5319AFEE53099FDE52F98FC8F2EF1
:104770008E2D8D2C8C2B9006FC12527FEF252EFF58
:10478000EE352DFEED352CFDEC352BFC9006FC12A4
:1047900052977FA07E867D017C009006FC12528B92
:1047A000D31251E440107FA07E867D017C009006EC
:1047B000FC12529780227F607E797DFE7CFF9006FE
:1047C000FC12528BC31251E4500E7F607E797DFE45
:1047D0007CFF9006FC1252977F007E007D007C00DB
:1047E0008F268E258D248C237F007E007D007C000B
:1047F000AB4EAA4DA94CA84BC31251E46030AF2E6A
:10480000AE2DAD2CAC2BAB4EAA4DA94CA84B1250E3
:1048100092781012521EE5262FFFE5253EFEE52474
:104820003DFDE5233CFC8F268E258D248C237F00C7
:104830007E007D007C00AB52AA51A950A84FC31244
:1048400051E460339006FC12527F780612521EAB80
:1048500052AA51A950A84F125092780A12521EE53E
:10486000262FFFE5253EFEE5243DFDE5233CFC8F9C
:10487000268E258D248C237F007E007D007C00AB5E
:1048800056AA55A954A853C31251E4603F90070497
:1048900012528BC3E52E9BFFE52D9AFEE52C99FD68
:1048A000E52B98FCAB56AA55A954A8531250927800
:1048B0001012521EE5262FFFE5253EFEE5243DFDA4
:1048C000E5233CFC8F268E258D248C23AF2EAE2D28
:1048D000AD2CAC2B9007041252977F007E007D0018
:1048E0007C00AB26AA25A924A823C31251E44004C6
:1048F000D20E807CC20E80789004DE12527F8F260A
:104900008E258D248C237F007E007D007C00AB26CD
:10491000AA25A924A823D31251E44004D20E800270
:10492000C20E7F007E007D007C00AB26AA25A92454
:10493000A823C31251E450127F007E007D007C004A
:104940008F268E258D248C2380267F647E007D001B
:104950007C00AB26AA25A924A823D31251E4401039
:104960007F647E007D007C008F268E258D248C2325
:104970007F647E007D007C00AB26AA25A924A823A5
:10498000D31251E440107F647E007D007C008F26AE
:104990008E258D248C237F9C7EFF7DFF7CFFAB26A4
:1049A000AA25A924A823C31251E450107F9C7EFF9E
:1049B0007DFF7CFF8F268E258D248C23900484E040
:1049C000FFEF64016039AF26AE25AD24AC23780A31
:1049D0001252327B647A007900780012A36DA80429
:1049E000A905AA06AB0790066FE0FFE4FCFDFE12E6
:1049F0005092780A12521E8F268E258D248C237F8A
:104A0000007E007D007C00AB26AA25A924A823C334
:104A10001251E440047F0180027FFF90064FEFF0C7
:104A2000300E077F0112AD5B80057F0012AD5BAEDB
:104A300025AF2612AF1712AD2B22024DFBE8648082
:104A4000F8E933E83360110460F0ED33EC337009BA
:104A5000E8FCE9FDEAFEEBFF220460DED3EB9FEA0F
:104A60009EE99DE8C2E78CF0C2F795F0400CE8CCD7
:104A7000F8E9CDF9EACEFAEBCFFB124DC685D0F0BE
:104A80005804700320D5B3E80470075002B2D50271
:104A90004E0592D5EC0460F7E4CCC0E0C398F86012
:104AA0003B94186008400DD0E0FB024DDDE4FBFABA
:104AB000C9FC8028E830E406E4C9FBE4CAFCE8301D
:104AC000E305E4C9CACBFCE854076010F8C3E91356
:104AD000F9EA13FAEB13FBEC13FCD8F130F52FC312
:104AE000E49CFCEF9BFFEE9AFEED99FDD0E0FBEF1E
:104AF0004E4D4C701222DB03024E02EC2CFCEF33C5
:104B0000FFEE33FEED33FDED30E7EB024DDDEF2B35
:104B1000FFEE3AFEED39FDD0E0FB50130BBB000376
:104B2000024E05ED13FDEE13FEEF13FFEC13FC0236
:104B30004DDDEC4D6011E8497017ED33EC33046046
:104B40000DE4FCFFFEFD22E933E8330470F8024D6A
:104B5000FB124DC658046009E4CC2481500628504D
:104B600009024E05284003024E02C0E0EB4A7044A1
:104B7000B98006D0E0FB024DF1EF4E701CBD8008FD
:104B8000EBFFEAFEE9FD80EBE98DF0A4FEE5F00223
:104B90004C1BE9CDF9EAFEEBFFEF89F0A4FCE5F050
:104BA000CE89F0A42EFFE435F0CD89F0A42DFEE4EB
:104BB00035F08067EF4E7005BD80D780C3EF8BF076
:104BC000A4ACF0EE8BF0A42CFCE435F0F8EF8AF006
:104BD000A42CE5F038FCE433CB8DF0A42CFCE5F0FC
:104BE0003BF8EE8AF0A42CFCE5F038F8E433CF89EA
:104BF000F0A42CFCE5F038CF3400CE89F0A42FFFD0
:104C0000E5F03EFEE433C98DF0A42EFEE5F039CD8B
:104C10008AF0A42FFFE5F03EFEE43DFD33D0E0FB3B
:104C200050070BBB000F024E05EC2CFCEF33FFEEE0
:104C300033FEED33FD024DDD024E05EC5D046005F3
:104C4000E859047003024DFB124DC6580460F6EC9F
:104C50004860F2EC7004FDFEFF22C860DB2481C8CE
:104C60005009C39860025006024E029850CAF5825D
:104C7000E9294B4A7005AB82024DF175F0007C1AB0
:104C80007880C3EF9BEE9AED99400DC3EF9BFFEE4A
:104C90009AFEED99FDE842F0DC23ACF0D0E0FFD0C5
:104CA000E0FED0E0FDAB8220E7101BEB60BAEC2CFD
:104CB000FCEF33FFEE33FEED33FD024DDDE803F88C
:104CC00030E705C0F075F000EF2FFFEE33FEED3357
:104CD000FD40B830E7C280AA74F8CC6480CCC864C8
:104CE00080C8F58204604FC3EB9FF5F0EA9E42F066
:104CF000E99D42F0E89C45F0603C501DE5825FFF75
:104D0000E582D313CB5BCBF42B5582FB50280ABA38
:104D1000002409B9002008801DE5825BFBE582D3F1
:104D200013CF5FCFF4C3132F5582FF50090EBE007F
:104D3000050DBD00010CC3EB9FF5F0EA9E42F0E9C2
:104D40009D42F0E89C45F06007CC4820E701B3ECB9
:104D50002275F020800E75F010800575F0087D003A
:104D60007E007F003392D530D5031251D6EC33400C
:104D700010EF33FFEE33FEED33FDEC33FCD5F0EDF9
:104D800022E5F0247EA2D513CC92E7CDCEFF22ED12
:104D9000D2E7CD33EC3392D524814006E4FFFEFD0B
:104DA000FC22FCE4CFCECDCC24E0501174FF80ED8A
:104DB000C3CC13CCCD13CDCE13CECF13CF0470F014
:104DC00030D5DE0251D6E9D2E7C933E833F892D5BF
:104DD000EDD2E7CD33EC33FC5002B2D522EC30E714
:104DE000100FBF000C0EBE00080DBD00040BEB60E1
:104DF00014A2D5EB13FCED92E7FD2274FFFCFDFE3F
:104E0000FF22E480F8A2D574FF13FC7D80E480EFDC
:104E1000F920E73624F950037907E4F42402FBE58E
:104E200082158270021583DBF6E024FB501BE960DB
:104E300014E4F0E582158270021583E004F0B40AF0
:104E400008E4F0D9EE7401F00A22C2D522ED33EC69
:104E50003392D5FA602AB4FF33EDC2E77BFF6006D8
:104E60007A4E7972E4227A4E797B20D5047A4E7993
:104E700076224E614E002B494E46002D494E46008B
:104E8000E47A08F0A3DAFC7B00740722C083C082B6
:104E9000ECC0E0EDC0E0EEC0E0EFC0E0EA75F0107D
:104EA000A4CAABF075F04DA42BFBE435F0FCEA246A
:104EB00010FAEB34C5FBEC34D9FCEDC2E7FF75F01A
:104EC00056A4F42411C5F0F434C58FF0A42AE5F0FB
:104ED0003BE43CF020E714124F82D0E0FFD0E0FE2C
:104EE000D0E0FDD0E0FC124C3B8014F404124F8261
:104EF000D0E0FFD0E0FED0E0FDD0E0FC124B32D09D
:104F000082D083E0FAEDD2E7CD33EC332482FBE4A8
:104F1000C3CF33CFCE33CECD33CD33DBF37B077569
:104F2000F00A846004F0A31B0AE5F0F0A38FF0748C
:104F30000AA4FFACF08EF0740AA42CFEACF0500171
:104F40000C8DF0740AA42CFDE435F0F0A3DBDE74C4
:104F500007223F8000004120000042C80000447A40
:104F60000000461C400047C35000497424004B1801
:104F700096804CBEBC205A0E1BCA6753C21C749D3F
:104F8000C5AEFB60065407601C2323124FB0EB54E0
:104F9000386009124F9C124FAB124B32ECF8EDF90E
:104FA000EEFAEFCB22EB124FAB80F1543803241C06
:104FB000904F52FE93FC0EEE93FD0EEE930ECE93A9
:104FC000FF22BB010689828A83E0225002E722BBCE
:104FD000FE02E32289828A83E49322BB010CE582EC
:104FE00029F582E5833AF583E0225006E92582F827
:104FF000E622BBFE06E92582F8E222E58229F58257
:10500000E5833AF583E49322BB010689828A83F023
:10501000225002F722BBFE01F322EF8DF0A4A8F08C
:10502000CF8CF0A428CE8DF0A42EFE22C5F0F8A3DC
:10503000E028F0C5F0F8E582158270021583E038AB
:10504000F022A3F8E0C5F025F0F0E58215827002A9
:105050001583E0C838F0E822BB010A89828A83F010
:10506000E5F0A3F0225006F709A7F01922BBFE06CF
:10507000F3E5F009F31922EF2BFFEE3AFEED39FDCF
:10508000EC38FC22C3EF9BFFEE9AFEED99FDEC9805
:10509000FC22E88FF0A4CC8BF0A42CFCE98EF0A4C9
:1050A0002CFC8AF0EDA42CFCEA8EF0A4CDA8F08BA9
:1050B000F0A42DCC3825F0FDE98FF0A42CCD35F0EF
:1050C000FCEB8EF0A4FEA9F0EB8FF0A4CFC5F02E80
:1050D000CD39FEE43CFCEAA42DCE35F0FDE43CFCE9
:1050E0002275F008758200EF2FFFEE33FECD33CD31
:1050F000CC33CCC58233C5829BED9AEC99E582987E
:10510000400CF582EE9BFEED9AFDEC99FC0FD5F07C
:10511000D6E4CEFBE4CDFAE4CCF9A88222B800C1F3
:10512000B90059BA002DEC8BF084CFCECDFCE5F060
:10513000CBF97818EF2FFFEE33FEED33FDEC33FCA7
:10514000EB33FB10D703994004EB99FB0FD8E5E450
:10515000F9FA227818EF2FFFEE33FEED33FDEC3332
:10516000FCC933C910D7059BE99A4007EC9BFCE9C1
:105170009AF90FD8E0E4C9FAE4CCFB2275F010EFFD
:105180002FFFEE33FEED33FDCC33CCC833C810D740
:10519000079BEC9AE899400AED9BFDEC9AFCE89994
:1051A000F80FD5F0DAE4CDFBE4CCFAE4C8F922EF4D
:1051B0005BFFEE5AFEED59FDEC58FC22EF4BFFEE83
:1051C0004AFEED49FDEC48FC22CFF4CFCEF4CECD23
:1051D000F4CDCCF4CC22C3E49FFFE49EFEE49DFD1D
:1051E000E49CFC22EB9FF5F0EA9E42F0E99D42F040
:1051F000EC6480C864809845F022EB9FF5F0EA9E4D
:1052000042F0E99D42F0E89C45F022E8600FECC3D3
:1052100013FCED13FDEE13FEEF13FFD8F122E8604F
:1052200010ECA2E713FCED13FDEE13FEEF13FFD815
:10523000F022E8600FEFC333FFEE33FEED33FDECF9
:1052400033FCD8F122BB010789828A8302527F5046
:1052500005E9F8025555BBFE05E9F802556189825A
:105260008A8302556DBB010789828A830252975057
:1052700005E9F802557DBBFE05E9F802558922E0F3
:10528000FCA3E0FDA3E0FEA3E0FF22E0F8A3E0F929
:10529000A3E0FAA3E0FB22ECF0A3EDF0A3EEF0A371
:1052A000EFF022A42582F582E5F03583F58322E62E
:1052B000FB08E6FA08E6F922FAE6FB0808E625F01C
:1052C000F9F618E63AFAF622EBF608EAF608E9F6F5
:1052D00022E0FBA3E0FAA3E0F922F8E0FBA3A3E0BD
:1052E000F925F0F0E582158270021583E0FA38F0B6
:1052F00022EBF0A3EAF0A3E9F022D083D082F8E415
:10530000937012740193700DA3A393F8740193F535
:10531000828883E4737402936860EFA3A3A380DFA1
:10532000D083D082F8E4937012740193700DA3A31C
:1053300093F8740193F5828883E473740293B5F053
:10534000067403936860E9A3A3A3A380D8E511259D
:1053500082F582E5103583F583B51004858211222C
:1053600010AF06858211F51022858211F510D2AF9B
:1053700022EC8EF0A4CCC5F0CCCDF8EFA4CEC5F0D5
:105380002DFDE43CFCE8A42EC8C5F03DFDE43CFC4A
:10539000EFA4FFE5F028FEE43DFDE43CFC22E70934
:1053A000F608DFFA8046E709F208DFFA803E8882D5
:1053B0008C83E709F0A3DFFA8032E309F608DFFA0D
:1053C000806EE309F208DFFA806688828C83E30945
:1053D000F0A3DFFA805A89828A83E0A3F608DFFA15
:1053E000804E89828A83E0A3F208DFFA804280D26D
:1053F00080FA80C680D4805580F28029801080A6F3
:1054000080EA809A80A880DA80E280CA8029888435
:105410008C8589828A83E493A30586F0A30586DFC1
:10542000F5DEF3800B89828A83E493A3F608DFF923
:10543000ECFAA9F0EDFB2288848C8589828A83E0CE
:10544000A30586F0A30586DFF6DEF480E389828A71
:1054500083E493A3F208DFF980D688F0EF60010EB1
:105460004E60CD88F0ED2402B4040050C3F582EB09
:105470002402B4040050B923234582239053EE73D1
:10548000E709F60870FA8046E709F20870FA803EEC
:1054900088828C83E709F0A370FA8074E309F60828
:1054A00070FA806CE309F20870FA806488828C8359
:1054B000E309F0A370FA805889828A83E0A3F60892
:1054C00070FA804C89828A83E0A3F20870FA8040E7
:1054D00080D280FA80C680D4805180F280278010EC
:1054E00080A680EA809A80A880DA80E280CA80273D
:1054F00088848C8589828A83E493A30586F0A3053A
:105500008670F5800B89828A83E493A3F60870F98C
:10551000ECFAA9F0EDFB2288848C8589828A83E0ED
:10552000A30586F0A3058670F680E589828A83E468
:1055300093A3F20870F980D888F0ED2402B4040037
:1055400050CEF582EB2402B4040050C423234582DC
:10555000239054D073E6FC08E6FD08E6FE08E6FF5B
:1055600022E2FC08E2FD08E2FE08E2FF22E493FCEE
:10557000740193FD740293FE740393FF22ECF6080A
:10558000EDF608EEF608EFF622ECF208EDF208EE82
:10559000F208EFF22290073DEEF0A3EFF090073F04
:1055A0007402F090073DE0FEA3E0FFEF8EF012538F
:1055B0002056090000561F00015793000257A9000A
:1055C0000357BF0004581B00055881000658D1003E
:1055D0000758E7000859630009597B000A57D500AE
:1055E0000B5993000C59AF000D59C5000E59F0002E
:1055F0000F5A13001056D900125A2800135A3D00B2
:10560000145A52001500005A65900451E0FF9007AB
:1056100040EFF0900753E4F0A37403F0025A659052
:105620000484E0FFEF6403605390045212527FEC55
:10563000124D517B007A0079807847124C3B9007DD
:105640004012529790045612527FEC124D517B003B
:105650007A0079807847124C3B9007441252979019
:10566000045A12527FEC124D517B007A00798078F7
:1056700047124C3B900748125297805190046A128F
:10568000527FEC124D517B007A0079807847124CA2
:105690003B90074012529790046E12527FEC124DCD
:1056A000517B007A0079807847124C3B9007441276
:1056B000529790047212527FEC124D517B007A0087
:1056C00079807847124C3B900748125297900753C5
:1056D000E4F0A3740EF0025A65900484E0FFEF64D6
:1056E00003605390045E12527FEC124D517B007A9E
:1056F0000079807847124C3B9007401252979004F3
:105700006212527FEC124D517B007A00798078470B
:10571000124C3B90074412529790046612527FEC51
:10572000124D517B007A0079807847124C3B9007EC
:1057300048125297805190047612527FEC124D51CC
:105740007B007A0079807847124C3B9007401252D8
:105750009790047A12527FEC124D517B007A0079B7
:10576000807847124C3B90074412529790047E1267
:10577000527FEC124D517B007A0079807847124CB1
:105780003B900748125297900753E4F0A3740EF031
:10579000025A65900482E0FF900740EFF0900753B3
:1057A000E4F0A37403F0025A65900483E0FF9007CD
:1057B00040EFF0900753E4F0A37403F0025A6590B1
:1057C0000484E0FF900740EFF0900753E4F0A374E7
:1057D00003F0025A65900755E4F0900755E0FFEF9B
:1057E000C39403502A900755E0FF74852FF582E497
:1057F0003404F583E0FF900755E0FE74402EF582F7
:10580000E43407F583EFF0900755E004F080CB9087
:105810000753E4F0A37405F0025A65900755E4F0CD
:10582000900755E0FFEFC39403504A900755E0FFFF
:10583000EF25E025E02488F582E43404F583125254
:105840007F900755E0FB74852BF582E43404F583E3
:10585000E0F9A80112521E900755E0FDED25E02465
:1058600040F582E43407F583EEF0A3EFF09007559E
:10587000E004F080AB900753E4F0A37408F0025A00
:1058800065900755E4F0900755E0FFEFC39403508F
:1058900034900755E0FFEF25E025E02494F582E4FD
:1058A0003404F58312527F900755E0FBEB25E02589
:1058B000E02440F582E43407F583125297900755AF
:1058C000E004F080C1900753E4F0A3740EF0025A94
:1058D000659004A0E0FF900740EFF0900753E4F0DC
:1058E000A37403F0025A65900755E4F0900755E061
:1058F000FFEFC394025060900755E0FFEF25E025CD
:10590000E024A1F582E43404F58312527F90075518
:10591000E0FBEB75F008A42440F582E43407F5833E
:10592000125297900755E0FFEF25E025E024A9F5F6
:1059300082E43404F58312527F900755E0FBEB7547
:10594000F008A42444F582E43407F58312529790BA
:105950000755E004F08095900753E4F0A37412F02B
:10596000025A659004B112527F90074012529790EC
:105970000753E4F0A37406F0025A659004B512527E
:105980007F900740125297900753E4F0A37406F0FB
:10599000025A659004B9E0FEA3E0FF900740EEF0E4
:1059A000A3EFF0900753E4F0A37404F0025A65905B
:1059B00004BFE0FF900740EFF0900753E4F0A374BA
:1059C00003F0025A659004BBE0FEA3E0FF9007409D
:1059D000EEF0A3EFF09004BDE0FEA3E0FF900742DD
:1059E000EEF0A3EFF0900753E4F0A37406F0807597
:1059F0009004C012527F9007401252979004C41234
:105A0000527F900744125297900753E4F0A3740A10
:105A1000F080529004C8E0FF900740EFF0900753E9
:105A2000E4F0A37403F0803D9004C9E0FF900740C8
:105A3000EFF0900753E4F0A37403F080289004CAB9
:105A4000E0FF900740EFF0900753E4F0A37403F0F9
:105A500080139004CBE0FF900740EFF0900753E4F1
:105A6000F0A37403F07B017A07793F900753E0FEBF
:105A7000A3E0FFEF14FD12A575900753E0FCA3E02F
:105A8000FD743E2DF58274073CF583EFF07B017ABF
:105A900007793F900753E0FCA3E0FD1292E92290C2
:105AA000073DEEF0A3EFF090073DE0FEA3E0FFEF2F
:105AB0008EF01253205B0D00005B1A00015C720037
:105AC000025C7F00035C8C00045CC600055D440042
:105AD000065D7B00075D8800085E4800095E7A006D
:105AE0000A5C99000B5EAC000C5EBF000D5ECB0043
:105AF0000E5EED000F5F0700105BC600125F130023
:105B0000135F3400145F40001500005F4A9005A841
:105B1000E0FF9004E8EFF0025F4A900484E0FFEFBA
:105B2000640360517F007E007D807C479005A81251
:105B3000528B124B32124D8F9004E91252977F0014
:105B40007E007D807C479005AC12528B124B321246
:105B50004D8F9004ED1252977F007E007D807C4730
:105B60009005B012528B124B32124D8F9004F112ED
:105B70005297025F4A7F007E007D807C479005A897
:105B800012528B124B32124D8F9005011252977F99
:105B9000007E007D807C479005AC12528B124B3208
:105BA000124D8F9005051252977F007E007D807CFC
:105BB000479005B012528B124B32124D8F9005094F
:105BC000125297025F4A900484E0FFEF6403605131
:105BD0007F007E007D807C479005A812528B124B7F
:105BE00032124D8F9004F51252977F007E007D8017
:105BF0007C479005AC12528B124B32124D8F9004A1
:105C0000F91252977F007E007D807C479005B0128C
:105C1000528B124B32124D8F9004FD125297025F3D
:105C20004A7F007E007D807C479005A812528B122F
:105C30004B32124D8F90050D1252977F007E007DE2
:105C4000807C479005AC12528B124B32124D8F90D4
:105C500005111252977F007E007D807C479005B031
:105C600012528B124B32124D8F9005151252970221
:105C70005F4A9005A8E0FF900519EFF0025F4A9097
:105C800005A8E0FF90051AEFF0025F4A9005A8E032
:105C9000FF90051BEFF0025F4A752800E528C394CA
:105CA000034003025F4AAF2874A82FF582E434054D
:105CB000F583E0FFAE28741C2EF582E43405F583ED
:105CC000EFF0052880D6752800E528C39403506FAF
:105CD000AF28EF25E024A8F582E43405F583E0FE43
:105CE000A3E0FFEE3395E0FDFCAB28EB25E025E0DB
:105CF000241FF582E43405F583125297AF28EF256F
:105D0000E025E0241FF582E43405F583C083C082DA
:105D100012527FAB28741C2BF582E43405F583E026
:105D2000F9A801125232D082D083125297AF287450
:105D3000642FF582E43406F583E4F00528808AD2E6
:105D40000A025F4A752800E528C394034003025FF6
:105D50004AAF28EF25E025E024A8F582E43405F5D4
:105D60008312527FAB28EB25E025E0242BF582E45B
:105D70003405F583125297052880CC9005A8E0FFE2
:105D8000900537EFF0025F4A752800E528C39402BA
:105D90004003025F4AAF28EF75F008A424A8F582FB
:105DA000E43405F58312527FAB28EB25E025E0248F
:105DB00038F582E43405F583125297AF28EF75F079
:105DC00008A424ACF582E43405F58312527FAB2895
:105DD000EB25E025E02440F582E43405F5831252FA
:105DE00097AF28EF25E025E02438F582E43405F567
:105DF00083C083C08212527FAB28741C2BF582E4CF
:105E00003405F583E0F9A801125232D082D0831212
:105E10005297AF28EF25E025E02440F582E43405D1
:105E2000F583C083C08212527FAB28741C2BF5828D
:105E3000E43405F583E0F9A801125232D082D08310
:105E40001252970528025D8B9005A812527F900789
:105E50003F1252977F007E007D007C0090073F122A
:105E6000528BC31251E45003025F4A90073F125213
:105E70007F900548125297025F4A9005A812527F00
:105E800090073F1252977F007E007D007C009007B4
:105E90003F12528BD31251E44003025F4A90073FF6
:105EA00012527F90054C125297025F4A9005A8E06B
:105EB000FEA3E0FF900550EEF0A3EFF0025F4A90E2
:105EC00005A8E0FF900556EFF0807F9005A8E0FE62
:105ED000A3E0FF900552EEF0A3EFF09005AAE0FEDC
:105EE000A3E0FF900554EEF0A3EFF0805D9005A8CD
:105EF00012527F9005571252979005AC12527F9024
:105F0000055B12529780439005A8E0FF90055FEF74
:105F1000F080379005A8E0FF900743EFF09007432B
:105F2000E0FFEF60089005607401F0801D9005604F
:105F3000E4F080169005A8E0FF900561EFF0800A7C
:105F40009005A8E0FF900562EFF07F0112A65222B3
:105F500012AFD8EF700A300CF7C20C12833980F000
:105F6000900647E0FEA3E0FFEF249AFFEE34F9FE2F
:105F7000EE3395E0FDFC7BA07A07790078001250A3
:105F800092780712521E900588125297300C05C263
:105F90000C1283397F007E007D007C009005881202
:105FA000528BD31251E45003026377D20D900562F5
:105FB000E0FFEF6003129B9C900649E0FEA3E0FF28
:105FC000EF249AFFEE34F9FEEE3395E0FDFC7BAB57
:105FD0007A6479007800125092780D12521E900661
:105FE0004FE0FDED3395E0FC12501AEE3395E0FDE5
:105FF000FC1298B990065C125297300C05C20C1234
:106000008339900556E0FFEF7006750E00750F009E
:10601000E50E1252FA60250060A00160BC0260F635
:10602000030000618790064BE0FEA3E0FFEE33958E
:10603000E0FDFC129ACE8E238F24E5247F0025E01C
:1060400025E0FEEE3395E0FDFC90055712528B12D1
:10605000511D8E238F24300C05C20C128339C3E5E9
:10606000236480948050087523007524008013D326
:10607000E5249400E5236480948440067523047528
:106080002400AE23AF24EE3395E0FDFC90066712AA
:106090005297200C03026187C20C12833902618778
:1060A000900719E4F0A3E4F07F007E007D007C00FF
:1060B000900557125297750E02026187900719E4F6
:1060C00075F00112502C900719E0FEA3E0FFEF6479
:1060D000F47003EE64016003026187900719E4F035
:1060E000A3E4F07F0112AD6B300C05C20C128339B2
:1060F000750E03026187900719E475F00112502CA8
:1061000090055712527FC004C005C006C007900614
:106110004BE0FEA3E0FFEE3395E0FDFC129ACEAB20
:1061200007AA06A905A804A804A905AA06AB07D0D2
:1061300007D006D005D00412507790055712529719
:10614000300C05C20C128339900719E0FEA3E0FF62
:10615000EFB4E833EEB4032F90055712527F7BE87B
:106160007A037900780012511D900557125297302A
:106170000C05C20C1283397F0012AD6B900719E435
:10618000F0A3E4F0750E00300C05C20C128339E563
:106190000F1252FA61A700621701623B0262750397
:1061A0006366040000636D90064DE0FEA3E0FFEE21
:1061B0003395E0FDFC129B358E238F24E5247F0070
:1061C00025E025E0FEEE3395E0FDFC90055B1252E4
:1061D0008B12511D8E238F24300C05C20C12833973
:1061E000C3E52364809480500875230075240080E3
:1061F00013D3E5249400E52364809484400675233A
:1062000004752400AE23AF24EE3395E0FDFC900628
:106210006B12529702636D90071BE4F0A3E4F07FCA
:10622000007E007D007C0090055B125297300C05CB
:10623000C20C128339750F0402636D90071BE4755D
:10624000F00112502C90071BE0FEA3E0FFEF64F476
:106250007003EE6401600302636D90071BE4F0A31A
:10626000E4F07F0112AD6B300C05C20C128339755E
:106270000F0302636D90071BE475F00112502C9020
:10628000055B12527FC004C005C006C00790064DD2
:10629000E0FEA3E0FFEE3395E0FDFC129B35AB077B
:1062A000AA06A905A804A804A905AA06AB07D00751
:1062B000D006D005D00412507790055B125297306B
:1062C0000C05C20C12833990071BE0FEA3E0FFEF20
:1062D00064E87003EE6403600302636D90055B1273
:1062E000527F7BE87A037900780012511D90055B9C
:1062F0001252977F0012AD6B90071BE4F0A3E4F0FD
:10630000300C05C20C128339900483E0FFEF640265
:10631000601D900483E0FFEF64036013900483E04A
:10632000FFEF64046009900483E0FFEFB40532904E
:106330000484E0FFEF701890065012527F9004CE54
:1063400012529790065412527F9004D21252979094
:106350000482E0FF9004E6EFF09004E6E0FF12AD67
:106360008B750F008007E50E7003750F02300C7DF2
:10637000C20C1283398076750E01750F01C20D3083
:106380000C05C20C1283399004BFE0FFEF6034901B
:106390000483E0FFEF6402601D900483E0FFEF647C
:1063A000036013900483E0FFEF64046009900483AA
:1063B000E0FFEFB4050D9004E6E4F09004E6E0FFA2
:1063C00012AD8B7F007E007D007C0090065C125237
:1063D000977F007E007D007C009006671252977FB9
:1063E000007E007D007C0090066B125297300C05F9
:1063F000C20C12833922E52824ABF582E43407F578
:1064000083E00528229007A83008039007ABE475C5
:10641000F0011252DA024FC22001E97F2ED2018030
:1064200018EF540F2490D43440D4FF30050BEF24E0
:10643000BFB41A0050032461FFE529600215290545
:106440002CE52C7002052B30080E9007A8E475F09F
:10645000011252DAEF02500802A9287403D2088010
:1064600003E4C208F5289007A81252F1E4F529F5D3
:106470002BF52CE52960077F2012643980F5752AF9
:10648000FFC202C201C203C204C206C207C209128D
:106490006405FF700D3008057F0012644AAF2CAE12
:1064A0002B22B4255FC2D5C205126405FF24D0B4E7
:1064B0000A00501A75F00A782930D50508B6FF0190
:1064C00006C6A426F620D5047002D20480D924CFB3
:1064D000B41A00EF5004C2E5D20502673CD2028034
:1064E000C6D20180C0D20380BCD2D580BAD2068089
:1064F000B47F201264392003077401B5290040F1EC
:106500001263F6FF126439026473D209D2078095D0
:106510001263F6FB1263F6FA1263F6F94A4B700641
:10652000793A7A687BFF20032EE529602A7E008E67
:1065300082758300124FDB60060EEE652A70F0C292
:10654000D5EBC0E0EAC0E0E9C0E0EE12679DD0E024
:10655000F9D0E0FAD0E0FB124FC2FF60AAEBC0E036
:10656000EAC0E0E9C0E0126439D0E02401F9D0E0EB
:106570003400FAD0E0FBE52A0460DCD52AD9808714
:10658000D20380A212677F60F7E52A700104124EE1
:1065900010A92A600DE52A600914F52A126827EF70
:1065A00060F3EA30E702F404C3995079EAF4252A4B
:1065B0000430E701E404F52A800D12677F60C1EA28
:1065C000052A252A124E10EA9007D7F030E701E499
:1065D000252A04D52A042006011412679DE4C0E090
:1065E0001268279007D7E0601320E70714F01264C1
:1065F00021802204F0D0E014C0E07F00126421E585
:106600002A6007126418152A800B300603126418DA
:10661000D0E0026473D0E00480C412677F609EE51E
:106620002A04124E109007D7EAF0E52A20060260ED
:106630000104240412679D74FF04C0E0126827124D
:106640006421E52A2006026003126418D0E0B52A0E
:10665000E87F4512642B9007D7E07F2B30E7047F5B
:106660002DF404C0E0126439D0E075F00A84C0F063
:10667000126422D0E01264220264737910800279DD
:1066800008C207C2098008D2D5790A8004790AC2F3
:10669000D5E52A047002F52AE4FAFDFEFF1263F63E
:1066A000FC7B082002131263F6FD7B1030010A12F6
:1066B00063F6FE1263F6FF7B20EC3382D592D55051
:1066C00013C3E43001069FFFE49EFEE42002039D15
:1066D000FDE49CFCE4CBF8C202EC700CCFCECDCC38
:1066E000E824F8F870F38017C3EF33FFEE33FEEDC4
:1066F00033FDEC33FCEB33FB994002FB0FD8E9EBA5
:10670000300205F8D0E0C448B202C0E00AEC4D4EB9
:106710004F78207B0070C2EAB52A0040BCC0E0126E
:10672000679FD0F0D0E0200204C4C0E0C4B202C031
:10673000F0126422D0F0D5F0EB0264731252FA65C5
:106740001053667B5864E14C64DD42667F4F668778
:106750004466874964F643668D5565BA46661A45B0
:10676000658447685A5064E52D64E92E650C2B64F6
:10677000ED23650A2068432A64A54800006504E506
:106780002AB4FF03752A061263F6FC1263F6FD12A3
:1067900063F6FE1263F6FF9007D0024E4D790AA20F
:1067A000D5200414300609B910020404B908010404
:1067B000A2D52007025001042003689203B52900E6
:1067C0005034C0E07F203004197F30A2037207727A
:1067D00006500F1267F6C203C207C206C2097F3015
:1067E000800F300603E9C0E0126439300603D0E0C0
:1067F000F9D0E0B529CC3006177F30B9100C1264FF
:10680000397F583005077F788003B908031264394F
:106810003003057F2D0264397F202009F87F2B206B
:1068200007F322920380CF7F00B40700500B24D0DF
:10683000F582E43407F583E0FF22286E756C6C293D
:1068400000D2021263F63002F8C202782930D50174
:1068500008F60264A52D504349581263F62403B488
:1068600005004001E49068559312642A743A12645A
:106870002AD20475290402667B000D0A004669725B
:106880006D776172652076657273696F6E3A20006C
:1068900053482D50524F2076362E302E30002E0D7C
:1068A0000A0D0A0044455649434520494E464F0DBE
:1068B0000A0049443A2025640D0A0050574D2072C1
:1068C000657363616C696E67206163746976617476
:1068D000696F6E3A20005945530A004E4F0A005026
:1068E000574D204C696D69743A2025640D0A004D9E
:1068F0004F544F5220494E464F0D0A004D6F746F52
:1069000072207265666572656E636500202D204396
:10691000757272656E74733A2000202D2050776D69
:106920003A2000202D20506F736974696F6E3A20F1
:1069300000256420004D6F746F7220656E61626C7B
:1069400065643A20005945530D0A004E4F0D0A0068
:106950000D0A4D4541535552454D454E545320491E
:106960004E464F0D0A0053656E736F722076616C50
:1069700075653A0D0A002564202D3E2025640056D9
:106980006F6C7461676520286D56293A20256C6408
:106990000043757272656E7420286D41293A202576
:1069A0006C64000D0A44455649434520504152410C
:1069B0004D45544552530D0A0050494420436F6ED3
:1069C00074726F6C6C65723A0D0A0050202D3E2077
:1069D000256620200049202D3E20256620200044E9
:1069E000202D3E2025660D0A0043757272656E7477
:1069F0002050494420436F6E74726F6C6C65723A1C
:106A00000D0A005374617274757020616374697645
:106A10006174696F6E3A205945530D0A00537461D1
:106A2000727475702061637469766174696F6E3A0F
:106A3000204E4F0D0A00496E707574206D6F6465AD
:106A40003A205553420D0A00496E707574206D6FDF
:106A500064653A2048616E646C650D0A00496E7089
:106A60007574206D6F64653A20454D472070726FD4
:106A7000706F7274696F6E616C0D0A00496E70758B
:106A800074206D6F64653A20454D4720696E7465CA
:106A90006772616C0D0A00496E707574206D6F64C9
:106AA000653A20454D4720464346530D0A00496E3E
:106AB000707574206D6F64653A20454D47204643DC
:106AC0004653204144560D0A00436F6E74726F6C3A
:106AD000206D6F64653A20506F736974696F6E0D35
:106AE0000A00436F6E74726F6C206D6F64653A209C
:106AF00050574D0D0A00436F6E74726F6C206D6FAE
:106B000064653A2043757272656E740D0A00436FB6
:106B10006E74726F6C206D6F64653A20437572728B
:106B2000656E7420616E6420506F736974696F6E56
:106B30000D0A004162736F6C75746520656E636F3A
:106B400064657220706F736974696F6E3A2059457D
:106B5000530D0A004162736F6C75746520656E6336
:106B60006F64657220706F736974696F6E3A204E3E
:106B70004F0D0A004D6F746F722D48616E646C6525
:106B800020526174696F3A2025640D0A0053656EC6
:106B9000736F72207265736F6C7574696F6E3A0DE6
:106BA0000A004D6561737572656D656E74204F6680
:106BB000667365743A0D0A002564202D3E20256C0D
:106BC00064004D6561737572656D656E74204D75F9
:106BD0006C7469706C6965723A0D0A002564202D29
:106BE0003E20256600506F736974696F6E206C6972
:106BF0006D6974206163746976653A20256400507C
:106C00006F736974696F6E206C696D6974206D6F44
:106C1000746F722025643A20696E66202D3E20250F
:106C20006C64202000737570202D3E20256C640D4F
:106C30000A004D6178207374657020706F73206155
:106C40006E64206E65673A202564202564004375D4
:106C50007272656E74206C696D69743A20256400E7
:106C6000454D47207468726573686F6C6473205B70
:106C700030202D20313032345D3A2025752C2025EE
:106C80007500454D47206D61782076616C756573A0
:106C9000205B30202D20343039365D3A20256C754C
:106CA0002C20256C750043616C6962726174696F98
:106CB0006E20656E61626C65643A205945530D0A19
:106CC0000043616C6962726174696F6E20656E6108
:106CD000626C65643A204E4F0D0A00454D47206DA9
:106CE00061782073706565643A202564006465628C
:106CF00075673A20256C640090073DEFF090073DE2
:106D0000E0FF8F23E523C394034003027042300A5F
:106D10003290073E7403F090073EE0FF14F0EF60FE
:106D2000207F007E007D007C0090073EE0FBEB258D
:106D3000E025E02409F582E43407F58312529780B8
:106D4000D6C20AE523702012AF5F780112520BEF12
:106D500054FFFFEE54FFFEED5403FDEC5400FC9095
:106D6000073F1252978043E523B4012012AF4178C8
:106D70000112520BEF54FFFFEE54FFFEED5403FDE2
:106D8000EC5400FC90073F125297801E12AF3778E8
:106D90000112520BEF54FFFFEE54FFFEED5403FDC2
:106DA000EC5400FC90073F1252977B017A07793F21
:106DB0001298484003026FA990073F12527FEF5488
:106DC000C0FFEE54FFFEED5403FDEC5400FCEF2435
:106DD00000FFEE3400FEED34FEFDEC34FFFCC00499
:106DE000C005C006C007AF23EF25E025E0241FF54E
:106DF00082E43405F58312527FEF2402F9D007D0E4
:106E000006D005D004A80112520BEE3395E0FDFC2C
:106E1000900743125297300F2090074312527FABD6
:106E200023EB25E025E02409F582E43407F58312FD
:106E30005297E523B40202C20FAF23EF25E025E00D
:106E40002409F582E43407F58312528B900743122C
:106E5000527F1250849007471252977F007EC07D68
:106E6000007C0090074712528BD31251E44011AFBF
:106E70002374642FF582E43406F583E014F0805F18
:106E80007F007E407DFF7CFF90074712528BC3122C
:106E900051E45011AF2374642FF582E43406F58376
:106EA000E004F0803A90074712527F12AF17D3EFF9
:106EB0009400EE648094C04026AF2374152FF582B1
:106EC000E43407F583E004F0AF2374152FF582E472
:106ED0003407F583E0FFEFC3940A5003027042AF1A
:106EE0002374152FF582E43407F583E4F09007430B
:106EF00012527FAB23EB25E025E02409F582E43430
:106F000007F58312529790074312527FC004C005C1
:106F1000C006C007AF2374642FF582E43406F583FE
:106F2000E0FFEF3395E0FEFDFC7810125232A8042A
:106F3000A905AA06AB07D007D006D005D004125089
:106F400077900743125297AF23EF25E025E0249472
:106F5000F582E43404F58312527F7B007A00798055
:106F6000783F124CD8602990074312527FEC124DA3
:106F700051AB23EB25E025E02494F582E43404F5BD
:106F80008312528B124B32124D8F9007431252973D
:106F900090074312527FAB23EB25E025E02450F508
:106FA00082E43406F5831252973010030270429047
:106FB0000718E0FFEFC394225008900718E004F090
:106FC00080329004C9E0FFEF602A90065012527F91
:106FD000C004C005C006C00790065412527F900737
:106FE0004F125297D007D006D005D004128BF690DE
:106FF0000664EFF090065012527FC004C005C00630
:10700000C007900664E0FFEF3395E0FEFDFC7810CA
:10701000125232A804A905AA06AB07D007D006D0A1
:1070200005D00412507790065012529790065012D5
:10703000527F9004CE1252979004E6E0FF12AD8B7F
:10704000D2102212AFEA1295667F647E007D007C2A
:1070500000129C027F0112AD9B12A5E512ABED124E
:10706000A6BA12A2DF12A8B37EAF7FF112A9FB125B
:10707000AC957EAF7FEE12AA1A12AC027F0012AD61
:107080002B7F0012AD3B7F0012AD5B7F0012AD8BFA
:1070900012ACAA12AC6B12AC4112AC2C12AA937FA8
:1070A0000112ADDB900741E4F0A3E4F07B007A002D
:1070B0007D017F02129D9890073BEFF012A2009095
:1070C000073CEFF090073CE0FF90073CE0FB9007A7
:1070D000417486F07D087C0012924690073CE0FFE8
:1070E000C0077B017A067947AF01AE02AD037C0091
:1070F000EF54FFFFEE54FFFEED5400FDEC5400FC96
:10710000AB07AA06D0077D107C4E12942990073B4E
:10711000E0FF90073CE0FD12A4A990073BE0FF7D53
:10712000011297617F0012AD7B12AC5612AC17D2E0
:10713000AF9044F474FDF07F0012ADCB7F0A7E0067
:107140007D007C00129C0290073A7402F090073A8E
:10715000E0FF14F0EF60207F007E007D007C009057
:10716000073AE0FBEB25E025E024CEF582E4340489
:10717000F58312529780D69004BFE0FFEF603A90FB
:107180000483E0FFEF6402601D900483E0FFEF647E
:10719000036013900483E0FFEF64046009900483AC
:1071A000E0FFEFB405079004E6E4F0801690048257
:1071B000E0FF9004E6EFF0800A900482E0FF900484
:1071C000E6EFF090073A7403F090073AE0FF14F00E
:1071D000EF60317F007E007D007C0090073AE0FB8D
:1071E000EB25E025E02450F582E43406F5831252C5
:1071F0009790073AE0FF74642FF582E43406F58334
:10720000E4F080C57B017A0479CEC003C002C001DE
:107210007B017A06792AA801AC02AD03D001D00225
:10722000D0037E007F1912545A900482E0FF90042C
:10723000E6EFF07F007E007D007C00900667125232
:10724000977F007E007D007C0090066B1252979025
:1072500004E6E0FF12AD8B90066FE4F0C20DC20AA7
:10726000900625E4F0A3E4F0900629E4F07F0012F4
:10727000ADAB1286DA12AFC6EF7020300C0E7F0174
:1072800012AE0BC20CC20B12833980E9300BE67FC1
:107290000112AE0B900642E4F080DA7F0112ADAB32
:1072A00012AFC6EF640160F812A71EEF30E7BE12FE
:1072B000A2DF80B92290073DEFF090073EECF0A3EB
:1072C000EDF0900740EAF0A3EBF0900743E0FFEF0A
:1072D000D3940050030274B4900743E0FFEFD394BB
:1072E0000140030274B490073DE0FFEF1252FA73BD
:1072F0000201730204732F07735A0873850A000092
:1073000073B0900742E0FFEFD3940F40117B0C7AEB
:1073100001791812AEFF900744EFF00273B57B0CB1
:107320007A01791C12AEFF900744EFF00273B5901A
:107330000742E0FFEFD3940F40107B0C7A017919DC
:1073400012AEFF900744EFF0806B7B0C7A01791D41
:1073500012AEFF900744EFF0805B900742E0FFEF32
:10736000D3940F40107B0C7A01791A12AEFF90076C
:1073700044EFF080407B0C7A01791E12AEFF90073B
:1073800044EFF08030900742E0FFEFD3940F4010BD
:107390007B0C7A01791B12AEFF900744EFF0801549
:1073A0007B0C7A01791F12AEFF900744EFF0800545
:1073B000900744E4F0900744E0FFEF3395E0FEFDD2
:1073C000FC7B207A0079007800125092A804A9056D
:1073D000AA06AB0790073EE0FEA3E0FFE4FCFD1227
:1073E000507790074512529790074512527FAB078E
:1073F000AA06A905A804A804A905AA06AB07900730
:1074000040E0FEA3E0FFE4FCFD12509290074B1217
:1074100052977B007A807900780090074B12527F58
:1074200012511D900749EEF0A3EFF0900742E0FFE4
:10743000EFC3940E5047900749E0FEA3E0FF90078A
:1074400042E0FDC3740E9DFDEFA805088005CEC384
:1074500013CE13D8F9FF900749EEF0A3EFF0900791
:1074600042E0FFEF04FF900743E0FEEE75F003A457
:107470002470F582E43408F583EFF080169007431A
:10748000E0FFEF75F003A42470F582E43408F5837F
:10749000740FF0900749E0FEA3E0FF900743E0FD82
:1074A000ED75F003A4246EF582E43408F583EEF064
:1074B000A3EFF0227F0012AC80229004E87401F068
:1074C0007FD77E037D007C009004E91252977F1ED7
:1074D0007E057D007C009004ED1252977FCA7E01EC
:1074E0007D007C009004F11252977F007E007D01A8
:1074F0007C009004F51252977F417E007D007C0055
:107500009004F91252977F007E007D007C00900469
:10751000FD125297900519E4F090051AE4F09005D9
:107520001BE4F09005377401F0900562E4F09005DB
:107530001C7403F090051D7403F090051E7403F095
:10754000900741E4F0900741E0FFEFC39402504EF2
:107550007F007E007D007C00900741E0FBEB25E092
:1075600025E02438F582E43405F5831252977F38FC
:107570007E4A7D007C0090051CE0F9A80112523281
:10758000900741E0FBEB25E025E02440F582E43460
:1075900005F583125297900741E004F080A7900709
:1075A00041E4F0900741E0FFEFC39403505A7F009D
:1075B0007E007D807C3F900741E0FBEB25E025E0ED
:1075C000242BF582E43405F5831252977F007E0068
:1075D0007D007C00900741E0FB741C2BF582E434B5
:1075E00005F583E0F9A801125232900741E0FBEB68
:1075F00025E025E0241FF582E43405F58312529737
:10760000900741E004F0809B7F007E007D007C00BD
:107610009005481252977F007E007D007C00900507
:107620004C1252979005507403F0A374E8F0900543
:1076300056E4F07F007E007D007C009005571252DA
:10764000977F007E007D007C0090055B1252979032
:107650000552E4F0A37464F0900554E4F0A374645C
:10766000F090055F7464F09005607401F09005611E
:107670007416F09004E77401F07F007E00128AFD1A
:10768000EF600E7F087E00128AFDEF60047F0180AC
:10769000027F00229005A5E0FF8F277B017A057904
:1076A000A5900625E0FEA3E0FFEF14FD12A575905E
:1076B0000625E0FCA3E0FD74A42DF58274053CF5DD
:1076C00083E0FEEFB50603D38001C3400690062990
:1076D000E4F022E5271252FA775D007745017751F1
:1076E00002776103776504777B05773906779F0911
:1076F000778D0A77C30B771580772D81771982777D
:107700003583771D8477218577258877298A773196
:107710008B0000786412A4312212809A221299FA06
:107720002212A3B12212A3F12212A1662212A77C77
:107730002212A7AA22129FCB229005A6E0FEA3E068
:10774000FF12A6ED229005A6E0FEA3E0FF125A9FCD
:10775000229005A6E0FEA3E0FF1255952212AB375A
:1077600022127865227F087E00128AFDEF60067F74
:107770000112A652227F0012A652221296ECEF604E
:10778000067F0112A652227F0012A652221274BA5C
:10779000EF60067F0112A652227F0012A652227FBE
:1077A0000112A6527FE87E037D007C00129C027FBE
:1077B0000012AD9B7FE87E037D007C00129C0212CC
:1077C000AF4B229005A6E0FEA3E0FF900672EEF01C
:1077D000A3EFF09005A8E0FEA3E0FF900674EEF0A2
:1077E000A3EFF0900672E0FEA3E0FFC3EE64809486
:1077F00080500A900672E4F0A3E4F0801C900672B8
:10780000E0FEA3E0FFD3EF94C8EE648094804009CB
:10781000900672E4F0A374C8F0900674E0FEA3E052
:10782000FFC3EE64809480500A900674E4F0A3E4F1
:10783000F0801D900674E0FEA3E0FFD3EF94FFEE0E
:10784000648094FF400A900674747FF0A374FFF084
:107850007F007E007D007C0090062A1252979006E1
:10786000707401F022900483E0FFEF6003027A1C41
:1078700090048812527F90073D12529790048C1208
:10788000527F90074112529790049412527F9007B2
:107890004512529790049812527F900749125297BE
:1078A00090062A12527FEC124D5190074512528BCE
:1078B000124C3B124D8F90062A12529790062E12B0
:1078C000527FEC124D5190074912528B124C3B12D1
:1078D0004D8F90062E12529790062A12527FEC126C
:1078E0004D5190052B12528B124B32124D8F900638
:1078F0002A12529790062E12527FEC124D5190058B
:107900002F12528B124B32124D8F90062E1252971D
:1079100090062A12527FC004C005C006C007900717
:107920003D12527FAB07AA06A905A804A804A90521
:10793000AA06AB0790051F12527F125084A804A913
:1079400005AA06AB07D007D006D005D004125077A1
:1079500090062A12529790062E12527FC004C0053C
:10796000C006C00790074112527FAB07AA06A905BF
:10797000A804A804A905AA06AB0790052312527F04
:10798000125084A804A905AA06AB07D007D006D0D8
:1079900005D00412507790062E1252979004A0E062
:1079A000FFEF60789004A112527F90062A12528B4A
:1079B000C31251E4500C9004A112527F90062A1277
:1079C00052979004A512527F90062E12528BC3122A
:1079D00051E4500C9004A512527F90062E1252973B
:1079E0009004A912527F90062A12528BD31251E4AE
:1079F000400C9004A912527F90062A1252979004CC
:107A0000AD12527F90062E12528BD31251E4400CCD
:107A10009004AD12527F90062E1252977F007E0086
:107A2000128AFDEF60067F0112A652227F0012A685
:107A300052227B007A4079807D027C0012AEA690B3
:107A400040827418F07B007A4079847D007C0012BB
:107A5000AEA69040867450F07B007A4079887DFF16
:107A60007C0F12AEA690408A741BF07B007A40799E
:107A70008C7D0B7C0012AEA690408E7419F07B00BA
:107A80007A4079907D2F7C0012AEA69040927418B7
:107A9000F07B007A4079947DEF7C0012AEA6904096
:107AA000967418F07B087A1F79F8C003C002C001F1
:107AB0007B007A4179009007441252F1D001D00244
:107AC000D0037F047E0012A6869043007406F090D7
:107AD00042007452F07B0C7A01790F12AEFF90468F
:107AE000A1EFF07B007A4279227D107C0712AEA6CE
:107AF0007B007A4279207D517C1212AEA690073E1F
:107B0000E4F07F197E007D007C0090073A125297C6
:107B100090073A12527FD3EF9400EE9400404E90BB
:107B2000073EE0FFEF64036044904225E0FFEF541E
:107B300001FF7E0090073EE0FEEE25E0FEEE4FFFE7
:107B4000EF5403FF90073EEFF07FE07E017D007C65
:107B50000012A50090073A12527F7BFF7AFF79FF4F
:107B600078FF12507790073A12529780A390073A05
:107B700012527FEF4E70057F0312ACE77B007A4014
:107B800079047D007C0112AEA69040047407F09049
:107B90004006E4F09040087448F0904004E4F0900F
:107BA0004009E4F09040017402F090400B7404F03E
:107BB0009043A2E0FFEF443FFF9043A2EFF09043D9
:107BC000A1E0FFEF4401FF9043A1EFF09043A0E05C
:107BD000FFEF4480FF9043A0EFF02290073DEEF0CE
:107BE000A3EFF090073FEDF012AF2D900741EFF0BB
:107BF00012AF23900742EEF0A3EFF0900742E0FEB1
:107C0000A3E0FF90073DE0FCA3E0FDED6F7002EC08
:107C10006E7003027D6F9043A2E0FFEF5401FF906E
:107C20000740EFF0900741E0FFEF705E900742E001
:107C3000FEA3E0FFEF4E600C90073DE0FEA3E0FFE7
:107C4000EF4E7046900742E0FEA3E0FFEF4E701D3E
:107C50007B027A40798090073DE0FCA3E0FD12AE04
:107C6000A8904082E0FFEF54BFFFEFF022904082E7
:107C7000E0FFEF4440FFEFF07B027A40798090070D
:107C80003DE0FCA3E0FD12AEA822900740E0FFEF2C
:107C9000606C904001E4F09040107401F09040144A
:107CA000E4F0904008E0FFEF547FFFEFF090408257
:107CB000E0FFEF5408FF7E00EF4E600C90073DE0C0
:107CC000FEA3E0FFEF4E70367B027A407902900708
:107CD00042E0FCA3E0FD12AEA89040017407F090D2
:107CE0004001E0FFEF5401FF7E00EF4E70F1904342
:107CF000A2E0FFEF54FEFFEFF0904001E4F090436C
:107D0000A2E0FFEF5401FF7E00EF4E603A7B027A63
:107D100040790290073DE0FCA3E0FD12AEA8900779
:107D20003FE0FFEF60047F0280027F00EF4401FF2D
:107D3000904001EFF0904001E0FFEF5401FF7E0022
:107D4000EF4E602B80EF227B027A40798090073DD6
:107D5000E0FCA3E0FD12AEA89043A2C083C082E085
:107D6000FF900740E0FEEF4EFFD082D083EFF0227D
:107D700090073EEEF0A3EFF0900740EDF012AF73E6
:107D8000900742EFF012AF69900743EEF0A3EFF0D7
:107D9000900743E0FEA3E0FF90073EE0FCA3E0FD78
:107DA000ED6F7002EC6E7003027F049043A2E0FF5F
:107DB000EF5402FF900741EFF0900742E0FFEF70B1
:107DC0005E900743E0FEA3E0FFEF4E600C90073E9D
:107DD000E0FEA3E0FFEF4E7046900743E0FEA3E015
:107DE000FFEF4E701D7B027A40798490073EE0FCE5
:107DF000A3E0FD12AEA8904086E0FFEF54BFFFEF76
:107E0000F022904086E0FFEF4440FFEFF07B027AE3
:107E100040798490073EE0FCA3E0FD12AEA82290DA
:107E20000741E0FFEF606C904001E4F09040107477
:107E300002F0904014E4F0904008E0FFEF547FFF20
:107E4000EFF0904086E0FFEF5408FF7E00EF4E60B9
:107E50000C90073EE0FEA3E0FFEF4E70367B027A07
:107E6000407902900743E0FCA3E0FD12AEA89040E9
:107E7000017407F0904001E0FFEF5401FF7E00EF36
:107E80004E70F19043A2E0FFEF54FDFFEFF0904001
:107E900001E4F09043A2E0FFEF5402FF7E00EF4EBA
:107EA000603A7B027A40790290073EE0FCA3E0FD55
:107EB00012AEA8900740E0FFEF60047F0280027FCF
:107EC00000EF4401FF904001EFF0904001E0FFEF30
:107ED0005401FF7E00EF4E602B80EF227B027A4040
:107EE000798490073EE0FCA3E0FD12AEA89043A287
:107EF000C083C082E0FF900741E0FEEF4EFFD082DA
:107F0000D083EFF02290073EEEF0A3EFF090074011
:107F1000EDF012AF87900742EFF012AF7D9007436C
:107F2000EEF0A3EFF0900743E0FEA3E0FF90073EE2
:107F3000E0FCA3E0FDED6F7002EC6E70030280992F
:107F40009043A1E0FFEF5401FF900741EFF090074D
:107F500042E0FFEF705E900743E0FEA3E0FFEF4ECC
:107F6000600C90073EE0FEA3E0FFEF4E70469007E6
:107F700043E0FEA3E0FFEF4E701D7B027A417900E3
:107F800090073EE0FCA3E0FD12AEA8904102E0FFA6
:107F9000EF54BFFFEFF022904102E0FFEF4440FFBB
:107FA000EFF07B027A41790090073EE0FCA3E0FD10
:107FB00012AEA822900741E0FFEF606C904001E410
:107FC000F09040147401F0904010E4F0904008E00C
:107FD000FFEF547FFFEFF0904102E0FFEF5408FF06
:107FE0007E00EF4E600C90073EE0FEA3E0FFEF4EF8
:107FF00070367B027A407902900743E0FCA3E0FDF3
:1080000012AEA89040017407F0904001E0FFEF54D9
:1080100001FF7E00EF4E70F19043A1E0FFEF54FEB0
:10802000FFEFF0904001E4F09043A1E0FFEF540136
:10803000FF7E00EF4E603A7B027A40790290073E65
:10804000E0FCA3E0FD12AEA8900740E0FFEF600463
:108050007F0280027F00EF4401FF904001EFF0902B
:108060004001E0FFEF5401FF7E00EF4E602B80EFF8
:10807000227B027A41790090073EE0FCA3E0FD12EA
:10808000AEA89043A1C083C082E0FF900741E0FE0C
:10809000EF4EFFD082D083EFF02290051BE0FFEF80
:1080A000B4022B9005A6E0FEA3E0FFEE3395E0FDC1
:1080B000FC9006321252979005A8E0FEA3E0FFEE76
:1080C0003395E0FDFC9006361252970281559005DB
:1080D0001BE0FFEFB4012A9005A6E0FEA3E0FFEE4F
