:40000000021415008F828E83E0540100000070F82278FFE4F6D8FD02147A900000EFF0E4F53FF540F541F54275430AC200121F87EF60057F00121FB7122067D2AF9044F4FC
:4000400074FDF0E4F53B754900754A00754B37900000E0FF70067EFF7FFF80008F4C7B017A0079017D2C7C011212FA8F3E900000E060021543E5436004E53E70C9E53E6046
:400080000302059FC3E5389407E53794004008900001E064016005753B04807E900004E0FE900003E0FDEEF53FEDF54074062540F5827400353FF583E0FE74052540F58228
:4000C0007400353FF583E0FDEEF53CEDF53DE5402407FFE4353FFED3EF9538EE95374005753B03803574072540F5827400353FF583E064176005753B04801F7B017A0079B1
:4001000001E5402404FDE4353FFC121C66EF653D7003EE653C6003753B08E4F539F53AE53B600302058E900005E0F536753B04900002E012088801553101823202083403A0
:400140007A3503883703D438020839040F3A05783B0000058B20000302058EE540453F600302058EFF120D84EF70047F0180027F00900005EFF0753900753A01E4F53B0260
:40018000058E20000302058EE5406401453F600302058EE536C39401400302058E900357E0FEA3E0F5828E83120842E4FBFA7901F81207188F24E536B5241E900357E0FE6B
:4001C000A3E0F5828E83120842E4FB7A01F9F81207187522008F238014E536D395244007E4F522F5238006752201752300E523900005F0E522A3F0A374FFF0E4A3F0F539B6
:40020000753A04F53B02058E900002E06434703C20000302058EE5406403453F600302058EE536C39440400FE536D3947F50087541007542108006754101754220AE41AF47
:40024000427D007B017A01792D1208FF20000302058EC3E5409403E53F9400500302058EE54024FDFFE53F34FFFE742D2542F974013541A801FC7D017B017A0079081209F7
:40028000E7E54024FDFFE53F34FFFEEF2542F542EE3541F541E536C394404012E536D3947F500B121DA8753F007540108006753F01754020E54265407004E541653F600369
:4002C00002036F900007E0FE900006E0FDEEF541EDF542E536D3943F506FE5367F00FEEF2542FFE5413E900259F0A3EFF0900357E0FEA3E0F5828E83120842E4FB7A01F9AA
:40030000F812071890025BEEF0A3EFF0900357E0FEA3E0F5828E83120842EFE4EF600A90025BE475F0011205DA90025BE0FEA3E0FFC390025AE09F900259E09E500B753BD5
:400340000AE4F541F54202058E7B017A01792D900263E53FF0A3E540F0AD42AC41AF36120F0BEF60047F0A80027F008F3B8003753B03E4F541F54202058E20000302058EC7
:40038000E4F541F54202059F20000302058EE5422540FFE541353FFED3EF942CEE9401502DE4F53BAE3FAF40742D2542F974013541A801FC7D017B017A0079051209E7E58F
:4003C000402542F542E53F3541F54102058E753B0302058EE540453F600302058E78257C00FD7BFF7A25791FFE7F081209E7D200753900753A08AE39AF3A78057C007D0105
:400400007B007A0079251209E7E4F53B02058E20000302058EE5406403453F600302058E900007E0FE900006E0FDEEF52FEDF530E536C394404038E536D3947F5031AE2F29
:40044000AF307C007D101208D28F348E338D328C318F4B8E4A8D498C48E4754F10F54EF54DF54CFF7E80FDFC12192C8F358050AE2FAF307C017D001208D2C004C005C006FC
:40048000C007AF36E4FCFDFEFBFA7901F812068DD003D002D001D0001206728F348E338D328C318F4B8E4A8D498C48E4F54F754E01F54DF54CFFFE7D10FC12192C8F35E588
:4004C00036D3943F5072AF367E007C207D001208D2E42FFFE43EFEED3408FDE43CFCC004A905AA06AB07AE2FAF307C007D201208D2D0001206728F348E338D328C31E4F5BA
:400500002DF52EC3E52E9420E52D9400502AE4E52E2534FFE52D3533FEE43532FDE43531A907AA06AB05121CF3EF2535F535052EE52E7002052D80CBE536702AAE2FAF301E
:40054000FCFD7BFFFAF9F8C31207C57019FD7F05120A3DC3E5359FF535E4FD7F06120A3DC3E5359FF535E535F404900005F0E4F53BF539753A018016E4FF120D84EF700604
:400580009046FA7480F01220718003753B057B017A007901853948853A49AF3B1215ED900000E0700302004330000302004322BB010689828A83E0225002E722BBFE02E399
:4005C0002289828A83E49322BB010689828A83F0225002F722BBFE01F322C5F0F8A3E028F0C5F0F8E582158270021583E038F022BB010A89828A83E0F5F0A3E022500687B6
:40060000F009E71922BBFE07E3F5F009E3192289828A83E493F5F074019322BB010789828A830205DA500B09C5F027F7C5F01937F722BBFE0D09F8E325F0F3C5F019E338A6
:40064000F322F889828A8374019325F0C5F0F8E4933822BB010A89828A83F0E5F0A3F0225006F709A7F01922BBFE06F3E5F009F31922EF2BFFEE3AFEED39FDEC38FC22C315
:40068000EF9BFFEE9AFEED99FDEC98FC22E88FF0A4CC8BF0A42CFCE98EF0A42CFC8AF0EDA42CFCEA8EF0A4CDA8F08BF0A42DCC3825F0FDE98FF0A42CCD35F0FCEB8EF0A47C
:4006C000FEA9F0EB8FF0A4CFC5F02ECD39FEE43CFCEAA42DCE35F0FDE43CFC2275F008758200EF2FFFEE33FECD33CDCC33CCC58233C5829BED9AEC99E58298400CF582EE4A
:400700009BFEED9AFDEC99FC0FD5F0D6E4CEFBE4CDFAE4CCF9A88222B800C1B90059BA002DEC8BF084CFCECDFCE5F0CBF97818EF2FFFEE33FEED33FDEC33FCEB33FB10D7C4
:4007400003994004EB99FB0FD8E5E4F9FA227818EF2FFFEE33FEED33FDEC33FCC933C910D7059BE99A4007EC9BFCE99AF90FD8E0E4C9FAE4CCFB2275F010EF2FFFEE33FE50
:40078000ED33FDCC33CCC833C810D7079BEC9AE899400AED9BFDEC9AFCE899F80FD5F0DAE4CDFBE4CCFAE4C8F922EF4BFFEE4AFEED49FDEC48FC22C3E49FFFE49EFEE49D2F
:4007C000FDE49CFC22EB9FF5F0EA9E42F0E99D42F0E89C45F022E8600FECC313FCED13FDEE13FEEF13FFD8F122E8600FEFC333FFEE33FEED33FDEC33FCD8F122BB010789DC
:40080000828A830208365005E9F8020A0DBBFE05E9F8020A1989828A83020842BB010789828A8302085E5005E9F8020A25BBFE05E9F8020A3122E0FCA3E0FDA3E0FEA3E06A
:40084000FF22E493FC740193FD740293FE740393FF22E0F8A3E0F9A3E0FAA3E0FB22ECF0A3EDF0A3EEF0A3EFF022E0FBA3E0FAA3E0F922EBF0A3EAF0A3E9F022E493FB74E9
:400880000193FA740293F922D083D082F8E4937012740193700DA3A393F8740193F5828883E4737402936860EFA3A3A380DFE5092582F582E5083583F583B50804858209B7
:4008C0002210AF06858209F50822858209F508D2AF22EC8EF0A4CCC5F0CCCDF8EFA4CEC5F02DFDE43CFCE8A42EC8C5F03DFDE43CFCEFA4FFE5F028FEE43DFDE43CFC22EF51
:400900004E6012EF60010EEDBB010B89828A83F0A3DFFCDEFA2289F05007F709DFFCA9F022BBFEFCF309DFFCA9F022E709F608DFFA8046E709F208DFFA803E88828C83E7AA
:4009400009F0A3DFFA8032E309F608DFFA806EE309F208DFFA806688828C83E309F0A3DFFA805A89828A83E0A3F608DFFA804E89828A83E0A3F208DFFA804280D280FA80F3
:40098000C680D4805580F28029801080A680EA809A80A880DA80E280CA802988848C8589828A83E493A30586F0A30586DFF5DEF3800B89828A83E493A3F608DFF9ECFAA95D
:4009C000F0EDFB2288848C8589828A83E0A30586F0A30586DFF6DEF480E389828A83E493A3F208DFF980D688F0EF60010E4E60CD88F0ED2402B4040050C3F582EB2402B455
:400A0000040050B9232345822390097B73E6FC08E6FD08E6FE08E6FF22E2FC08E2FD08E2FE08E2FF22ECF608EDF608EEF608EFF622ECF208EDF208EEF208EFF22290025D03
:400A4000EDF0AB079002627402F0E4FFFEFDFCA312085EEB1208880A79010AA6020ACB030AF0040B15050B40060B8F070B6B080BB3090BD70A00000C0190025DE0FF7E005E
:400A80007C017D001208D21207B7EF24C0FFEE34FFFEED3410FDE43CFCA312085E9002627401F0020C0C90025DE0FF7E007C017D001208D2C374C39FFF74FF9EFE74109DBD
:400AC000FDE49CFCA312085E020C0C90025DE0FF7E007C017D001208D2C374C79FFF74FF9EFE74109DFDE49CFCA312085E020C0C90025DE0FF7E007C017D001208D2C37433
:400B0000CB9FFF74FF9EFE74109DFDE49CFCA312085E020C0C90025DE0FF7E007C017D001208D2C374D09FFF74FF9EFE74109DFDE49CFCA312085E9002627401F0020C0C60
:400B400090025DE0FF7E007C017D001208D2C374D19FFF74FF9EFE74109DFDE49CFCA312085E9002627401F0020C0C90025DE0FF7E007C017D001208D2C374D69FFF74FF16
:400B80009EFE74109DFDE49CFCA312085E807D90025DE0FF7E007C017D001208D2C374D29FFF74FF9EFE74109DFDE49CFCA312085E805990025DE0FF7E007C017D00120811
:400BC000D2C374D49FFF74FF9EFE74109DFDE49CFCA312085E803590025DE0FF7E007C017D001208D2C374D89FFF74FF9EFE74109DFDE49CFCA312085E9002627404F08082
:400C00000BE4FFFEFDFC90025E12085E900262E0B4011990025E120836A907AA06AB05121CF3E4FCFDFE90026312085E900262E06402705C90025E120836EF2401FFE43E91
:400C4000FEE43DFDE43CA907AA06AB05121CF3E4FCFDFE90026312085E900263120852C000C001C002C00390025E120836A907AA06AB05121CF3E4FCFDFE78081207E9D0BA
:400C800003D002D001D0001207AA90026312085E900262E064046003020D7D90025E120836EF2403FFE43EFEE43DFDE43CA907AA06AB05121CF3E4FCFDFE90026312085E37
:400CC000900263120852C000C001C002C00390025E120836EF2402FFE43EFEE43DFDE43CA907AA06AB05121CF3E4FCFDFE78081207E9D003D002D001D0001207AA9002634F
:400D000012085E900263120852C000C001C002C00390025E120836EF2401FFE43EFEE43DFDE43CA907AA06AB05121CF3E4FCFDFE78101207E9D003D002D001D0001207AA84
:400D400090026312085E900263120852C000C001C002C00390025E120836A907AA06AB05121CF3E4FCFDFE78181207E9D003D002D001D0001207AA90026312085E90026356
:400D8000120836228F44AD447F03120A3DEF2401FFE43EFEE43DFDE43CFCE4FB7A01F9F812068DC004C005C006C007AD447F04120A3DD003D002D001D0001206728F4C8EA9
:400DC0004B8D4A8C49C201E4F54DAD447F03120A3DEF2401FFE43EFEE43DFDE43CFCE4FB7A01F9F812068D8F488E478D468C45AF4CAE4BAD4AAC49AB48AA47A946A845C337
:400E00001207C55032854882854783E493F54E6005F46002D201E54E254DF54DAF48AE47AD46AC45E47B01FAF9F81206728F488E478D468C4580B8AD447F03120A3DEF2479
:400E400001FFE43EFEE43DFDE43CFCE4FB7A01F9F812068D78031207D68F488E478D468C45E47FC07EFFFDFCAB4CAA4BA94AA849C31207C57007FF7E20FDFC800DAF4CAE21
:400E80004BAD4AAC4978031207D68F4C8E4B8D4A8C49AF4CAE4BAD4AAC49AB48AA47A946A845C31207C55039E42548FFE43547FEE5463408FDE43545A907AA06AB05121CB9
:400EC000F3EF254DF54DAF48AE47AD46AC45E47B01FAF9F81206728F488E478D468C4580B1E54DF404F54DAD447F01120A3DA804A905AA06AB07AF4DE4FCFDFEC31207C5CC
:400F000070032001037F06227F002290025EECF0A3EDF0A312087390025DEFF0E4900265F0EFD3943F500E90025DE0940140069002657401F090025DE0FFD3947F4006903A
:400F400002657401F0EFC39440400CEFD3944140069002657401F0EFD3943F501E90025EE0FEA3E0FFE4FCFDFB7A01F9F8C31207C5502F9002657401F08027D390025FE03C
:400F8000948090025EE0940040069002657401F0900263E07004A3E0641060069002657401F090026012086AE94A4B700590026504F0900265E0600302108A121EFEEF606E
:400FC0000302108490025EE0FCA3E0FDA312086A900263E0FFA3E090026CCFF0A3EFF090025DE0FF1211DE900265EFF06407600302107F904722E0540270087F01FE121EF6
:401000006480F0904722E054026009E0FF1313543FFF80027FFFEF7006900265F0800690026574FFF0900265E0705490025DE0FFA3E0FCA3E0FD900353E0FBA3E090026AD9
:40104000F0121A90900265EFF064077032904722E0540270087F01FE121E6480F0904722E054026009E0FF1313543FFF80027FFFEF7006900265F0800690026574FFF0124B
:40108000205180069002657404F0900265E0FF227B007A4679E8121CF3EF4401FD7B007A4679E8122045E4F52CE52CC3940A502CE52C75F005A42461F582E43424AF82F571
:4010C000218F22F58312087C8F82852183740393FC740493FD121F6E052C80CDE4F52CE52CC394015046E52C75F007A42413F582E43425AF82F5238F24F58312087C8B25E1
:401100008A2689278F82852383740393FE7404938E28F529740593F52A740693F52BAD29AC28FFAE2A121EB8052C80B37E207F92121DD97B017A507903121CF3EF4402FD3B
:401140007B017A5079031220457B017A507913121CF3EF4402FD7B017A5079131220459043A0E04440F09043C2E04410F07C207D827B007A5179127F087E00121EB87C2053
:401180007D8A7B007A5179227F087E00121EB89044F47401F0904322E04408F09046ECE0C394055006904689743AF090480074F1F012150690480074B1F0121F1D7B007A41
:4011C0004379A0C00179B0900005120873D0017F0E7E00121D749043B0E054FDF022900266EFF0A3ECF0A3EDF0A312087390026E7407F0904722E0540270030212EE904756
:401200002074B6F074D5F07402F0904722E0540260030212E6900266E0904720F0E490026FF0A3F090026CE0FEA3E0FF90026FE0FCA3E0FDC39FEC9E501F90026912086A8D
:40124000E92DF9EA3CFA1205AF904720F090026FE475F0011205DA80CB90026CE064017002A3E060030212F4900266E0FFD3943F40030212F47E007C207D001208D2E42F0A
:40128000FFE43EFEED3408FDE43CFCC004A905AA06AB07A3E0FEA3E0FF7C007D201208D2D00012067290027112085EE490026FF0A3F090026FE0FEA3E0FFC39420EE94005A
:4012C0005032E4FCFDA3120852120672A907AA06AB05121CF3904720EFF090026FE475F0011205DA80CC90026E7409F0800690026E7404F090026EE0FF228B448A4589469E
:401300008C478D48755505E4F54DF54EE54C75F00AA4FFC3E54E9FE54D95F0503B121B34EF6022121B347553008F54E47F19FEFDFC1218C7121B34D3EF9554E4955350E366
:40134000E4F5558013E47F01FEFDFC1218C7054EE54E7002054D80B4AB49AA4AA94BE4F5F0120653E4F54FF550121B34EFD394005003021412121B347551008F52AB49AA8D
:401380004AA94BE5518552F012061BAB49AA4AA94B1205F0C39548E5F09547505FE4F54DF54EC3E54E9552E54D95515025121C1CAB44E5462550F9E545354FFAEF1205C8C1
:4013C0000550E5507002054F054EE54E7002054D80D0AB44E55024FFFFE54F34FFFEE5462FF9E5453EFA1205AF64177003021369E47F05FEFDFC1218C7021369AB49AA4ABB
:40140000A94B1205F0C39552FFE5F095518FF0120653AF552275930078007583467582E8E04401F0009046ECE0F99046FAE0FA90034BF0B903225420B40012B8001AEA9014
:401440001FFFF07401901FFEF09046F6F0901FFEE06005901FFFE0FA90480074C0F0758156121EDE90000078007920E4F0A3D8FCD9FAEA90034BF002001175081F7509FD1F
:401480001210900214C1022079E493A3F8E493A34003F68001F208DFF48029E493A3F85407240CC8C333C4540F4420C8834004F456800146F6DFE4800B0102040810204063
:4014C00080901B83E47E019360BCA3FF543F30E509541FFEE493A360010ECF54C025E060A840B8E493A3FAE493A3F8E493A3C8C582C8CAC583CAF0A3C8C582C8CAC583CABE
:40150000DFE9DEE780BE7B007A4079807D337C001220279040827418F09043007402F09040007408F09042007403F07B0C7A017908121CF39046A1EFF07B007A4279227D68
:40154000087C001220277B007A4279207D517C12122027E4900004F07F19FEFDFC90000012085E900000120836D3EF9400EE9400403B900004E0FF64036032904225E05440
:4015800001FEEF25E04E5403900004F0E47FE07E01FDFC121D0090000012083674FFFBFAF9F812067290000012085E80B6900000120836EF4E70057F0312207F7B007A402A
:4015C00079047D007C011220279040047407F0904006E4F09040087448F0904004E4F09040017402F09043A2E04401F0228B458A46894774011205C8AB452547F9E43546AB
:40160000FAEF1205C8E549AB45E5472402F9E43546FAE5491205C8E548FFAB45E5472403F9E43546FAEF1205C8AB45AA46A947E5492404FDE43548FC121C668E4A8F4BEFCF
:40164000AB45E5492404FDE43548FCE5472DF9E5463CFAEF1205C8E54AFFAB45E5492405FDE43548FCE5472DF9E5463CFAEF1205C8AB45E5492406FFE43548FEE5472FF9FF
:40168000E5463EFA74171205C8E5492407FDE43548FC755100755200755348755496AB45AA46A947121BD122C0E0C083C082C085C084C086758600C093759300C0D075D09F
:4016C00000C001C002C003C006C007E4FBA2AF33FAD2AF9044F474FDF090646CE0FFFE541EF960069002FDE049F0EF30E54590644AE0FE9002F9E02478F582E43402F583E5
:40170000EEF07B01EB602C900276E060069002FC7401F09002F9E004F0E0C394404002E4F0900277E0FE9002F9E0B506069002767401F0EF20E5A2AF02EA24FF92AFD007BF
:40174000D006D003D002D001D0D0D093D086D084D085D082D083D0E032752106E4FF120D84EF7002F521E4F54BF54AF549F548900357E0FEA3E0F5828E831208428F4F8E82
:401780004E8D4D8C4CE4FFFE7D10FC12192C900355E0FCA3E0F5828C83E493FEC3EF9EFFF404FFB50612900357E0FEA3E0F5828E83120842EF4E70057F00121FB79046FAFB
:4017C000E054C064406004E52160099046FAE4F0FF12001A12205D22C0E0C083C082C085C084C086758600C093759300C0D075D000C006C007A2AFE433FFD2AF9044F4742E
:40180000FDF09002FAE0FE9002B8E06E602C90646EE020E2259002B8E0C394404002E4F09002B8E024B9F582E43402F583E090644DF09002B8E004F080C8EF24FF92AFD043
:4018400007D006D0D0D093D086D084D085D082D083D0E032A9079002FAE0FF9002B8E0FEEFC39E501AEE24FFFDE434FFFCEF7A00B50508EAB504047D0180027D00800CC346
:40188000EF9EB43F047D0180027D00ED70C8EEB5070D90646EE020E20690644DE9F022EFC394404002E4FF74B92FF582E43402F583E9F00F9002FAEFF090646EE030E10609
:4018C0009044D07402F02290FFFC1208AE12085E850883850982120836D3EF9400EE9480402E90034C120836121D00850883850982C083C082120836E42FFFEE3480FEEDC9
:4019000034FFFDEC34FFFCD082D08312085E80C090034212083685088385098212085212068D121D009000041208AE228F478E468D458C44E4F550D3E54F9400E54E940025
:40194000404BAF4FAE4EAD4DAC4C74FFFBFAF9F81206728F4F8E4E8D4D8C4CE547254BFFE546354AFEE5453549FDE5443548FCEF254FFFEE354EFEED354DFDEC354CA907BD
:40198000AA06AB051205AF2550F55080AAAF5022121FE190025E74FFF0121EFEEF703B7F01121E35EF6407702C7B017A0379537D021219E6EFB40215E490025EF090472228
:4019C000E0540270107F01FE121E6480F0904722E0540260D4122051800690025E7404F090025EE0FF2290025F120873900262EDF0E4A3F0900262E0FFA3E0C39F50379065
:401A00004722E054016003D38001C340097F017E00121E6480E9904720E0FF90025F12086A900263E029F9E43AFAEF1205C8900263E004F080BE900263E0FF2290025EEC49
:401A4000F0A3EDF090025DEFF0541F25E0FFE433FEE42FFFEE3444FAA9077B0112201A900260EEF0A3EFF090025DE075F002A42400FFE5F03444FAA9077B01A3E0FEA3E0EC
:401A8000FFFDAC06122029900260E0FEA3E0FF22900267ECF0A3EDF0AC077D07904722E05402603B90472074B6F074D8F07405F0904722E054027023904720ECF09002670F
:401AC000E0904720F0900267E0A3E0904720F0EBF090026AE0904720F080067D0980027D04AF0522121FE1121EFEEF703B121F3A90025EEFF06407702A904722E0540270A1
:401B0000087F01FE121E6480F0904722E054026009E0FF1313543FFF80027FFFEF700490025EF0122051800690025E7404F090025EE0FF229044C87401F09002F9E0FE905D
:401B40000277E0B5060E900276E060047F40802CE4FF80289002F9E0FE900277E0C39E500BE0FE9002F9E0C39EFF8010900277E0FEC374409EFE9002F9E02EFF9044C07420
:401B800001F022420355251A420357251B430350000000440347016E360044034200005DC04103461844034C2EE000004102FB004102B8004102FA004102FD00410277003B
:401BC0004102F900410276004102FC0041035B00008B4C8A4D894E8C4F8D50E4F555F556121E07C3E5569550E555954F501DAB4CE54E2556F9E54D3555FA1205AFFF121874
:401C0000540556E5567002055580D8AB51AA52A953E54F8550F01206537F00229044C87401F0900277E0FE9002F9E0FD900276E07004EE6D602474782EF582E43402F583EF
:401C4000E0FF0EEEC394404002E4FE900277EEF0900276E06009E4F0800590644AE0FF9044C07401F0228B4C8A4D894EE4F54FF550D3ED9400EC94004025AB4CED24FFFFD4
:401C8000EC34FFFEE54E2FF9E54D3EFA1205AF2550F550E4354FF54FED1D70011C80D2E550F4FFE54FF4FEEF2401FFE43EFE227C167DA8E4FF121A3C7D07E4FF121F55E4B7
:401CC0009002FDF090648A7469F090648C7420F07C177DD87F01121A3C7D077F01121F5590642E7406F090643E7447F090648E7402F0228B938A838982E0759300FF22000A
:401D0000EC4D4E700D78FCEF24E950032840FD2200007BF178DA0000EF28FF78FFEE38FEED38FDEC38FC50E7EF2BFFEE38FEED38FDEC38FC40F22205020304121FCC9002FD
:401D40005DEFF090649AE04420F090649CE04410F09044C07401F090649EE04410F09044D87402F09044C0F012203690025DE0FF121F9F22758600EF4E6027EF60010E75B2
:401D80009300900005E0F595A3E0F585A3E0F5848B938A838982E0A30586F0A31586DFF6DEF4E4F593F59522121FCC9043A0E04408F09043B0E04408F090470174C8F090A8
:401DC00043ACE04410F09043BCE04410F0904700E0542060F8121F9F22ACEAADA08E838F82E493F9601CA3E493F5EAA3E493F5A0A3E49360F1FAA3E493F8A3E493F2DAF6BC
:401E0000D9E48DA08CEA22121FCC90649AE04401F0E054FEF0121F9F9044C87401F0E4900277F09002F9F0900276F09002FCF09044C004F0227E07904722E05402601F9052
:401E4000472074B6F074E1F0740EF0904722E054027007904720EFF080067E0980027E04AF062200EEFA900346E0F88FF0A4FFAEF0E88AF0A42EFEE5F03400FDEF24C9FF5A
:401E800078FFEE38FEED38FDE438FC5003021D0022121FCC90649DE04401F0E054FEF0121F9F9044C87402F0E49002B8F09002FAF09044C07402F022758600EF4E601BEFCA
:401EC00060010E8C838D828B958A858984E493A30586F0A31586DFF5DEF3E4F595229046FAE054C064807015F0FD7F02120A3DEF4E600AE4FD7F02120A3D122009229002CC
:401F0000667404F0121FCC90035BE0700704F0E4900266F0121F9F900266E0FF227B0C7A0179CF121CF3EF540790586EF0EFC4540FA3F09058767444F0227F07904722E0DD
:401F40005402600E90472074B6F074E0F0740DF080027F0422AC07ED540775F020A4FFEC541F2480F582E43444F583EFF022EC4D6011ED60010C8B938A838982E4F0A3DDB0
:401F8000FCDCFA75930022121AE490025DEFF0700812199090025DEFF090025DE0FF22EF54016004D2AF8002C2AFEF5402FF9044F4E054FD4FF02290FFFF1208AEEFF090D7
:401FC00046EA7401F09000011208AE229044F4E0F84402F0E85402FF10AF012274014FFF22121FCC9043A0E04408F09043B0E04408F0121F9F229002FBE07009121CAF9087
:4020000002FB7401F0121D3B2290034BE0FA8E838F827400758101738B938A838982E0FFA3E0FE759300228B938A838982EDF0A3ECF0759300229043A2E04401F09043B26F
:40204000E04401F0228B938A838982EDF075930022121FCCE490035BF0121F9F229046FA7480F012207122121FF6121E07121E91229046F6E04401F02212175980FE2280DC
:40208000FE22007F7B007B00000030D8C800D800000016005205082309121098118814200064047E3F8A698C3A8E0F010101E204010301E6020105028702E008010604B82E
:4020C00002BE01D804DF010107021B02A702010A088501890195019901B101BF01D904DF01010B4F00400106038808010A040B111028130219641A041B0A202021082230E9
:40210000274028282A022B022E033080310232103304340836203708382239803A083C283E084028410843824A024B0152045B4068286A016B027090712072108D408E104D
:402140008F809042910493109621980199029B0C9D649E049F80A004A102A202A490A520A702AB01B021B405B602B744C00FC20FC40ECA0FCC6FCE6FD00FD208D608E0083A
:40218000E801010C4C0001021608E70A180E3F101E120114C6163918481C88208824DD262228232ADC2CC8301F320834E03A22541A560458045B045F018008824284F88698
:4021C000018704880F89028AF08D068EC792849308943996C698109C20A020A101A43FA6C0A906AA08AC30B031B106B308B501B6FFB702B982BE40BF11C062C101C5E0C6DA
:40220000CBC80EC9FFCAFFCBFFCEF0CF44D00CD804D904DA04DF01E6C0EA40EB02010D46002901100210030B04010709080209260A310D220E11108012481388151016502C
:402240001780180219021C081D021E201F20200421012208230128402920320238C839A43A083B10414042084921502053405E205F026540674887409088912093089502C2
:40228000978098409B4A9C029D259E049F04A420A504A72AB001B301C0DFC2FFC4FFCA05CC01CE0ED00CD204D6A0D8B0010E4E040906D007230B080C0C0D210E710F0E1048
:4022C00014141016AC170C18DC1A221B201E0321102410264029212A202B062D0C2F2330E03310350F361F37203A023B203F444004464049FF4A074BFF4C404D204EF04F8A
:4023000005500854015604580459045A045B045F01604061A862406320871F89198B0691019304950997029A01A506A719A919AA01AB06AF0FB201B310B507B708B908BB65
:4023400020BE04D804D904DB04DF01010F3C004404040504084809200A010B800E0810081210160418C01A011F042130224425102604270A280829212A802F2A303031047A
:402380003402370438883A103D284101500C5210581059015A886380680169046A206B406F0171407304821083408550868089048B04C005C24FC446CA7DCCC6CE6ED00101
:4023C000D60FD801E40C014005322035808180CC30E2200141038620A620E6400144058301870188C0E004E40401450F0C0857025B046401660193029889A040A301B009C2
:40240000C204D607D801E801EC0401460D8702900893029888A040A301A702AB04B40CB601E808EC02EE08014705900893029888A040A301014C0E5004544057015808607D
:40244000806702900893029888A040A301D406D607D80201500300010C010E01015101000F005100001000513000400051C000100051F000100100000A00010A800580018E
:40248000140008000140000A00014C000200015000002000008080207D050000040800130C0400030204200A031410130C0C7300088000400800004043003C404F003000DE
:4024C0000000734000303F0FC0800008002028000040003402010005C0000E12FFFFFF62A0F0410C00000000000210040404040000000100000000000040020010301000CE
:4025000010101200000000000000000000000000000000010A002493008061000026006930091E031E010100000000000000000000000000000000000000000000000000BD
:40254000000000000000000000000000000000000000000000000000000000000000000000000000000000000000000000000000000000000000000000000000000000005B
:40258000000000000000000000000000000000000000000000000000000000000000000000000000000000000000000000000000000000000000000000000000000000001B
:4025C00000000000000000000000000000000000000000000000000000000000000000000000000000000000000000000000000000000000000000000000000000000000DB
:402600000285BD008F828E83E0540100000070F82278FFE4F6D8FD02864B90073F1252F1900451E0FFEF64FA7003023A457BFF7A687979C003C002C00190073F1252D1A805
:4026400001AC02AD03D001D002D00312553890073F1252D1C003C002C0017BFF7A68797A9007AB1252F1D001D002D00312998F90073F1252D1C003C002C0017BFF7A6879D9
:402680007D9007AB1252F1D001D002D00312998F90073F1252D1C003C002C0017BFF7A6879909007AB1252F1D001D002D00312998F90073F1252D1C003C002C0017BFF7A14
:4026C00068799E9007AB1252F1D001D002D00312998F90073F1252D1C003C002C0017BFF7A6879A49007AB1252F1D001D002D00312998F7B017A077944C003C002C0017B88
:40270000FF7A6879B29007AB1252F1900451E0FF7E009007AEEEF0A3EFF0D001D002D00312645B90073F1252D1C003C002C0017B017A0779449007AB1252F1D001D002D0B3
:402740000312998F90073F1252D1C003C002C0017BFF7A6879BB9007AB1252F1D001D002D00312998F9004CBE0FFEFB4012390073F1252D1C003C002C0017BFF7A6879D6F3
:402780009007AB1252F1D001D002D00312998F802190073F1252D1C003C002C0017BFF7A6879DB9007AB1252F1D001D002D00312998F7B017A077944C003C002C0017BFF6F
:4027C0007A6879DF9007AB1252F190066FE0FF7E009007AEEEF0A3EFF0D001D002D00312645B90073F1252D1C003C002C0017B017A0779449007AB1252F1D001D002D003A2
:4028000012998F90073F1252D1C003C002C0017BFF7A68797A9007AB1252F1D001D002D00312998F90073F1252D1C003C002C0017BFF7A6879EF9007AB1252F1D001D00228
:40284000D00312998F90073F1252D1C003C002C0017BFF7A6879FC9007AB1252F1D001D002D00312998F90051BE0FFEFB4022390073F1252D1C003C002C0017BFF7A697964
:402880000C9007AB1252F1D001D002D00312998F804D90051BE0FFEFB4012390073F1252D1C003C002C0017BFF7A69791A9007AB1252F1D001D002D00312998F80219007E2
:4028C0003F1252D1C003C002C0017BFF7A6979239007AB1252F1D001D002D00312998F900742E4F0A3E4F0900742E0FEA3E0FFC3EF9402EE648094804003022A7B90051BB9
:40290000E0FFEF6402706D7B017A077944C003C002C0017BFF7A6979319007AB1252F1900742E0FEA3E0FFEF7802C333CE33CED8F9FF74D62FF58274043EF58312527F9020
:4029400007AEEEF0A3EFF0D001D002D00312645B90073F1252D1C003C002C0017B017A0779449007AB1252F1D001D002D00312998F022A6E90051BE0FFEF6401706D7B01D3
:402980007A077944C003C002C0017BFF7A6979319007AB1252F1900742E0FEA3E0FFEF7802C333CE33CED8F9FF74DE2FF58274043EF58312527F9007AEEEF0A3EFF0D0013F
:4029C000D002D00312645B90073F1252D1C003C002C0017B017A0779449007AB1252F1D001D002D00312998F022A6E7B017A077944C003C002C0017BFF7A6979319007AB2C
:402A00001252F1900742E0FEA3E0FFEF7802C333CE33CED8F9FF74CE2FF58274043EF58312527F900742E0FAA3E0FB74852BF58274043AF583E0F9A80112521E9007AEEEE4
:402A4000F0A3EFF0D001D002D00312645B90073F1252D1C003C002C0017B017A0779449007AB1252F1D001D002D00312998F900742E475F00112502C0228E790073F12524F
:402A8000D1C003C002C0017BFF7A68797A9007AB1252F1D001D002D00312998F90073F1252D1C003C002C0017BFF7A68797A9007AB1252F1D001D002D00312998F7B017A8C
:402AC000077944C003C002C0017BFF7A6979359007AB1252F1D001D002D00312645B9004E6E0FFEF5403FFEF60237B017A077944C003C002C0017BFF7A6979459007AB1264
:402B000052F1D001D002D00312998F80217B017A077944C003C002C0017BFF7A69794B9007AB1252F1D001D002D00312998F90073F1252D1C003C002C0017B017A0779448E
:402B40009007AB1252F1D001D002D00312998F90073F1252D1C003C002C0017BFF7A6979509007AB1252F1D001D002D00312998F90073F1252D1C003C002C0017BFF7A69A2
:402B800079669007AB1252F1D001D002D00312998F900742E4F0A3E4F0900742E0FEA3E0FFC3EF9403EE648094804003022C787B017A077944C003C002C0017BFF7A6979A4
:402BC000769007AB1252F1900742E0FEA3E0FFEF2401FFEE3400FE9007AEEEF0A3EFF0900742E0FEA3E0FFEF7802C333CE33CED8F9FF74502FF58274063EF58312527F9073
:402C00000742E0FAA3E0FB74852BF58274043AF583E0F9A80112521E9007B0EEF0A3EFF0D001D002D00312645B90073F1252D1C003C002C0017B017A0779449007AB12528B
:402C4000F1D001D002D00312998F90073F1252D1C003C002C0017BFF7A68797A9007AB1252F1D001D002D00312998F900742E475F00112502C022B997B017A077944C003D8
:402C8000C002C0017BFF7A69797F9007AB1252F190058812527F9007AE125297D001D002D00312645B90073F1252D1C003C002C0017B017A0779449007AB1252F1D001D0DB
:402CC00002D00312998F90073F1252D1C003C002C0017BFF7A68797A9007AB1252F1D001D002D00312998F7B017A077944C003C002C0017BFF7A6979919007AB1252F19050
:402D0000065C12527F9007AE125297D001D002D00312645B90073F1252D1C003C002C0017B017A0779449007AB1252F1D001D002D00312998F90073F1252D1C003C002C025
:402D4000017BFF7A68797A9007AB1252F1D001D002D00312998F90073F1252D1C003C002C0017BFF7A6979A39007AB1252F1D001D002D00312998F90073F1252D1C003C01D
:402D800002C0017BFF7A6979B99007AB1252F1D001D002D00312998F7B017A077944C003C002C0017BFF7A6979CB9007AB1252F190045212527FEC124D517B007A007980EF
:402DC0007847124C3B9007AE125297D001D002D00312645B90073F1252D1C003C002C0017B017A0779449007AB1252F1D001D002D00312998F7B017A077944C003C002C0A3
:402E0000017BFF7A6979D59007AB1252F190045612527FEC124D517B007A0079807847124C3B9007AE125297D001D002D00312645B90073F1252D1C003C002C0017B017AD2
:402E40000779449007AB1252F1D001D002D00312998F7B017A077944C003C002C0017BFF7A6979DF9007AB1252F190045A12527FEC124D517B007A0079807847124C3B90B8
:402E800007AE125297D001D002D00312645B90073F1252D1C003C002C0017B017A0779449007AB1252F1D001D002D00312998F90073F1252D1C003C002C0017BFF7A6979A2
:402EC000E99007AB1252F1D001D002D00312998F7B017A077944C003C002C0017BFF7A6979CB9007AB1252F190045E12527FEC124D517B007A0079807847124C3B9007AE6E
:402F0000125297D001D002D00312645B90073F1252D1C003C002C0017B017A0779449007AB1252F1D001D002D00312998F7B017A077944C003C002C0017BFF7A6979D590C2
:402F400007AB1252F190046212527FEC124D517B007A0079807847124C3B9007AE125297D001D002D00312645B90073F1252D1C003C002C0017B017A0779449007AB125257
:402F8000F1D001D002D00312998F7B017A077944C003C002C0017BFF7A6979DF9007AB1252F190046612527FEC124D517B007A0079807847124C3B9007AE125297D001D084
:402FC00002D00312645B90073F1252D1C003C002C0017B017A0779449007AB1252F1D001D002D00312998F90073F1252D1C003C002C0017BFF7A68797A9007AB1252F1D0D2
:4030000001D002D00312998F900482E0FFEFB4032390073F1252D1C003C002C0017BFF7A6A79039007AB1252F1D001D002D00312998F802190073F1252D1C003C002C0018E
:403040007BFF7A6A791D9007AB1252F1D001D002D00312998F900483E0FFEF1252FA30740030980130BC0230DF033102043125050000314690073F1252D1C003C002C0010B
:403080007BFF7A6A79369007AB1252F1D001D002D00312998F02314690073F1252D1C003C002C0017BFF7A6A79489007AB1252F1D001D002D00312998F02314690073F122B
:4030C00052D1C003C002C0017BFF7A6A795D9007AB1252F1D001D002D00312998F806790073F1252D1C003C002C0017BFF7A6A797C9007AB1252F1D001D002D00312998F1A
:40310000804490073F1252D1C003C002C0017BFF7A6A79979007AB1252F1D001D002D00312998F802190073F1252D1C003C002C0017BFF7A6A79AE9007AB1252F1D001D016
:4031400002D00312998F900484E0FFEF1252FA315F0031820131A50231C803000031E990073F1252D1C003C002C0017BFF7A6A79C99007AB1252F1D001D002D00312998F92
:40318000806790073F1252D1C003C002C0017BFF7A6A79E29007AB1252F1D001D002D00312998F804490073F1252D1C003C002C0017BFF7A6A79F69007AB1252F1D001D0BD
:4031C00002D00312998F802190073F1252D1C003C002C0017BFF7A6B790E9007AB1252F1D001D002D00312998F9004C9E0FFEF602390073F1252D1C003C002C0017BFF7AAE
:403200006B79339007AB1252F1D001D002D00312998F802190073F1252D1C003C002C0017BFF7A6B79549007AB1252F1D001D002D00312998F7B017A077944C003C002C0CC
:40324000017BFF7A6B79749007AB1252F19004CAE0FFEF3395E0FE9007AEEEF0A3EFF0D001D002D00312645B90073F1252D1C003C002C0017B017A0779449007AB1252F10A
:40328000D001D002D00312998F90073F1252D1C003C002C0017BFF7A6B798D9007AB1252F1D001D002D00312998F900742E4F0A3E4F0900742E0FEA3E0FFC3EF9403EE6469
:4032C000809480400302336E7B017A077944C003C002C0017BFF7A6979769007AB1252F1900742E0FEA3E0FFEF2401FFEE3400FE9007AEEEF0A3EFF0900742E0FEA3E0FF27
:4033000074852FF58274043EF583E0FF7E009007B0EEF0A3EFF0D001D002D00312645B90073F1252D1C003C002C0017B017A0779449007AB1252F1D001D002D00312998F23
:4033400090073F1252D1C003C002C0017BFF7A68797A9007AB1252F1D001D002D00312998F900742E475F00112502C0232B290073F1252D1C003C002C0017BFF7A6B79A204
:403380009007AB1252F1D001D002D00312998F900742E4F0A3E4F0900742E0FEA3E0FFC3EF9403EE6480948040030234747B017A077944C003C002C0017BFF7A6B79B8902D
:4033C00007AB1252F1900742E0FEA3E0FFEF2401FFEE3400FE9007AEEEF0A3EFF0900742E0FEA3E0FFEF7802C333CE33CED8F9FF74882FF58274043EF58312527F900742F2
:40340000E0FAA3E0FB74852BF58274043AF583E0F9A80112521E9007B0125297D001D002D00312645B90073F1252D1C003C002C0017B017A0779449007AB1252F1D001D09F
:4034400002D00312998F90073F1252D1C003C002C0017BFF7A68797A9007AB1252F1D001D002D00312998F900742E475F00112502C02339790073F1252D1C003C002C00188
:403480007BFF7A6B79C29007AB1252F1D001D002D00312998F900742E4F0A3E4F0900742E0FEA3E0FFC3EF9403EE6480948040030235617B017A077944C003C002C0017B49
:4034C000FF7A6B79DC9007AB1252F1900742E0FEA3E0FFEF2401FFEE3400FE9007AEEEF0A3EFF0900742E0FEA3E0FFEF7802C333CE33CED8F9FF74942FF58274043EF583D8
:4035000012527F9007B0125297D001D002D00312645B90073F1252D1C003C002C0017B017A0779449007AB1252F1D001D002D00312998F90073F1252D1C003C002C0017B01
:40354000FF7A68797A9007AB1252F1D001D002D00312998F900742E475F00112502C02349D7B017A077944C003C002C0017BFF7A6B79E59007AB1252F1900537E0FF7E002F
:403580009007AEEEF0A3EFF0D001D002D00312645B90073F1252D1C003C002C0017B017A0779449007AB1252F1D001D002D00312998F90073F1252D1C003C002C0017BFF02
:4035C0007A68797A9007AB1252F1D001D002D00312998F900742E4F0A3E4F0900742E0FEA3E0FFC3EF9401EE6480948040030237187B017A077944C003C002C0017BFF7A9D
:403600006B79FF9007AB1252F1900742E0FEA3E0FFEF2401FFEE3400FE9007AEEEF0A3EFF0900742E0FEA3E0FFEF7802C333CE33CED8F9FF74382FF58274053EF5831252E3
:403640007F900742E0FAA3E0FB741C2BF58274053AF583E0F9A80112521E9007B0125297D001D002D00312645B90073F1252D1C003C002C0017B017A0779449007AB1252FF
:40368000F1D001D002D00312998F7B017A077944C003C002C0017BFF7A6C79259007AB1252F1900742E0FEA3E0FFEF7802C333CE33CED8F9FF74402FF58274053EF5831202
:4036C000527F900742E0FAA3E0FB741C2BF58274053AF583E0F9A80112521E9007AE125297D001D002D00312645B90073F1252D1C003C002C0017B017A0779449007AB1281
:4037000052F1D001D002D00312998F900742E475F00112502C0235DB7B017A077944C003C002C0017BFF7A6C79329007AB1252F190054812527F9007AEEEF0A3EFF0900537
:403740004C12527F9007B0EEF0A3EFF0D001D002D00312645B90073F1252D1C003C002C0017B017A0779449007AB1252F1D001D002D00312998F90073F1252D1C003C0024A
:40378000C0017BFF7A68797A9007AB1252F1D001D002D00312998F7B017A077944C003C002C0017BFF7A6C794E9007AB1252F1900550E0FEA3E0FF9007AEEEF0A3EFF0D03A
:4037C00001D002D00312645B90073F1252D1C003C002C0017B017A0779449007AB1252F1D001D002D00312998F90073F1252D1C003C002C0017BFF7A68797A9007AB1252BA
:40380000F1D001D002D00312998F7B017A077944C003C002C0017BFF7A6C79609007AB1252F1900552E0FEA3E0FF9007AEEEF0A3EFF0900554E0FEA3E0FF9007B0EEF0A31A
:40384000EFF0D001D002D00312645B90073F1252D1C003C002C0017B017A0779449007AB1252F1D001D002D00312998F90073F1252D1C003C002C0017BFF7A68797A900799
:40388000AB1252F1D001D002D00312998F7B017A077944C003C002C0017BFF7A6C79829007AB1252F190055712527F9007AE12529790055B12527F9007B2125297D001D09F
:4038C00002D00312645B90073F1252D1C003C002C0017B017A0779449007AB1252F1D001D002D00312998F90073F1252D1C003C002C0017BFF7A68797A9007AB1252F1D0C9
:4039000001D002D00312998F900556E0FFEF602390073F1252D1C003C002C0017BFF7A6C79A69007AB1252F1D001D002D00312998F802190073F1252D1C003C002C0017BE7
:40394000FF7A6C79C19007AB1252F1D001D002D00312998F7B017A077944C003C002C0017BFF7A6C79DB9007AB1252F190055FE0FF7E009007AEEEF0A3EFF0D001D002D02D
:403980000312645B90073F1252D1C003C002C0017B017A0779449007AB1252F1D001D002D00312998F90073F1252D1C003C002C0017BFF7A68797A9007AB1252F1D001D009
:4039C00002D00312998F7B017A077944C003C002C0017BFF7A6C79ED9007AB1252F190058412528BC374419BFF744B9AFE744C99FDE498FC9007AE125297D001D002D00366
:403A000012645B90073F1252D1C003C002C0017B017A0779449007AB1252F1D001D002D00312998F90073F1252D1C003C002C0017BFF7A68797A9007AB1252F1D001D00289
:403A4000D00312998F227F007E007D007C008F268E258D248C2390045212527F8F428E418D408C3F90045612527F8F468E458D448C4390045A12527F8F4A8E498D488C471A
:403A800090045E12527F8F4E8E4D8D4C8C4B90046212527F8F528E518D508C4F90046612527F8F568E558D548C5390046A12527F8F5A8E598D588C5790046E12527F8F5EC8
:403AC0008E5D8D5C8C5B90047212527F8F628E618D608C5F90047612527F8F668E658D648C6390047A12527F8F6A8E698D688C6790047E12527F8F6E8E6D8D6C8C6B90047B
:403B0000BBE0FEA3E0FFAB07AA06E4F9F890066712527F1250848F3A8E398D388C379004BDE0FEA3E0FFAB07AA06E4F9F890066B12527F1250848F3E8E3D8D3C8C3B9004E7
:403B400083E0FFEF1252FA3B5A013C4D023CB8033DBE043F3A05000040FF9004C9E0FFEF601F9004CAE0FFEF3395E0FEFDFC90065812528B1250928F368E358D348C3380F4
:403B80001D9004CAE0FFEF3395E0FEFDFC90065412528B1250928F368E358D348C339004CE12528BC3E5369BFFE5359AFEE53499FDE53398FC9004B112528BC31251E450E4
:403BC0002C7F007E007D007C009004B112528BC31251E460189004CE12527F9004B112528B1250779004CE1252970240FF9004CE12528BC3E5369BFFE5359AFEE53499FDD3
:403C0000E53398FC9004B512528BD31251E4402C7F007E007D007C009004B512528BC31251E460189004CE12527F9004B512528B1250779004CE1252970240FFAF36AE35AE
:403C4000AD34AC339004CE1252970240FF7F007E007D007C00AB3AAA39A938A837D31251E4404490054012527FAB3AAA39A938A837125092C004C005C006C0079004BBE051
:403C8000FEA3E0FFC3E49FFF74049EFEAB07AA06E4F9F8D007D006D005D00412A36D9004CE1252970240FF7F007E007D007C009004CE1252970240FF7F007E007D007C0054
:403CC000AB3AAA39A938A837D31251E4406A9004CE12527FC004C005C006C00790055FE0FFE4FCFDFEAB3AAA39A938A8371250927801125232C004C005C006C0079004BB7F
:403D0000E0FEA3E0FFC3E49FFF74049EFEAB07AA06E4F9F8D007D006D005D00412A36DA804A905AA06AB07D007D006D005D0041250779004CE1252977F007E007D007C00DD
:403D4000AB3EAA3DA93CA83BD31251E450030240FF9004CE12527FC004C005C006C00790055FE0FFE4FCFDFEAB3EAA3DA93CA83B1250927801125232C004C005C006C00743
:403D80009004BDE0FEA3E0FFC3E49FFF74049EFEAB07AA06E4F9F8D007D006D005D00412A36DA804A905AA06AB07D007D006D005D0041250849004CE1252970240FF90071D
:403DC00008E0FFEF1252FA3DD4003E15013EA602000040FF7F007E007D007C00AB3AAA39A938A837D31251E440099007087401F00240FF7F007E007D007C00AB3EAA3DA970
:403E00003CA83BD31251E450030240FF9007087402F00240FF7F007E007D007C00AB3AAA39A938A837C31251E45008900708E4F00240FF9004CE12527FC004C005C006C087
:403E40000790055FE0FFE4FCFDFEAB3AAA39A938A8371250927B027A0079007800125092C004C005C006C0079004BBE0FEA3E0FFC3E49FFF74049EFEAB07AA06E4F9F8D010
:403E800007D006D005D00412A36DA804A905AA06AB07D007D006D005D0041250779004CE1252970240FF7F007E007D007C00AB3EAA3DA93CA83BC31251E45008900708E45E
:403EC000F00240FF9004CE12527FC004C005C006C00790055FE0FFE4FCFDFEAB3EAA3DA93CA83B1250927B027A0079007800125092C004C005C006C0079004BDE0FEA3E058
:403F0000FFC3E49FFF74049EFEAB07AA06E4F9F8D007D006D005D00412A36DA804A905AA06AB07D007D006D005D0041250849004CE1252970240FF0240FF900708E0FFEF36
:403F40001252FA3F50003F9101404B02000040FF7F007E007D007C00AB3AAA39A938A837D31251E440099007087401F00240FF7F007E007D007C00AB3EAA3DA93CA83BD330
:403F80001251E450030240FF9007087402F00240FF7F007E007D007C00AB3AAA39A938A837C31251E4501E7F007E007D007C00AB3EAA3DA93CA83BC31251E450089007085B
:403FC000E4F00240FF7F007E007D007C00AB3AAA39A938A837D31251E450030240FF9004CE12527FC004C005C006C00790055FE0FFE4FCFDFEAB3AAA39A938A837125092FB
:404000007802125232C004C005C006C0079004BBE0FEA3E0FFC3E49FFF74049EFEAB07AA06E4F9F8D007D006D005D00412A36DA804A905AA06AB07D007D006D005D004127F
:4040400050779004CE1252970240FF7F007E007D007C00AB3AAA39A938A837C31251E4501E7F007E007D007C00AB3EAA3DA93CA83BC31251E45008900708E4F00240FF7FC2
:40408000007E007D007C00AB3EAA3DA93CA83BD31251E4406A9004CE12527FC004C005C006C0079004C8E0FFE4FCFDFEAB3EAA3DA93CA83B1250927802125232C004C00597
:4040C000C006C0079004BDE0FEA3E0FFC3E49FFF74049EFEAB07AA06E4F9F8D007D006D005D00412A36DA804A905AA06AB07D007D006D005D0041250849004CE1252979095
:4041000004A0E0FFEF603C9004A112527F9004CE12528BC31251E4500C9004A112527F9004CE1252979004A912527F9004CE12528BD31251E4400C9004A912527F9004CED4
:40414000125297900484E0FFEF1252FA45490048F80146C402415C030000497090065012528B9004CE12527F1250848F2A8E298D288C279006F812527FEF252AFFEE3529FA
:40418000FEED3528FDEC3527FC9006F81252977F807EF07DFA7C029006F812528BD31251E440107F807EF07DFA7C029006F812529780227F807E0F7D057CFD9006F812529E
:4041C0008BC31251E4500E7F807E0F7D057CFD9006F81252977F007E007D007C008F328E318D308C2F7F007E007D007C00AB5AAA59A958A857C31251E46030AF2AAE29ADD9
:4042000028AC27AB5AAA59A958A857125092781012521EE5322FFFE5313EFEE5303DFDE52F3CFC8F328E318D308C2F7F007E007D007C00AB5EAA5DA95CA85BC31251E460DB
:40424000339006F812527F780612521EAB5EAA5DA95CA85B125092780A12521EE5322FFFE5313EFEE5303DFDE52F3CFC8F328E318D308C2F7F007E007D007C00AB62AA6152
:40428000A960A85FC31251E4603F90070012528BC3E52A9BFFE5299AFEE52899FDE52798FCAB62AA61A960A85F125092781012521EE5322FFFE5313EFEE5303DFDE52F3C0E
:4042C000FC8F328E318D308C2FAF2AAE29AD28AC279007001252977F007E007D007C00AB32AA31A930A82FC31251E44004D20E8002C20E9004B9E0FEA3E0FFEE3395E0FDC2
:40430000FCAB32AA31A930A82FD31251E440189004B9E0FEA3E0FFEE3395E0FDFC8F328E318D308C2F80409004B9E0FEA3E0FFC3E49FFFE49EFEEE3395E0FDFCAB32AA31FA
:40434000A930A82FC31251E4501D9004B9E0FEA3E0FFC3E49FFFE49EFEEE3395E0FDFC8F328E318D308C2FAF32AE31AD30AC2F90066012529790065C12528BC3E5329BFF5F
:40438000E5319AFEE53099FDE52F98FC8F2E8E2D8D2C8C2B9006FC12527FEF252EFFEE352DFEED352CFDEC352BFC9006FC1252977FA07E867D017C009006FC12528BD3126D
:4043C00051E440107FA07E867D017C009006FC12529780227F607E797DFE7CFF9006FC12528BC31251E4500E7F607E797DFE7CFF9006FC1252977F007E007D007C008F2633
:404400008E258D248C237F007E007D007C00AB66AA65A964A863C31251E46030AF2EAE2DAD2CAC2BAB66AA65A964A863125092781012521EE5262FFFE5253EFEE5243DFD41
:40444000E5233CFC8F268E258D248C237F007E007D007C00AB6AAA69A968A867C31251E460339006FC12527F780612521EAB6AAA69A968A867125092780A12521EE5262F6A
:40448000FFE5253EFEE5243DFDE5233CFC8F268E258D248C237F007E007D007C00AB6EAA6DA96CA86BC31251E4603F90070412528BC3E52E9BFFE52D9AFEE52C99FDE52B1A
:4044C00098FCAB6EAA6DA96CA86B125092781012521EE5262FFFE5253EFEE5243DFDE5233CFC8F268E258D248C237F9C7EFF7DFF7CFFAB26AA25A924A823C31251E45012D5
:404500007F9C7EFF7DFF7CFF8F268E258D248C2380267F647E007D007C00AB26AA25A924A823D31251E440107F647E007D007C008F268E258D248C23AF2EAE2DAD2CAC2BF8
:4045400090070412529702497090065012528B9004CE12527F1250848F2A8E298D288C279006F812527FEF252AFFEE3529FEED3528FDEC3527FC9006F81252977FE87E031E
:404580007D007C009006F812528BD31251E440107FE87E037D007C009006F812529780227F187EFC7DFF7CFF9006F812528BC31251E4500E7F187EFC7DFF7CFF9006F8127A
:4045C00052977F007E007D007C00AB42AA41A940A83FC31251E46020AF2AAE29AD28AC27AB42AA41A940A83F125092781012521E8F268E258D248C237F007E007D007C00EE
:40460000AB46AA45A944A843C31251E460339006F812527FAB46AA45A944A843125092780612521E780A12521EE5262FFFE5253EFEE5243DFDE5233CFC8F268E258D248C5D
:40464000237F007E007D007C00AB4AAA49A948A847C31251E4603F90070012528BC3E52A9BFFE5299AFEE52899FDE52798FCAB4AAA49A948A847125092781012521EE52604
:404680002FFFE5253EFEE5243DFDE5233CFC8F268E258D248C23AF2AAE29AD28AC279007001252977F007E007D007C00AB26AA25A924A823D31251E44005D20E024970C267
:4046C0000E0249709004E6E0FFEF7003024970200D030249709004D612527F8F328E318D308C2F9004B9E0FEA3E0FFEE3395E0FDFCAB32AA31A930A82FD31251E4401890A5
:4047000004B9E0FEA3E0FFEE3395E0FDFC8F328E318D308C2F80409004B9E0FEA3E0FFC3E49FFFE49EFEEE3395E0FDFCAB32AA31A930A82FC31251E4501D9004B9E0FEA367
:40474000E0FFC3E49FFFE49EFEEE3395E0FDFC8F328E318D308C2F90065C12528BC3E5329BFFE5319AFEE53099FDE52F98FC8F2E8E2D8D2C8C2B9006FC12527FEF252EFF1A
:40478000EE352DFEED352CFDEC352BFC9006FC1252977FA07E867D017C009006FC12528BD31251E440107FA07E867D017C009006FC12529780227F607E797DFE7CFF9006D5
:4047C000FC12528BC31251E4500E7F607E797DFE7CFF9006FC1252977F007E007D007C008F268E258D248C237F007E007D007C00AB4EAA4DA94CA84BC31251E46030AF2E0A
:40480000AE2DAD2CAC2BAB4EAA4DA94CA84B125092781012521EE5262FFFE5253EFEE5243DFDE5233CFC8F268E258D248C237F007E007D007C00AB52AA51A950A84FC3129A
:4048400051E460339006FC12527F780612521EAB52AA51A950A84F125092780A12521EE5262FFFE5253EFEE5243DFDE5233CFC8F268E258D248C237F007E007D007C00ABB0
:4048800056AA55A954A853C31251E4603F90070412528BC3E52E9BFFE52D9AFEE52C99FDE52B98FCAB56AA55A954A853125092781012521EE5262FFFE5253EFEE5243DFD5B
:4048C000E5233CFC8F268E258D248C23AF2EAE2DAD2CAC2B9007041252977F007E007D007C00AB26AA25A924A823C31251E44004D20E807CC20E80789004DE12527F8F2688
:404900008E258D248C237F007E007D007C00AB26AA25A924A823D31251E44004D20E8002C20E7F007E007D007C00AB26AA25A924A823C31251E450127F007E007D007C0016
:404940008F268E258D248C2380267F647E007D007C00AB26AA25A924A823D31251E440107F647E007D007C008F268E258D248C237F647E007D007C00AB26AA25A924A82319
:40498000D31251E440107F647E007D007C008F268E258D248C237F9C7EFF7DFF7CFFAB26AA25A924A823C31251E450107F9C7EFF7DFF7CFF8F268E258D248C23900484E0EB
:4049C000FFEF64016039AF26AE25AD24AC23780A1252327B647A007900780012A36DA804A905AA06AB0790066FE0FFE4FCFDFE125092780A12521E8F268E258D248C237F45
:404A0000007E007D007C00AB26AA25A924A823C31251E440047F0180027FFF90064FEFF0300E077F0112AD5B80057F0012AD5BAE25AF2612AF1712AD2B22024DFBE8648096
:404A4000F8E933E83360110460F0ED33EC337009E8FCE9FDEAFEEBFF220460DED3EB9FEA9EE99DE8C2E78CF0C2F795F0400CE8CCF8E9CDF9EACEFAEBCFFB124DC685D0F05C
:404A80005804700320D5B3E80470075002B2D5024E0592D5EC0460F7E4CCC0E0C398F8603B94186008400DD0E0FB024DDDE4FBFAC9FC8028E830E406E4C9FBE4CAFCE83018
:404AC000E305E4C9CACBFCE854076010F8C3E913F9EA13FAEB13FBEC13FCD8F130F52FC3E49CFCEF9BFFEE9AFEED99FDD0E0FBEF4E4D4C701222DB03024E02EC2CFCEF33C9
:404B0000FFEE33FEED33FDED30E7EB024DDDEF2BFFEE3AFEED39FDD0E0FB50130BBB0003024E05ED13FDEE13FEEF13FFEC13FC024DDDEC4D6011E8497017ED33EC33046068
:404B40000DE4FCFFFEFD22E933E8330470F8024DFB124DC658046009E4CC24815006285009024E05284003024E02C0E0EB4A7044B98006D0E0FB024DF1EF4E701CBD800856
:404B8000EBFFEAFEE9FD80EBE98DF0A4FEE5F0024C1BE9CDF9EAFEEBFFEF89F0A4FCE5F0CE89F0A42EFFE435F0CD89F0A42DFEE435F08067EF4E7005BD80D780C3EF8BF095
:404BC000A4ACF0EE8BF0A42CFCE435F0F8EF8AF0A42CE5F038FCE433CB8DF0A42CFCE5F03BF8EE8AF0A42CFCE5F038F8E433CF89F0A42CFCE5F038CF3400CE89F0A42FFF3D
:404C0000E5F03EFEE433C98DF0A42EFEE5F039CD8AF0A42FFFE5F03EFEE43DFD33D0E0FB50070BBB000F024E05EC2CFCEF33FFEE33FEED33FD024DDD024E05EC5D046005DD
:404C4000E859047003024DFB124DC6580460F6EC4860F2EC7004FDFEFF22C860DB2481C85009C39860025006024E029850CAF582E9294B4A7005AB82024DF175F0007C1A7E
:404C80007880C3EF9BEE9AED99400DC3EF9BFFEE9AFEED99FDE842F0DC23ACF0D0E0FFD0E0FED0E0FDAB8220E7101BEB60BAEC2CFCEF33FFEE33FEED33FD024DDDE803F85C
:404CC00030E705C0F075F000EF2FFFEE33FEED33FD40B830E7C280AA74F8CC6480CCC86480C8F58204604FC3EB9FF5F0EA9E42F0E99D42F0E89C45F0603C501DE5825FFF7E
:404D0000E582D313CB5BCBF42B5582FB50280ABA002409B9002008801DE5825BFBE582D313CF5FCFF4C3132F5582FF50090EBE00050DBD00010CC3EB9FF5F0EA9E42F0E9B1
:404D40009D42F0E89C45F06007CC4820E701B3EC2275F020800E75F010800575F0087D007E007F003392D530D5031251D6EC334010EF33FFEE33FEED33FDEC33FCD5F0EDFF
:404D800022E5F0247EA2D513CC92E7CDCEFF22EDD2E7CD33EC3392D524814006E4FFFEFDFC22FCE4CFCECDCC24E0501174FF80EDC3CC13CCCD13CDCE13CECF13CF0470F082
:404DC00030D5DE0251D6E9D2E7C933E833F892D5EDD2E7CD33EC33FC5002B2D522EC30E7100FBF000C0EBE00080DBD00040BEB6014A2D5EB13FCED92E7FD2274FFFCFDFE7A
:404E0000FF22E480F8A2D574FF13FC7D80E480EFF920E73624F950037907E4F42402FBE582158270021583DBF6E024FB501BE96014E4F0E582158270021583E004F0B40A7F
:404E400008E4F0D9EE7401F00A22C2D522ED33EC3392D5FA602AB4FF33EDC2E77BFF60067A4E7972E4227A4E797B20D5047A4E7976224E614E002B494E46002D494E460069
:404E8000E47A08F0A3DAFC7B00740722C083C082ECC0E0EDC0E0EEC0E0EFC0E0EA75F010A4CAABF075F04DA42BFBE435F0FCEA2410FAEB34C5FBEC34D9FCEDC2E7FF75F081
:404EC00056A4F42411C5F0F434C58FF0A42AE5F03BE43CF020E714124F82D0E0FFD0E0FED0E0FDD0E0FC124C3B8014F404124F82D0E0FFD0E0FED0E0FDD0E0FC124B32D0AF
:404F000082D083E0FAEDD2E7CD33EC332482FBE4C3CF33CFCE33CECD33CD33DBF37B0775F00A846004F0A31B0AE5F0F0A38FF0740AA4FFACF08EF0740AA42CFEACF050015B
:404F40000C8DF0740AA42CFDE435F0F0A3DBDE7407223F8000004120000042C80000447A0000461C400047C35000497424004B1896804CBEBC205A0E1BCA6753C21C749D51
:404F8000C5AEFB60065407601C2323124FB0EB54386009124F9C124FAB124B32ECF8EDF9EEFAEFCB22EB124FAB80F1543803241C904F52FE93FC0EEE93FD0EEE930ECE936A
:404FC000FF22BB010689828A83E0225002E722BBFE02E32289828A83E49322BB010CE58229F582E5833AF583E0225006E92582F8E622BBFE06E92582F8E222E58229F582C5
:40500000E5833AF583E49322BB010689828A83F0225002F722BBFE01F322EF8DF0A4A8F0CF8CF0A428CE8DF0A42EFE22C5F0F8A3E028F0C5F0F8E582158270021583E03886
:40504000F022A3F8E0C5F025F0F0E582158270021583E0C838F0E822BB010A89828A83F0E5F0A3F0225006F709A7F01922BBFE06F3E5F009F31922EF2BFFEE3AFEED39FD67
:40508000EC38FC22C3EF9BFFEE9AFEED99FDEC98FC22E88FF0A4CC8BF0A42CFCE98EF0A42CFC8AF0EDA42CFCEA8EF0A4CDA8F08BF0A42DCC3825F0FDE98FF0A42CCD35F036
:4050C000FCEB8EF0A4FEA9F0EB8FF0A4CFC5F02ECD39FEE43CFCEAA42DCE35F0FDE43CFC2275F008758200EF2FFFEE33FECD33CDCC33CCC58233C5829BED9AEC99E58298A8
:40510000400CF582EE9BFEED9AFDEC99FC0FD5F0D6E4CEFBE4CDFAE4CCF9A88222B800C1B90059BA002DEC8BF084CFCECDFCE5F0CBF97818EF2FFFEE33FEED33FDEC33FCC9
:40514000EB33FB10D703994004EB99FB0FD8E5E4F9FA227818EF2FFFEE33FEED33FDEC33FCC933C910D7059BE99A4007EC9BFCE99AF90FD8E0E4C9FAE4CCFB2275F010EF53
:405180002FFFEE33FEED33FDCC33CCC833C810D7079BEC9AE899400AED9BFDEC9AFCE899F80FD5F0DAE4CDFBE4CCFAE4C8F922EF5BFFEE5AFEED59FDEC58FC22EF4BFFEE77
:4051C0004AFEED49FDEC48FC22CFF4CFCEF4CECDF4CDCCF4CC22C3E49FFFE49EFEE49DFDE49CFC22EB9FF5F0EA9E42F0E99D42F0EC6480C864809845F022EB9FF5F0EA9E60
:4052000042F0E99D42F0E89C45F022E8600FECC313FCED13FDEE13FEEF13FFD8F122E86010ECA2E713FCED13FDEE13FEEF13FFD8F022E8600FEFC333FFEE33FEED33FDEC86
:4052400033FCD8F122BB010789828A8302527F5005E9F8025555BBFE05E9F802556189828A8302556DBB010789828A830252975005E9F802557DBBFE05E9F802558922E000
:40528000FCA3E0FDA3E0FEA3E0FF22E0F8A3E0F9A3E0FAA3E0FB22ECF0A3EDF0A3EEF0A3EFF022A42582F582E5F03583F58322E6FB08E6FA08E6F922FAE6FB0808E625F0BA
:4052C000F9F618E63AFAF622EBF608EAF608E9F622E0FBA3E0FAA3E0F922F8E0FBA3A3E0F925F0F0E582158270021583E0FA38F022EBF0A3EAF0A3E9F022D083D082F8E413
:40530000937012740193700DA3A393F8740193F5828883E4737402936860EFA3A3A380DFD083D082F8E4937012740193700DA3A393F8740193F5828883E473740293B5F09E
:40534000067403936860E9A3A3A3A380D8E5112582F582E5103583F583B510048582112210AF06858211F51022858211F510D2AF22EC8EF0A4CCC5F0CCCDF8EFA4CEC5F052
:405380002DFDE43CFCE8A42EC8C5F03DFDE43CFCEFA4FFE5F028FEE43DFDE43CFC22E709F608DFFA8046E709F208DFFA803E88828C83E709F0A3DFFA8032E309F608DFFA39
:4053C000806EE309F208DFFA806688828C83E309F0A3DFFA805A89828A83E0A3F608DFFA804E89828A83E0A3F208DFFA804280D280FA80C680D4805580F28029801080A653
:4054000080EA809A80A880DA80E280CA802988848C8589828A83E493A30586F0A30586DFF5DEF3800B89828A83E493A3F608DFF9ECFAA9F0EDFB2288848C8589828A83E043
:40544000A30586F0A30586DFF6DEF480E389828A83E493A3F208DFF980D688F0EF60010E4E60CD88F0ED2402B4040050C3F582EB2402B4040050B923234582239053EE7318
:40548000E709F60870FA8046E709F20870FA803E88828C83E709F0A370FA8074E309F60870FA806CE309F20870FA806488828C83E309F0A370FA805889828A83E0A3F608DB
:4054C00070FA804C89828A83E0A3F20870FA804080D280FA80C680D4805180F28027801080A680EA809A80A880DA80E280CA802788848C8589828A83E493A30586F0A305E6
:405500008670F5800B89828A83E493A3F60870F9ECFAA9F0EDFB2288848C8589828A83E0A30586F0A3058670F680E589828A83E493A3F20870F980D888F0ED2402B4040077
:4055400050CEF582EB2402B4040050C423234582239054D073E6FC08E6FD08E6FE08E6FF22E2FC08E2FD08E2FE08E2FF22E493FC740193FD740293FE740393FF22ECF6084E
:40558000EDF608EEF608EFF622ECF208EDF208EEF208EFF22290073DEEF0A3EFF090073F7402F090073DE0FEA3E0FFEF8EF012532056090000561F00015793000257A900FE
:4055C0000357BF0004581B00055881000658D1000758E7000859630009597B000A57D5000B5993000C59AF000D59C5000E59F0000F5A13001056D900125A2800135A3D006B
:40560000145A52001500005A65900451E0FF900740EFF0900753E4F0A37403F0025A65900484E0FFEF6403605390045212527FEC124D517B007A0079807847124C3B900791
:405640004012529790045612527FEC124D517B007A0079807847124C3B90074412529790045A12527FEC124D517B007A0079807847124C3B900748125297805190046A12FC
:40568000527FEC124D517B007A0079807847124C3B90074012529790046E12527FEC124D517B007A0079807847124C3B90074412529790047212527FEC124D517B007A004E
:4056C00079807847124C3B900748125297900753E4F0A3740EF0025A65900484E0FFEF6403605390045E12527FEC124D517B007A0079807847124C3B9007401252979004CE
:405700006212527FEC124D517B007A0079807847124C3B90074412529790046612527FEC124D517B007A0079807847124C3B900748125297805190047612527FEC124D5179
:405740007B007A0079807847124C3B90074012529790047A12527FEC124D517B007A0079807847124C3B90074412529790047E12527FEC124D517B007A0079807847124CCC
:405780003B900748125297900753E4F0A3740EF0025A65900482E0FF900740EFF0900753E4F0A37403F0025A65900483E0FF900740EFF0900753E4F0A37403F0025A659047
:4057C0000484E0FF900740EFF0900753E4F0A37403F0025A65900755E4F0900755E0FFEFC39403502A900755E0FF74852FF582E43404F583E0FF900755E0FE74402EF582B5
:40580000E43407F583EFF0900755E004F080CB900753E4F0A37405F0025A65900755E4F0900755E0FFEFC39403504A900755E0FFEF25E025E02488F582E43404F58312520F
:405840007F900755E0FB74852BF582E43404F583E0F9A80112521E900755E0FDED25E02440F582E43407F583EEF0A3EFF0900755E004F080AB900753E4F0A37408F0025A0E
:4058800065900755E4F0900755E0FFEFC394035034900755E0FFEF25E025E02494F582E43404F58312527F900755E0FBEB25E025E02440F582E43407F583125297900755AC
:4058C000E004F080C1900753E4F0A3740EF0025A659004A0E0FF900740EFF0900753E4F0A37403F0025A65900755E4F0900755E0FFEFC394025060900755E0FFEF25E02546
:40590000E024A1F582E43404F58312527F900755E0FBEB75F008A42440F582E43407F583125297900755E0FFEF25E025E024A9F582E43404F58312527F900755E0FBEB75FE
:40594000F008A42444F582E43407F583125297900755E004F08095900753E4F0A37412F0025A659004B112527F900740125297900753E4F0A37406F0025A659004B512527A
:405980007F900740125297900753E4F0A37406F0025A659004B9E0FEA3E0FF900740EEF0A3EFF0900753E4F0A37404F0025A659004BFE0FF900740EFF0900753E4F0A374DF
:4059C00003F0025A659004BBE0FEA3E0FF900740EEF0A3EFF09004BDE0FEA3E0FF900742EEF0A3EFF0900753E4F0A37406F080759004C012527F9007401252979004C412F0
:405A0000527F900744125297900753E4F0A3740AF080529004C8E0FF900740EFF0900753E4F0A37403F0803D9004C9E0FF900740EFF0900753E4F0A37403F080289004CAE8
:405A4000E0FF900740EFF0900753E4F0A37403F080139004CBE0FF900740EFF0900753E4F0A37403F07B017A07793F900753E0FEA3E0FFEF14FD12A575900753E0FCA3E006
:405A8000FD743E2DF58274073CF583EFF07B017A07793F900753E0FCA3E0FD1292E92290073DEEF0A3EFF090073DE0FEA3E0FFEF8EF01253205B0D00005B1A00015C7200D5
:405AC000025C7F00035C8C00045CC600055D4400065D7B00075D8800085E4800095E7A000A5C99000B5EAC000C5EBF000D5ECB000E5EED000F5F0700105BC600125F1300C3
:405B0000135F3400145F40001500005F4A9005A8E0FF9004E8EFF0025F4A900484E0FFEF640360517F007E007D807C479005A812528B124B32124D8F9004E91252977F00D1
:405B40007E007D807C479005AC12528B124B32124D8F9004ED1252977F007E007D807C479005B012528B124B32124D8F9004F1125297025F4A7F007E007D807C479005A82B
:405B800012528B124B32124D8F9005011252977F007E007D807C479005AC12528B124B32124D8F9005051252977F007E007D807C479005B012528B124B32124D8F900509DD
:405BC000125297025F4A900484E0FFEF640360517F007E007D807C479005A812528B124B32124D8F9004F51252977F007E007D807C479005AC12528B124B32124D8F900419
:405C0000F91252977F007E007D807C479005B012528B124B32124D8F9004FD125297025F4A7F007E007D807C479005A812528B124B32124D8F90050D1252977F007E007D4E
:405C4000807C479005AC12528B124B32124D8F9005111252977F007E007D807C479005B012528B124B32124D8F900515125297025F4A9005A8E0FF900519EFF0025F4A90F1
:405C800005A8E0FF90051AEFF0025F4A9005A8E0FF90051BEFF0025F4A752800E528C394034003025F4AAF2874A82FF582E43405F583E0FFAE28741C2EF582E43405F5832A
:405CC000EFF0052880D6752800E528C39403506FAF28EF25E024A8F582E43405F583E0FEA3E0FFEE3395E0FDFCAB28EB25E025E0241FF582E43405F583125297AF28EF25F0
:405D0000E025E0241FF582E43405F583C083C08212527FAB28741C2BF582E43405F583E0F9A801125232D082D083125297AF2874642FF582E43406F583E4F00528808AD2AD
:405D40000A025F4A752800E528C394034003025F4AAF28EF25E025E024A8F582E43405F58312527FAB28EB25E025E0242BF582E43405F583125297052880CC9005A8E0FF3E
:405D8000900537EFF0025F4A752800E528C394024003025F4AAF28EF75F008A424A8F582E43405F58312527FAB28EB25E025E02438F582E43405F583125297AF28EF75F0B4
:405DC00008A424ACF582E43405F58312527FAB28EB25E025E02440F582E43405F583125297AF28EF25E025E02438F582E43405F583C083C08212527FAB28741C2BF582E47C
:405E00003405F583E0F9A801125232D082D083125297AF28EF25E025E02440F582E43405F583C083C08212527FAB28741C2BF582E43405F583E0F9A801125232D082D083FA
:405E40001252970528025D8B9005A812527F90073F1252977F007E007D007C0090073F12528BC31251E45003025F4A90073F12527F900548125297025F4A9005A812527F00
:405E800090073F1252977F007E007D007C0090073F12528BD31251E44003025F4A90073F12527F90054C125297025F4A9005A8E0FEA3E0FF900550EEF0A3EFF0025F4A90F1
:405EC00005A8E0FF900556EFF0807F9005A8E0FEA3E0FF900552EEF0A3EFF09005AAE0FEA3E0FF900554EEF0A3EFF0805D9005A812527F9005571252979005AC12527F90E9
:405F0000055B12529780439005A8E0FF90055FEFF080379005A8E0FF900743EFF0900743E0FFEF60089005607401F0801D900560E4F080169005A8E0FF900561EFF0800AE7
:405F40009005A8E0FF900562EFF07F0112A6522212AFD8EF700A300CF7C20C12833980F0900647E0FEA3E0FFEF249AFFEE34F9FEEE3395E0FDFC7BA07A07790078001250C2
:405F800092780712521E900588125297300C05C20C1283397F007E007D007C0090058812528BD31251E45003026377D20D900562E0FFEF6003129B9C900649E0FEA3E0FF7F
:405FC000EF249AFFEE34F9FEEE3395E0FDFC7BAB7A6479007800125092780D12521E90064FE0FDED3395E0FC12501AEE3395E0FDFC1298B990065C125297300C05C20C128E
:406000008339900556E0FFEF7006750E00750F00E50E1252FA60250060A00160BC0260F6030000618790064BE0FEA3E0FFEE3395E0FDFC129ACE8E238F24E5247F0025E0FD
:4060400025E0FEEE3395E0FDFC90055712528B12511D8E238F24300C05C20C128339C3E5236480948050087523007524008013D3E5249400E5236480948440067523047548
:406080002400AE23AF24EE3395E0FDFC900667125297200C03026187C20C128339026187900719E4F0A3E4F07F007E007D007C00900557125297750E02026187900719E417
:4060C00075F00112502C900719E0FEA3E0FFEF64F47003EE64016003026187900719E4F0A3E4F07F0112AD6B300C05C20C128339750E03026187900719E475F00112502CC8
:4061000090055712527FC004C005C006C00790064BE0FEA3E0FFEE3395E0FDFC129ACEAB07AA06A905A804A804A905AA06AB07D007D006D005D004125077900557125297A2
:40614000300C05C20C128339900719E0FEA3E0FFEFB4E833EEB4032F90055712527F7BE87A037900780012511D900557125297300C05C20C1283397F0012AD6B900719E47F
:40618000F0A3E4F0750E00300C05C20C128339E50F1252FA61A700621701623B026275036366040000636D90064DE0FEA3E0FFEE3395E0FDFC129B358E238F24E5247F008E
:4061C00025E025E0FEEE3395E0FDFC90055B12528B12511D8E238F24300C05C20C128339C3E5236480948050087523007524008013D3E5249400E523648094844006752337
:4062000004752400AE23AF24EE3395E0FDFC90066B12529702636D90071BE4F0A3E4F07F007E007D007C0090055B125297300C05C20C128339750F0402636D90071BE475A0
:40624000F00112502C90071BE0FEA3E0FFEF64F47003EE6401600302636D90071BE4F0A3E4F07F0112AD6B300C05C20C128339750F0302636D90071BE475F00112502C9054
:40628000055B12527FC004C005C006C00790064DE0FEA3E0FFEE3395E0FDFC129B35AB07AA06A905A804A804A905AA06AB07D007D006D005D00412507790055B125297300F
:4062C0000C05C20C12833990071BE0FEA3E0FFEF64E87003EE6403600302636D90055B12527F7BE87A037900780012511D90055B1252977F0012AD6B90071BE4F0A3E4F0F2
:40630000300C05C20C128339900483E0FFEF6402601D900483E0FFEF64036013900483E0FFEF64046009900483E0FFEFB40532900484E0FFEF701890065012527F9004CEDA
:4063400012529790065412527F9004D2125297900482E0FF9004E6EFF09004E6E0FF12AD8B750F008007E50E7003750F02300C7DC20C1283398076750E01750F01C20D30B9
:406380000C05C20C1283399004BFE0FFEF6034900483E0FFEF6402601D900483E0FFEF64036013900483E0FFEF64046009900483E0FFEFB4050D9004E6E4F09004E6E0FFEC
:4063C00012AD8B7F007E007D007C0090065C1252977F007E007D007C009006671252977F007E007D007C0090066B125297300C05C20C12833922E52824ABF582E43407F52A
:4064000083E00528229007A83008039007ABE475F0011252DA024FC22001E97F2ED2018018EF540F2490D43440D4FF30050BEF24BFB41A0050032461FFE5296002152905A6
:406440002CE52C7002052B30080E9007A8E475F0011252DAEF02500802A9287403D2088003E4C208F5289007A81252F1E4F529F52BF52CE52960077F2012643980F5752AC7
:40648000FFC202C201C203C204C206C207C209126405FF700D3008057F0012644AAF2CAE2B22B4255FC2D5C205126405FF24D0B40A00501A75F00A782930D50508B6FF0122
:4064C00006C6A426F620D5047002D20480D924CFB41A00EF5004C2E5D20502673CD20280C6D20180C0D20380BCD2D580BAD20680B47F201264392003077401B5290040F128
:406500001263F6FF126439026473D209D20780951263F6FB1263F6FA1263F6F94A4B7006793A7A687BFF20032EE529602A7E008E82758300124FDB60060EEE652A70F0C299
:40654000D5EBC0E0EAC0E0E9C0E0EE12679DD0E0F9D0E0FAD0E0FB124FC2FF60AAEBC0E0EAC0E0E9C0E0126439D0E02401F9D0E03400FAD0E0FBE52A0460DCD52AD98087A8
:40658000D20380A212677F60F7E52A700104124E10A92A600DE52A600914F52A126827EF60F3EA30E702F404C3995079EAF4252A0430E701E404F52A800D12677F60C1EAD3
:4065C000052A252A124E10EA9007D7F030E701E4252A04D52A042006011412679DE4C0E01268279007D7E0601320E70714F0126421802204F0D0E014C0E07F00126421E53E
:406600002A6007126418152A800B300603126418D0E0026473D0E00480C412677F609EE52A04124E109007D7EAF0E52A200602600104240412679D74FF04C0E012682712C4
:406640006421E52A2006026003126418D0E0B52AE87F4512642B9007D7E07F2B30E7047F2DF404C0E0126439D0E075F00A84C0F0126422D0E01264220264737910800279FB
:4066800008C207C2098008D2D5790A8004790AC2D5E52A047002F52AE4FAFDFEFF1263F6FC7B082002131263F6FD7B1030010A1263F6FE1263F6FF7B20EC3382D592D5508A
:4066C00013C3E43001069FFFE49EFEE42002039DFDE49CFCE4CBF8C202EC700CCFCECDCCE824F8F870F38017C3EF33FFEE33FEED33FDEC33FCEB33FB994002FB0FD8E9EB88
:40670000300205F8D0E0C448B202C0E00AEC4D4E4F78207B0070C2EAB52A0040BCC0E012679FD0F0D0E0200204C4C0E0C4B202C0F0126422D0F0D5F0EB0264731252FA65B2
:406740001053667B5864E14C64DD42667F4F66874466874964F643668D5565BA46661A45658447685A5064E52D64E92E650C2B64ED23650A2068432A64A54800006504E579
:406780002AB4FF03752A061263F6FC1263F6FD1263F6FE1263F6FF9007D0024E4D790AA2D5200414300609B910020404B9080104A2D52007025001042003689203B52900B1
:4067C0005034C0E07F203004197F30A20372077206500F1267F6C203C207C206C2097F30800F300603E9C0E0126439300603D0E0F9D0E0B529CC3006177F30B9100C126423
:40680000397F583005077F788003B908031264393003057F2D0264397F202009F87F2B2007F322920380CF7F00B40700500B24D0F582E43407F583E0FF22286E756C6C296E
:4068400000D2021263F63002F8C202782930D50108F60264A52D504349581263F62403B405004001E49068559312642A743A12642AD20475290402667B000D0A0046697209
:406880006D776172652076657273696F6E3A200053482D50524F2076362E302E30002E0D0A0D0A0044455649434520494E464F0D0A0049443A2025640D0A0050574D20727F
:4068C000657363616C696E672061637469766174696F6E3A20005945530A004E4F0A0050574D204C696D69743A2025640D0A004D4F544F5220494E464F0D0A004D6F746F64
:4069000072207265666572656E636500202D2043757272656E74733A2000202D2050776D3A2000202D20506F736974696F6E3A2000256420004D6F746F7220656E61626C06
:4069400065643A20005945530D0A004E4F0D0A000D0A4D4541535552454D454E545320494E464F0D0A0053656E736F722076616C75653A0D0A002564202D3E20256400560A
:406980006F6C7461676520286D56293A20256C640043757272656E7420286D41293A20256C64000D0A44455649434520504152414D45544552530D0A0050494420436F6E78
:4069C00074726F6C6C65723A0D0A0050202D3E20256620200049202D3E20256620200044202D3E2025660D0A0043757272656E742050494420436F6E74726F6C6C65723ACE
:406A00000D0A00537461727475702061637469766174696F6E3A205945530D0A00537461727475702061637469766174696F6E3A204E4F0D0A00496E707574206D6F646570
:406A40003A205553420D0A00496E707574206D6F64653A2048616E646C650D0A00496E707574206D6F64653A20454D472070726F706F7274696F6E616C0D0A00496E707525
:406A800074206D6F64653A20454D4720696E74656772616C0D0A00496E707574206D6F64653A20454D4720464346530D0A00496E707574206D6F64653A20454D47204643CB
:406AC0004653204144560D0A00436F6E74726F6C206D6F64653A20506F736974696F6E0D0A00436F6E74726F6C206D6F64653A2050574D0D0A00436F6E74726F6C206D6F97
:406B000064653A2043757272656E740D0A00436F6E74726F6C206D6F64653A2043757272656E7420616E6420506F736974696F6E0D0A004162736F6C75746520656E636F72
:406B400064657220706F736974696F6E3A205945530D0A004162736F6C75746520656E636F64657220706F736974696F6E3A204E4F0D0A004D6F746F722D48616E646C6577
:406B800020526174696F3A2025640D0A0053656E736F72207265736F6C7574696F6E3A0D0A004D6561737572656D656E74204F66667365743A0D0A002564202D3E20256C5A
:406BC00064004D6561737572656D656E74204D756C7469706C6965723A0D0A002564202D3E20256600506F736974696F6E206C696D6974206163746976653A2025640050F1
:406C00006F736974696F6E206C696D6974206D6F746F722025643A20696E66202D3E20256C64202000737570202D3E20256C640D0A004D6178207374657020706F7320619B
:406C40006E64206E65673A2025642025640043757272656E74206C696D69743A20256400454D47207468726573686F6C6473205B30202D20313032345D3A2025752C20257D
:406C80007500454D47206D61782076616C756573205B30202D20343039365D3A20256C752C20256C750043616C6962726174696F6E20656E61626C65643A205945530D0AC1
:406CC0000043616C6962726174696F6E20656E61626C65643A204E4F0D0A00454D47206D61782073706565643A2025640064656275673A20256C640090073DEFF090073D03
:406D0000E0FF8F23E523C394034003027042300A3290073E7403F090073EE0FF14F0EF60207F007E007D007C0090073EE0FBEB25E025E02409F582E43407F5831252978049
:406D4000D6C20AE523702012AF5F780112520BEF54FFFFEE54FFFEED5403FDEC5400FC90073F1252978043E523B4012012AF41780112520BEF54FFFFEE54FFFEED5403FDB8
:406D8000EC5400FC90073F125297801E12AF37780112520BEF54FFFFEE54FFFEED5403FDEC5400FC90073F1252977B017A07793F1298484003026FA990073F12527FEF547A
:406DC000C0FFEE54FFFEED5403FDEC5400FCEF2400FFEE3400FEED34FEFDEC34FFFCC004C005C006C007AF23EF25E025E0241FF582E43405F58312527FEF2402F9D007D0E7
:406E000006D005D004A80112520BEE3395E0FDFC900743125297300F2090074312527FAB23EB25E025E02409F582E43407F583125297E523B40202C20FAF23EF25E025E0B6
:406E40002409F582E43407F58312528B90074312527F1250849007471252977F007EC07D007C0090074712528BD31251E44011AF2374642FF582E43406F583E014F0805FD5
:406E80007F007E407DFF7CFF90074712528BC31251E45011AF2374642FF582E43406F583E004F0803A90074712527F12AF17D3EF9400EE648094C04026AF2374152FF58276
:406EC000E43407F583E004F0AF2374152FF582E43407F583E0FFEFC3940A5003027042AF2374152FF582E43407F583E4F090074312527FAB23EB25E025E02409F582E434B1
:406F000007F58312529790074312527FC004C005C006C007AF2374642FF582E43406F583E0FFEF3395E0FEFDFC7810125232A804A905AA06AB07D007D006D005D00412501F
:406F400077900743125297AF23EF25E025E02494F582E43404F58312527F7B007A007980783F124CD8602990074312527FEC124D51AB23EB25E025E02494F582E43404F594
:406F80008312528B124B32124D8F90074312529790074312527FAB23EB25E025E02450F582E43406F583125297301003027042900718E0FFEFC394225008900718E004F049
:406FC00080329004C9E0FFEF602A90065012527FC004C005C006C00790065412527F90074F125297D007D006D005D004128BF6900664EFF090065012527FC004C005C006C3
:40700000C007900664E0FFEF3395E0FEFDFC7810125232A804A905AA06AB07D007D006D005D00412507790065012529790065012527F9004CE1252979004E6E0FF12AD8B6F
:40704000D2102212AFEA1295667F647E007D007C00129C027F0112AD9B12A5E512ABED12A6BA12A2DF12A8B37EAF7FF112A9FB12AC957EAF7FEE12AA1A12AC027F0012ADA4
:407080002B7F0012AD3B7F0012AD5B7F0012AD8B12ACAA12AC6B12AC4112AC2C12AA937F0112ADDB900741E4F0A3E4F07B007A007D017F02129D9890073BEFF012A2009094
:4070C000073CEFF090073CE0FF90073CE0FB9007417486F07D087C0012924690073CE0FFC0077B017A067947AF01AE02AD037C00EF54FFFFEE54FFFEED5400FDEC5400FCA6
:40710000AB07AA06D0077D107C4E12942990073BE0FF90073CE0FD12A4A990073BE0FF7D011297617F0012AD7B12AC5612AC17D2AF9044F474FDF07F0012ADCB7F0A7E009B
:407140007D007C00129C0290073A7402F090073AE0FF14F0EF60207F007E007D007C0090073AE0FBEB25E025E024CEF582E43404F58312529780D69004BFE0FFEF603A90DC
:407180000483E0FFEF6402601D900483E0FFEF64036013900483E0FFEF64046009900483E0FFEFB405079004E6E4F08016900482E0FF9004E6EFF0800A900482E0FF900438
:4071C000E6EFF090073A7403F090073AE0FF14F0EF60317F007E007D007C0090073AE0FBEB25E025E02450F582E43406F58312529790073AE0FF74642FF582E43406F58387
:40720000E4F080C57B017A0479CEC003C002C0017B017A06792AA801AC02AD03D001D002D0037E007F1912545A900482E0FF9004E6EFF07F007E007D007C00900667125217
